{
  "contracts/SampleAvsLogicDataReader.sol": {
    "SampleAvsLogicDataReader": {
      "abi": [
        {
          "inputs": [
            {
              "internalType": "address",
              "name": "_attestationCenter",
              "type": "address"
            }
          ],
          "stateMutability": "nonpayable",
          "type": "constructor"
        },
        {
          "inputs": [
            {
              "components": [
                {
                  "internalType": "string",
                  "name": "proofOfTask",
                  "type": "string"
                },
                {
                  "internalType": "bytes",
                  "name": "data",
                  "type": "bytes"
                },
                {
                  "internalType": "address",
                  "name": "taskPerformer",
                  "type": "address"
                },
                {
                  "internalType": "uint16",
                  "name": "taskDefinitionId",
                  "type": "uint16"
                }
              ],
              "internalType": "struct IAttestationCenter.TaskInfo",
              "name": "_taskInfo",
              "type": "tuple"
            },
            {
              "internalType": "bool",
              "name": "_isApproved",
              "type": "bool"
            },
            {
              "internalType": "bytes",
              "name": "",
              "type": "bytes"
            },
            {
              "internalType": "uint256[2]",
              "name": "",
              "type": "uint256[2]"
            },
            {
              "internalType": "uint256[]",
              "name": "",
              "type": "uint256[]"
            }
          ],
          "name": "afterTaskSubmission",
          "outputs": [],
          "stateMutability": "nonpayable",
          "type": "function"
        },
        {
          "inputs": [],
          "name": "attestationCenter",
          "outputs": [
            {
              "internalType": "address",
              "name": "",
              "type": "address"
            }
          ],
          "stateMutability": "view",
          "type": "function"
        },
        {
          "inputs": [
            {
              "components": [
                {
                  "internalType": "string",
                  "name": "proofOfTask",
                  "type": "string"
                },
                {
                  "internalType": "bytes",
                  "name": "data",
                  "type": "bytes"
                },
                {
                  "internalType": "address",
                  "name": "taskPerformer",
                  "type": "address"
                },
                {
                  "internalType": "uint16",
                  "name": "taskDefinitionId",
                  "type": "uint16"
                }
              ],
              "internalType": "struct IAttestationCenter.TaskInfo",
              "name": "_taskInfo",
              "type": "tuple"
            },
            {
              "internalType": "bool",
              "name": "_isApproved",
              "type": "bool"
            },
            {
              "internalType": "bytes",
              "name": "_tpSignature",
              "type": "bytes"
            },
            {
              "internalType": "uint256[2]",
              "name": "_taSignature",
              "type": "uint256[2]"
            },
            {
              "internalType": "uint256[]",
              "name": "_operatorIds",
              "type": "uint256[]"
            }
          ],
          "name": "beforeTaskSubmission",
          "outputs": [],
          "stateMutability": "nonpayable",
          "type": "function"
        },
        {
          "inputs": [],
          "name": "counter",
          "outputs": [
            {
              "internalType": "uint256",
              "name": "",
              "type": "uint256"
            }
          ],
          "stateMutability": "view",
          "type": "function"
        },
        {
          "inputs": [],
          "name": "lastTaskData",
          "outputs": [
            {
              "internalType": "uint8",
              "name": "activity",
              "type": "uint8"
            },
            {
              "internalType": "uint8",
              "name": "category",
              "type": "uint8"
            },
            {
              "internalType": "uint256",
              "name": "amountA",
              "type": "uint256"
            },
            {
              "internalType": "uint256",
              "name": "amountB",
              "type": "uint256"
            }
          ],
          "stateMutability": "view",
          "type": "function"
        },
        {
          "inputs": [],
          "name": "lastTaskInfo",
          "outputs": [
            {
              "internalType": "string",
              "name": "proofOfTask",
              "type": "string"
            },
            {
              "internalType": "bytes",
              "name": "data",
              "type": "bytes"
            },
            {
              "internalType": "address",
              "name": "taskPerformer",
              "type": "address"
            },
            {
              "internalType": "uint16",
              "name": "taskDefinitionId",
              "type": "uint16"
            }
          ],
          "stateMutability": "view",
          "type": "function"
        }
      ],
      "evm": {
        "bytecode": {
          "linkReferences": {},
          "object": "608060405234801561001057600080fd5b50604051611344380380611344833981810160405281019061003291906100dc565b80600460006101000a81548173ffffffffffffffffffffffffffffffffffffffff021916908373ffffffffffffffffffffffffffffffffffffffff16021790555050610109565b600080fd5b600073ffffffffffffffffffffffffffffffffffffffff82169050919050565b60006100a98261007e565b9050919050565b6100b98161009e565b81146100c457600080fd5b50565b6000815190506100d6816100b0565b92915050565b6000602082840312156100f2576100f1610079565b5b6000610100848285016100c7565b91505092915050565b61122c806101186000396000f3fe608060405234801561001057600080fd5b50600436106100625760003560e01c8063502f5bd01461006757806361bc221a14610083578063b69e0c72146100a1578063c102e96c146100c2578063d92807a2146100e3578063dd1a538714610101575b600080fd5b610081600480360381019061007c91906105bb565b61011d565b005b61008b610126565b60405161009891906106ac565b60405180910390f35b6100a961012c565b6040516100b994939291906106e3565b60405180910390f35b6100ca610164565b6040516100da949392919061086b565b60405180910390f35b6100eb6102c0565b6040516100f891906108be565b60405180910390f35b61011b600480360381019061011691906105bb565b6102e6565b005b50505050505050565b60005481565b60058060000160009054906101000a900460ff16908060000160019054906101000a900460ff16908060010154908060020154905084565b600180600001805461017590610908565b80601f01602080910402602001604051908101604052809291908181526020018280546101a190610908565b80156101ee5780601f106101c3576101008083540402835291602001916101ee565b820191906000526020600020905b8154815290600101906020018083116101d157829003601f168201915b50505050509080600101805461020390610908565b80601f016020809104026020016040519081016040528092919081815260200182805461022f90610908565b801561027c5780601f106102515761010080835404028352916020019161027c565b820191906000526020600020905b81548152906001019060200180831161025f57829003601f168201915b5050505050908060020160009054906101000a900473ffffffffffffffffffffffffffffffffffffffff16908060020160149054906101000a900461ffff16905084565b600460009054906101000a900473ffffffffffffffffffffffffffffffffffffffff1681565b600460009054906101000a900473ffffffffffffffffffffffffffffffffffffffff1673ffffffffffffffffffffffffffffffffffffffff163373ffffffffffffffffffffffffffffffffffffffff1614610376576040517f08c379a000000000000000000000000000000000000000000000000000000000815260040161036d90610985565b60405180910390fd5b866001818161038591906110b2565b905050851561046f57866001818161039d91906110b2565b9050506000808154809291906103b2906110ef565b91905055506000806000808a80602001906103cd9190610cdd565b8101906103da919061118f565b9350935093509350600060405180608001604052808660ff1681526020018560ff16815260200184815260200183815250905080600560008201518160000160006101000a81548160ff021916908360ff16021790555060208201518160000160016101000a81548160ff021916908360ff160217905550604082015181600101556060820151816002015590505050505050505b50505050505050565b600080fd5b600080fd5b600080fd5b60006080828403121561049d5761049c610482565b5b81905092915050565b60008115159050919050565b6104bb816104a6565b81146104c657600080fd5b50565b6000813590506104d8816104b2565b92915050565b600080fd5b600080fd5b600080fd5b60008083601f840112610503576105026104de565b5b8235905067ffffffffffffffff8111156105205761051f6104e3565b5b60208301915083600182028301111561053c5761053b6104e8565b5b9250929050565b60008190508260206002028201111561055f5761055e6104e8565b5b92915050565b60008083601f84011261057b5761057a6104de565b5b8235905067ffffffffffffffff811115610598576105976104e3565b5b6020830191508360208202830111156105b4576105b36104e8565b5b9250929050565b600080600080600080600060c0888a0312156105da576105d9610478565b5b600088013567ffffffffffffffff8111156105f8576105f761047d565b5b6106048a828b01610487565b97505060206106158a828b016104c9565b965050604088013567ffffffffffffffff8111156106365761063561047d565b5b6106428a828b016104ed565b955095505060606106558a828b01610543565b93505060a088013567ffffffffffffffff8111156106765761067561047d565b5b6106828a828b01610565565b925092505092959891949750929550565b6000819050919050565b6106a681610693565b82525050565b60006020820190506106c1600083018461069d565b92915050565b600060ff82169050919050565b6106dd816106c7565b82525050565b60006080820190506106f860008301876106d4565b61070560208301866106d4565b610712604083018561069d565b61071f606083018461069d565b95945050505050565b600081519050919050565b600082825260208201905092915050565b60005b83811015610762578082015181840152602081019050610747565b60008484015250505050565b6000601f19601f8301169050919050565b600061078a82610728565b6107948185610733565b93506107a4818560208601610744565b6107ad8161076e565b840191505092915050565b600081519050919050565b600082825260208201905092915050565b60006107df826107b8565b6107e981856107c3565b93506107f9818560208601610744565b6108028161076e565b840191505092915050565b600073ffffffffffffffffffffffffffffffffffffffff82169050919050565b60006108388261080d565b9050919050565b6108488161082d565b82525050565b600061ffff82169050919050565b6108658161084e565b82525050565b60006080820190508181036000830152610885818761077f565b9050818103602083015261089981866107d4565b90506108a8604083018561083f565b6108b5606083018461085c565b95945050505050565b60006020820190506108d3600083018461083f565b92915050565b7f4e487b7100000000000000000000000000000000000000000000000000000000600052602260045260246000fd5b6000600282049050600182168061092057607f821691505b602082108103610933576109326108d9565b5b50919050565b7f4e6f7420616c6c6f776564000000000000000000000000000000000000000000600082015250565b600061096f600b83610733565b915061097a82610939565b602082019050919050565b6000602082019050818103600083015261099e81610962565b9050919050565b600080fd5b600080fd5b600080fd5b600080833560016020038436030381126109d1576109d06109a5565b5b80840192508235915067ffffffffffffffff8211156109f3576109f26109aa565b5b602083019250600182023603831315610a0f57610a0e6109af565b5b509250929050565b600082905092915050565b7f4e487b7100000000000000000000000000000000000000000000000000000000600052604160045260246000fd5b60008190508160005260206000209050919050565b60006020601f8301049050919050565b600082821b905092915050565b600060088302610ab37fffffffffffffffffffffffffffffffffffffffffffffffffffffffffffffffff82610a76565b610abd8683610a76565b95508019841693508086168417925050509392505050565b6000819050919050565b6000610afa610af5610af084610693565b610ad5565b610693565b9050919050565b6000819050919050565b610b1483610adf565b610b28610b2082610b01565b848454610a83565b825550505050565b600090565b610b3d610b30565b610b48818484610b0b565b505050565b5b81811015610b6c57610b61600082610b35565b600181019050610b4e565b5050565b601f821115610bb157610b8281610a51565b610b8b84610a66565b81016020851015610b9a578190505b610bae610ba685610a66565b830182610b4d565b50505b505050565b600082821c905092915050565b6000610bd460001984600802610bb6565b1980831691505092915050565b6000610bed8383610bc3565b9150826002028217905092915050565b610c078383610a17565b67ffffffffffffffff811115610c2057610c1f610a22565b5b610c2a8254610908565b610c35828285610b70565b6000601f831160018114610c645760008415610c52578287013590505b610c5c8582610be1565b865550610cc4565b601f198416610c7286610a51565b60005b82811015610c9a57848901358255600182019150602085019450602081019050610c75565b86831015610cb75784890135610cb3601f891682610bc3565b8355505b6001600288020188555050505b50505050505050565b610cd8838383610bfd565b505050565b60008083356001602003843603038112610cfa57610cf96109a5565b5b80840192508235915067ffffffffffffffff821115610d1c57610d1b6109aa565b5b602083019250600182023603831315610d3857610d376109af565b5b509250929050565b600082905092915050565b60008190508160005260206000209050919050565b601f821115610da157610d7281610d4b565b610d7b84610a66565b81016020851015610d8a578190505b610d9e610d9685610a66565b830182610b4d565b50505b505050565b610db08383610d40565b67ffffffffffffffff811115610dc957610dc8610a22565b5b610dd38254610908565b610dde828285610d60565b6000601f831160018114610e0d5760008415610dfb578287013590505b610e058582610be1565b865550610e6d565b601f198416610e1b86610d4b565b60005b82811015610e4357848901358255600182019150602085019450602081019050610e1e565b86831015610e605784890135610e5c601f891682610bc3565b8355505b6001600288020188555050505b50505050505050565b610e81838383610da6565b505050565b610e8f8161082d565b8114610e9a57600080fd5b50565b60008135610eaa81610e86565b80915050919050565b60008160001b9050919050565b600073ffffffffffffffffffffffffffffffffffffffff610ee084610eb3565b9350801983169250808416831791505092915050565b6000610f11610f0c610f078461080d565b610ad5565b61080d565b9050919050565b6000610f2382610ef6565b9050919050565b6000610f3582610f18565b9050919050565b6000819050919050565b610f4f82610f2a565b610f62610f5b82610f3c565b8354610ec0565b8255505050565b610f728161084e565b8114610f7d57600080fd5b50565b60008135610f8d81610f69565b80915050919050565b60008160a01b9050919050565b600075ffff0000000000000000000000000000000000000000610fc584610f96565b9350801983169250808416831791505092915050565b6000610ff6610ff1610fec8461084e565b610ad5565b61084e565b9050919050565b6000819050919050565b61101082610fdb565b61102361101c82610ffd565b8354610fa3565b8255505050565b600081016000830161103c81856109b4565b611047818386610ccd565b50505050600181016020830161105d8185610cdd565b611068818386610e76565b5050505060028101604083018061107e81610e9d565b905061108a8184610f46565b50505060028101606083018061109f81610f80565b90506110ab8184611007565b5050505050565b6110bc828261102a565b5050565b7f4e487b7100000000000000000000000000000000000000000000000000000000600052601160045260246000fd5b60006110fa82610693565b91507fffffffffffffffffffffffffffffffffffffffffffffffffffffffffffffffff820361112c5761112b6110c0565b5b600182019050919050565b611140816106c7565b811461114b57600080fd5b50565b60008135905061115d81611137565b92915050565b61116c81610693565b811461117757600080fd5b50565b60008135905061118981611163565b92915050565b600080600080608085870312156111a9576111a8610478565b5b60006111b78782880161114e565b94505060206111c88782880161114e565b93505060406111d98782880161117a565b92505060606111ea8782880161117a565b9150509295919450925056fea2646970667358221220ca0e1df040d0d2c2b5bf3a521adbd515894572db848a782311324ea6f30640f564736f6c634300081c0033",
          "opcodes": "PUSH1 0x80 PUSH1 0x40 MSTORE CALLVALUE DUP1 ISZERO PUSH2 0x10 JUMPI PUSH1 0x0 DUP1 REVERT JUMPDEST POP PUSH1 0x40 MLOAD PUSH2 0x1344 CODESIZE SUB DUP1 PUSH2 0x1344 DUP4 CODECOPY DUP2 DUP2 ADD PUSH1 0x40 MSTORE DUP2 ADD SWAP1 PUSH2 0x32 SWAP2 SWAP1 PUSH2 0xDC JUMP JUMPDEST DUP1 PUSH1 0x4 PUSH1 0x0 PUSH2 0x100 EXP DUP2 SLOAD DUP2 PUSH20 0xFFFFFFFFFFFFFFFFFFFFFFFFFFFFFFFFFFFFFFFF MUL NOT AND SWAP1 DUP4 PUSH20 0xFFFFFFFFFFFFFFFFFFFFFFFFFFFFFFFFFFFFFFFF AND MUL OR SWAP1 SSTORE POP POP PUSH2 0x109 JUMP JUMPDEST PUSH1 0x0 DUP1 REVERT JUMPDEST PUSH1 0x0 PUSH20 0xFFFFFFFFFFFFFFFFFFFFFFFFFFFFFFFFFFFFFFFF DUP3 AND SWAP1 POP SWAP2 SWAP1 POP JUMP JUMPDEST PUSH1 0x0 PUSH2 0xA9 DUP3 PUSH2 0x7E JUMP JUMPDEST SWAP1 POP SWAP2 SWAP1 POP JUMP JUMPDEST PUSH2 0xB9 DUP2 PUSH2 0x9E JUMP JUMPDEST DUP2 EQ PUSH2 0xC4 JUMPI PUSH1 0x0 DUP1 REVERT JUMPDEST POP JUMP JUMPDEST PUSH1 0x0 DUP2 MLOAD SWAP1 POP PUSH2 0xD6 DUP2 PUSH2 0xB0 JUMP JUMPDEST SWAP3 SWAP2 POP POP JUMP JUMPDEST PUSH1 0x0 PUSH1 0x20 DUP3 DUP5 SUB SLT ISZERO PUSH2 0xF2 JUMPI PUSH2 0xF1 PUSH2 0x79 JUMP JUMPDEST JUMPDEST PUSH1 0x0 PUSH2 0x100 DUP5 DUP3 DUP6 ADD PUSH2 0xC7 JUMP JUMPDEST SWAP2 POP POP SWAP3 SWAP2 POP POP JUMP JUMPDEST PUSH2 0x122C DUP1 PUSH2 0x118 PUSH1 0x0 CODECOPY PUSH1 0x0 RETURN INVALID PUSH1 0x80 PUSH1 0x40 MSTORE CALLVALUE DUP1 ISZERO PUSH2 0x10 JUMPI PUSH1 0x0 DUP1 REVERT JUMPDEST POP PUSH1 0x4 CALLDATASIZE LT PUSH2 0x62 JUMPI PUSH1 0x0 CALLDATALOAD PUSH1 0xE0 SHR DUP1 PUSH4 0x502F5BD0 EQ PUSH2 0x67 JUMPI DUP1 PUSH4 0x61BC221A EQ PUSH2 0x83 JUMPI DUP1 PUSH4 0xB69E0C72 EQ PUSH2 0xA1 JUMPI DUP1 PUSH4 0xC102E96C EQ PUSH2 0xC2 JUMPI DUP1 PUSH4 0xD92807A2 EQ PUSH2 0xE3 JUMPI DUP1 PUSH4 0xDD1A5387 EQ PUSH2 0x101 JUMPI JUMPDEST PUSH1 0x0 DUP1 REVERT JUMPDEST PUSH2 0x81 PUSH1 0x4 DUP1 CALLDATASIZE SUB DUP2 ADD SWAP1 PUSH2 0x7C SWAP2 SWAP1 PUSH2 0x5BB JUMP JUMPDEST PUSH2 0x11D JUMP JUMPDEST STOP JUMPDEST PUSH2 0x8B PUSH2 0x126 JUMP JUMPDEST PUSH1 0x40 MLOAD PUSH2 0x98 SWAP2 SWAP1 PUSH2 0x6AC JUMP JUMPDEST PUSH1 0x40 MLOAD DUP1 SWAP2 SUB SWAP1 RETURN JUMPDEST PUSH2 0xA9 PUSH2 0x12C JUMP JUMPDEST PUSH1 0x40 MLOAD PUSH2 0xB9 SWAP5 SWAP4 SWAP3 SWAP2 SWAP1 PUSH2 0x6E3 JUMP JUMPDEST PUSH1 0x40 MLOAD DUP1 SWAP2 SUB SWAP1 RETURN JUMPDEST PUSH2 0xCA PUSH2 0x164 JUMP JUMPDEST PUSH1 0x40 MLOAD PUSH2 0xDA SWAP5 SWAP4 SWAP3 SWAP2 SWAP1 PUSH2 0x86B JUMP JUMPDEST PUSH1 0x40 MLOAD DUP1 SWAP2 SUB SWAP1 RETURN JUMPDEST PUSH2 0xEB PUSH2 0x2C0 JUMP JUMPDEST PUSH1 0x40 MLOAD PUSH2 0xF8 SWAP2 SWAP1 PUSH2 0x8BE JUMP JUMPDEST PUSH1 0x40 MLOAD DUP1 SWAP2 SUB SWAP1 RETURN JUMPDEST PUSH2 0x11B PUSH1 0x4 DUP1 CALLDATASIZE SUB DUP2 ADD SWAP1 PUSH2 0x116 SWAP2 SWAP1 PUSH2 0x5BB JUMP JUMPDEST PUSH2 0x2E6 JUMP JUMPDEST STOP JUMPDEST POP POP POP POP POP POP POP JUMP JUMPDEST PUSH1 0x0 SLOAD DUP2 JUMP JUMPDEST PUSH1 0x5 DUP1 PUSH1 0x0 ADD PUSH1 0x0 SWAP1 SLOAD SWAP1 PUSH2 0x100 EXP SWAP1 DIV PUSH1 0xFF AND SWAP1 DUP1 PUSH1 0x0 ADD PUSH1 0x1 SWAP1 SLOAD SWAP1 PUSH2 0x100 EXP SWAP1 DIV PUSH1 0xFF AND SWAP1 DUP1 PUSH1 0x1 ADD SLOAD SWAP1 DUP1 PUSH1 0x2 ADD SLOAD SWAP1 POP DUP5 JUMP JUMPDEST PUSH1 0x1 DUP1 PUSH1 0x0 ADD DUP1 SLOAD PUSH2 0x175 SWAP1 PUSH2 0x908 JUMP JUMPDEST DUP1 PUSH1 0x1F ADD PUSH1 0x20 DUP1 SWAP2 DIV MUL PUSH1 0x20 ADD PUSH1 0x40 MLOAD SWAP1 DUP2 ADD PUSH1 0x40 MSTORE DUP1 SWAP3 SWAP2 SWAP1 DUP2 DUP2 MSTORE PUSH1 0x20 ADD DUP3 DUP1 SLOAD PUSH2 0x1A1 SWAP1 PUSH2 0x908 JUMP JUMPDEST DUP1 ISZERO PUSH2 0x1EE JUMPI DUP1 PUSH1 0x1F LT PUSH2 0x1C3 JUMPI PUSH2 0x100 DUP1 DUP4 SLOAD DIV MUL DUP4 MSTORE SWAP2 PUSH1 0x20 ADD SWAP2 PUSH2 0x1EE JUMP JUMPDEST DUP3 ADD SWAP2 SWAP1 PUSH1 0x0 MSTORE PUSH1 0x20 PUSH1 0x0 KECCAK256 SWAP1 JUMPDEST DUP2 SLOAD DUP2 MSTORE SWAP1 PUSH1 0x1 ADD SWAP1 PUSH1 0x20 ADD DUP1 DUP4 GT PUSH2 0x1D1 JUMPI DUP3 SWAP1 SUB PUSH1 0x1F AND DUP3 ADD SWAP2 JUMPDEST POP POP POP POP POP SWAP1 DUP1 PUSH1 0x1 ADD DUP1 SLOAD PUSH2 0x203 SWAP1 PUSH2 0x908 JUMP JUMPDEST DUP1 PUSH1 0x1F ADD PUSH1 0x20 DUP1 SWAP2 DIV MUL PUSH1 0x20 ADD PUSH1 0x40 MLOAD SWAP1 DUP2 ADD PUSH1 0x40 MSTORE DUP1 SWAP3 SWAP2 SWAP1 DUP2 DUP2 MSTORE PUSH1 0x20 ADD DUP3 DUP1 SLOAD PUSH2 0x22F SWAP1 PUSH2 0x908 JUMP JUMPDEST DUP1 ISZERO PUSH2 0x27C JUMPI DUP1 PUSH1 0x1F LT PUSH2 0x251 JUMPI PUSH2 0x100 DUP1 DUP4 SLOAD DIV MUL DUP4 MSTORE SWAP2 PUSH1 0x20 ADD SWAP2 PUSH2 0x27C JUMP JUMPDEST DUP3 ADD SWAP2 SWAP1 PUSH1 0x0 MSTORE PUSH1 0x20 PUSH1 0x0 KECCAK256 SWAP1 JUMPDEST DUP2 SLOAD DUP2 MSTORE SWAP1 PUSH1 0x1 ADD SWAP1 PUSH1 0x20 ADD DUP1 DUP4 GT PUSH2 0x25F JUMPI DUP3 SWAP1 SUB PUSH1 0x1F AND DUP3 ADD SWAP2 JUMPDEST POP POP POP POP POP SWAP1 DUP1 PUSH1 0x2 ADD PUSH1 0x0 SWAP1 SLOAD SWAP1 PUSH2 0x100 EXP SWAP1 DIV PUSH20 0xFFFFFFFFFFFFFFFFFFFFFFFFFFFFFFFFFFFFFFFF AND SWAP1 DUP1 PUSH1 0x2 ADD PUSH1 0x14 SWAP1 SLOAD SWAP1 PUSH2 0x100 EXP SWAP1 DIV PUSH2 0xFFFF AND SWAP1 POP DUP5 JUMP JUMPDEST PUSH1 0x4 PUSH1 0x0 SWAP1 SLOAD SWAP1 PUSH2 0x100 EXP SWAP1 DIV PUSH20 0xFFFFFFFFFFFFFFFFFFFFFFFFFFFFFFFFFFFFFFFF AND DUP2 JUMP JUMPDEST PUSH1 0x4 PUSH1 0x0 SWAP1 SLOAD SWAP1 PUSH2 0x100 EXP SWAP1 DIV PUSH20 0xFFFFFFFFFFFFFFFFFFFFFFFFFFFFFFFFFFFFFFFF AND PUSH20 0xFFFFFFFFFFFFFFFFFFFFFFFFFFFFFFFFFFFFFFFF AND CALLER PUSH20 0xFFFFFFFFFFFFFFFFFFFFFFFFFFFFFFFFFFFFFFFF AND EQ PUSH2 0x376 JUMPI PUSH1 0x40 MLOAD PUSH32 0x8C379A000000000000000000000000000000000000000000000000000000000 DUP2 MSTORE PUSH1 0x4 ADD PUSH2 0x36D SWAP1 PUSH2 0x985 JUMP JUMPDEST PUSH1 0x40 MLOAD DUP1 SWAP2 SUB SWAP1 REVERT JUMPDEST DUP7 PUSH1 0x1 DUP2 DUP2 PUSH2 0x385 SWAP2 SWAP1 PUSH2 0x10B2 JUMP JUMPDEST SWAP1 POP POP DUP6 ISZERO PUSH2 0x46F JUMPI DUP7 PUSH1 0x1 DUP2 DUP2 PUSH2 0x39D SWAP2 SWAP1 PUSH2 0x10B2 JUMP JUMPDEST SWAP1 POP POP PUSH1 0x0 DUP1 DUP2 SLOAD DUP1 SWAP3 SWAP2 SWAP1 PUSH2 0x3B2 SWAP1 PUSH2 0x10EF JUMP JUMPDEST SWAP2 SWAP1 POP SSTORE POP PUSH1 0x0 DUP1 PUSH1 0x0 DUP1 DUP11 DUP1 PUSH1 0x20 ADD SWAP1 PUSH2 0x3CD SWAP2 SWAP1 PUSH2 0xCDD JUMP JUMPDEST DUP2 ADD SWAP1 PUSH2 0x3DA SWAP2 SWAP1 PUSH2 0x118F JUMP JUMPDEST SWAP4 POP SWAP4 POP SWAP4 POP SWAP4 POP PUSH1 0x0 PUSH1 0x40 MLOAD DUP1 PUSH1 0x80 ADD PUSH1 0x40 MSTORE DUP1 DUP7 PUSH1 0xFF AND DUP2 MSTORE PUSH1 0x20 ADD DUP6 PUSH1 0xFF AND DUP2 MSTORE PUSH1 0x20 ADD DUP5 DUP2 MSTORE PUSH1 0x20 ADD DUP4 DUP2 MSTORE POP SWAP1 POP DUP1 PUSH1 0x5 PUSH1 0x0 DUP3 ADD MLOAD DUP2 PUSH1 0x0 ADD PUSH1 0x0 PUSH2 0x100 EXP DUP2 SLOAD DUP2 PUSH1 0xFF MUL NOT AND SWAP1 DUP4 PUSH1 0xFF AND MUL OR SWAP1 SSTORE POP PUSH1 0x20 DUP3 ADD MLOAD DUP2 PUSH1 0x0 ADD PUSH1 0x1 PUSH2 0x100 EXP DUP2 SLOAD DUP2 PUSH1 0xFF MUL NOT AND SWAP1 DUP4 PUSH1 0xFF AND MUL OR SWAP1 SSTORE POP PUSH1 0x40 DUP3 ADD MLOAD DUP2 PUSH1 0x1 ADD SSTORE PUSH1 0x60 DUP3 ADD MLOAD DUP2 PUSH1 0x2 ADD SSTORE SWAP1 POP POP POP POP POP POP POP JUMPDEST POP POP POP POP POP POP POP JUMP JUMPDEST PUSH1 0x0 DUP1 REVERT JUMPDEST PUSH1 0x0 DUP1 REVERT JUMPDEST PUSH1 0x0 DUP1 REVERT JUMPDEST PUSH1 0x0 PUSH1 0x80 DUP3 DUP5 SUB SLT ISZERO PUSH2 0x49D JUMPI PUSH2 0x49C PUSH2 0x482 JUMP JUMPDEST JUMPDEST DUP2 SWAP1 POP SWAP3 SWAP2 POP POP JUMP JUMPDEST PUSH1 0x0 DUP2 ISZERO ISZERO SWAP1 POP SWAP2 SWAP1 POP JUMP JUMPDEST PUSH2 0x4BB DUP2 PUSH2 0x4A6 JUMP JUMPDEST DUP2 EQ PUSH2 0x4C6 JUMPI PUSH1 0x0 DUP1 REVERT JUMPDEST POP JUMP JUMPDEST PUSH1 0x0 DUP2 CALLDATALOAD SWAP1 POP PUSH2 0x4D8 DUP2 PUSH2 0x4B2 JUMP JUMPDEST SWAP3 SWAP2 POP POP JUMP JUMPDEST PUSH1 0x0 DUP1 REVERT JUMPDEST PUSH1 0x0 DUP1 REVERT JUMPDEST PUSH1 0x0 DUP1 REVERT JUMPDEST PUSH1 0x0 DUP1 DUP4 PUSH1 0x1F DUP5 ADD SLT PUSH2 0x503 JUMPI PUSH2 0x502 PUSH2 0x4DE JUMP JUMPDEST JUMPDEST DUP3 CALLDATALOAD SWAP1 POP PUSH8 0xFFFFFFFFFFFFFFFF DUP2 GT ISZERO PUSH2 0x520 JUMPI PUSH2 0x51F PUSH2 0x4E3 JUMP JUMPDEST JUMPDEST PUSH1 0x20 DUP4 ADD SWAP2 POP DUP4 PUSH1 0x1 DUP3 MUL DUP4 ADD GT ISZERO PUSH2 0x53C JUMPI PUSH2 0x53B PUSH2 0x4E8 JUMP JUMPDEST JUMPDEST SWAP3 POP SWAP3 SWAP1 POP JUMP JUMPDEST PUSH1 0x0 DUP2 SWAP1 POP DUP3 PUSH1 0x20 PUSH1 0x2 MUL DUP3 ADD GT ISZERO PUSH2 0x55F JUMPI PUSH2 0x55E PUSH2 0x4E8 JUMP JUMPDEST JUMPDEST SWAP3 SWAP2 POP POP JUMP JUMPDEST PUSH1 0x0 DUP1 DUP4 PUSH1 0x1F DUP5 ADD SLT PUSH2 0x57B JUMPI PUSH2 0x57A PUSH2 0x4DE JUMP JUMPDEST JUMPDEST DUP3 CALLDATALOAD SWAP1 POP PUSH8 0xFFFFFFFFFFFFFFFF DUP2 GT ISZERO PUSH2 0x598 JUMPI PUSH2 0x597 PUSH2 0x4E3 JUMP JUMPDEST JUMPDEST PUSH1 0x20 DUP4 ADD SWAP2 POP DUP4 PUSH1 0x20 DUP3 MUL DUP4 ADD GT ISZERO PUSH2 0x5B4 JUMPI PUSH2 0x5B3 PUSH2 0x4E8 JUMP JUMPDEST JUMPDEST SWAP3 POP SWAP3 SWAP1 POP JUMP JUMPDEST PUSH1 0x0 DUP1 PUSH1 0x0 DUP1 PUSH1 0x0 DUP1 PUSH1 0x0 PUSH1 0xC0 DUP9 DUP11 SUB SLT ISZERO PUSH2 0x5DA JUMPI PUSH2 0x5D9 PUSH2 0x478 JUMP JUMPDEST JUMPDEST PUSH1 0x0 DUP9 ADD CALLDATALOAD PUSH8 0xFFFFFFFFFFFFFFFF DUP2 GT ISZERO PUSH2 0x5F8 JUMPI PUSH2 0x5F7 PUSH2 0x47D JUMP JUMPDEST JUMPDEST PUSH2 0x604 DUP11 DUP3 DUP12 ADD PUSH2 0x487 JUMP JUMPDEST SWAP8 POP POP PUSH1 0x20 PUSH2 0x615 DUP11 DUP3 DUP12 ADD PUSH2 0x4C9 JUMP JUMPDEST SWAP7 POP POP PUSH1 0x40 DUP9 ADD CALLDATALOAD PUSH8 0xFFFFFFFFFFFFFFFF DUP2 GT ISZERO PUSH2 0x636 JUMPI PUSH2 0x635 PUSH2 0x47D JUMP JUMPDEST JUMPDEST PUSH2 0x642 DUP11 DUP3 DUP12 ADD PUSH2 0x4ED JUMP JUMPDEST SWAP6 POP SWAP6 POP POP PUSH1 0x60 PUSH2 0x655 DUP11 DUP3 DUP12 ADD PUSH2 0x543 JUMP JUMPDEST SWAP4 POP POP PUSH1 0xA0 DUP9 ADD CALLDATALOAD PUSH8 0xFFFFFFFFFFFFFFFF DUP2 GT ISZERO PUSH2 0x676 JUMPI PUSH2 0x675 PUSH2 0x47D JUMP JUMPDEST JUMPDEST PUSH2 0x682 DUP11 DUP3 DUP12 ADD PUSH2 0x565 JUMP JUMPDEST SWAP3 POP SWAP3 POP POP SWAP3 SWAP6 SWAP9 SWAP2 SWAP5 SWAP8 POP SWAP3 SWAP6 POP JUMP JUMPDEST PUSH1 0x0 DUP2 SWAP1 POP SWAP2 SWAP1 POP JUMP JUMPDEST PUSH2 0x6A6 DUP2 PUSH2 0x693 JUMP JUMPDEST DUP3 MSTORE POP POP JUMP JUMPDEST PUSH1 0x0 PUSH1 0x20 DUP3 ADD SWAP1 POP PUSH2 0x6C1 PUSH1 0x0 DUP4 ADD DUP5 PUSH2 0x69D JUMP JUMPDEST SWAP3 SWAP2 POP POP JUMP JUMPDEST PUSH1 0x0 PUSH1 0xFF DUP3 AND SWAP1 POP SWAP2 SWAP1 POP JUMP JUMPDEST PUSH2 0x6DD DUP2 PUSH2 0x6C7 JUMP JUMPDEST DUP3 MSTORE POP POP JUMP JUMPDEST PUSH1 0x0 PUSH1 0x80 DUP3 ADD SWAP1 POP PUSH2 0x6F8 PUSH1 0x0 DUP4 ADD DUP8 PUSH2 0x6D4 JUMP JUMPDEST PUSH2 0x705 PUSH1 0x20 DUP4 ADD DUP7 PUSH2 0x6D4 JUMP JUMPDEST PUSH2 0x712 PUSH1 0x40 DUP4 ADD DUP6 PUSH2 0x69D JUMP JUMPDEST PUSH2 0x71F PUSH1 0x60 DUP4 ADD DUP5 PUSH2 0x69D JUMP JUMPDEST SWAP6 SWAP5 POP POP POP POP POP JUMP JUMPDEST PUSH1 0x0 DUP2 MLOAD SWAP1 POP SWAP2 SWAP1 POP JUMP JUMPDEST PUSH1 0x0 DUP3 DUP3 MSTORE PUSH1 0x20 DUP3 ADD SWAP1 POP SWAP3 SWAP2 POP POP JUMP JUMPDEST PUSH1 0x0 JUMPDEST DUP4 DUP2 LT ISZERO PUSH2 0x762 JUMPI DUP1 DUP3 ADD MLOAD DUP2 DUP5 ADD MSTORE PUSH1 0x20 DUP2 ADD SWAP1 POP PUSH2 0x747 JUMP JUMPDEST PUSH1 0x0 DUP5 DUP5 ADD MSTORE POP POP POP POP JUMP JUMPDEST PUSH1 0x0 PUSH1 0x1F NOT PUSH1 0x1F DUP4 ADD AND SWAP1 POP SWAP2 SWAP1 POP JUMP JUMPDEST PUSH1 0x0 PUSH2 0x78A DUP3 PUSH2 0x728 JUMP JUMPDEST PUSH2 0x794 DUP2 DUP6 PUSH2 0x733 JUMP JUMPDEST SWAP4 POP PUSH2 0x7A4 DUP2 DUP6 PUSH1 0x20 DUP7 ADD PUSH2 0x744 JUMP JUMPDEST PUSH2 0x7AD DUP2 PUSH2 0x76E JUMP JUMPDEST DUP5 ADD SWAP2 POP POP SWAP3 SWAP2 POP POP JUMP JUMPDEST PUSH1 0x0 DUP2 MLOAD SWAP1 POP SWAP2 SWAP1 POP JUMP JUMPDEST PUSH1 0x0 DUP3 DUP3 MSTORE PUSH1 0x20 DUP3 ADD SWAP1 POP SWAP3 SWAP2 POP POP JUMP JUMPDEST PUSH1 0x0 PUSH2 0x7DF DUP3 PUSH2 0x7B8 JUMP JUMPDEST PUSH2 0x7E9 DUP2 DUP6 PUSH2 0x7C3 JUMP JUMPDEST SWAP4 POP PUSH2 0x7F9 DUP2 DUP6 PUSH1 0x20 DUP7 ADD PUSH2 0x744 JUMP JUMPDEST PUSH2 0x802 DUP2 PUSH2 0x76E JUMP JUMPDEST DUP5 ADD SWAP2 POP POP SWAP3 SWAP2 POP POP JUMP JUMPDEST PUSH1 0x0 PUSH20 0xFFFFFFFFFFFFFFFFFFFFFFFFFFFFFFFFFFFFFFFF DUP3 AND SWAP1 POP SWAP2 SWAP1 POP JUMP JUMPDEST PUSH1 0x0 PUSH2 0x838 DUP3 PUSH2 0x80D JUMP JUMPDEST SWAP1 POP SWAP2 SWAP1 POP JUMP JUMPDEST PUSH2 0x848 DUP2 PUSH2 0x82D JUMP JUMPDEST DUP3 MSTORE POP POP JUMP JUMPDEST PUSH1 0x0 PUSH2 0xFFFF DUP3 AND SWAP1 POP SWAP2 SWAP1 POP JUMP JUMPDEST PUSH2 0x865 DUP2 PUSH2 0x84E JUMP JUMPDEST DUP3 MSTORE POP POP JUMP JUMPDEST PUSH1 0x0 PUSH1 0x80 DUP3 ADD SWAP1 POP DUP2 DUP2 SUB PUSH1 0x0 DUP4 ADD MSTORE PUSH2 0x885 DUP2 DUP8 PUSH2 0x77F JUMP JUMPDEST SWAP1 POP DUP2 DUP2 SUB PUSH1 0x20 DUP4 ADD MSTORE PUSH2 0x899 DUP2 DUP7 PUSH2 0x7D4 JUMP JUMPDEST SWAP1 POP PUSH2 0x8A8 PUSH1 0x40 DUP4 ADD DUP6 PUSH2 0x83F JUMP JUMPDEST PUSH2 0x8B5 PUSH1 0x60 DUP4 ADD DUP5 PUSH2 0x85C JUMP JUMPDEST SWAP6 SWAP5 POP POP POP POP POP JUMP JUMPDEST PUSH1 0x0 PUSH1 0x20 DUP3 ADD SWAP1 POP PUSH2 0x8D3 PUSH1 0x0 DUP4 ADD DUP5 PUSH2 0x83F JUMP JUMPDEST SWAP3 SWAP2 POP POP JUMP JUMPDEST PUSH32 0x4E487B7100000000000000000000000000000000000000000000000000000000 PUSH1 0x0 MSTORE PUSH1 0x22 PUSH1 0x4 MSTORE PUSH1 0x24 PUSH1 0x0 REVERT JUMPDEST PUSH1 0x0 PUSH1 0x2 DUP3 DIV SWAP1 POP PUSH1 0x1 DUP3 AND DUP1 PUSH2 0x920 JUMPI PUSH1 0x7F DUP3 AND SWAP2 POP JUMPDEST PUSH1 0x20 DUP3 LT DUP2 SUB PUSH2 0x933 JUMPI PUSH2 0x932 PUSH2 0x8D9 JUMP JUMPDEST JUMPDEST POP SWAP2 SWAP1 POP JUMP JUMPDEST PUSH32 0x4E6F7420616C6C6F776564000000000000000000000000000000000000000000 PUSH1 0x0 DUP3 ADD MSTORE POP JUMP JUMPDEST PUSH1 0x0 PUSH2 0x96F PUSH1 0xB DUP4 PUSH2 0x733 JUMP JUMPDEST SWAP2 POP PUSH2 0x97A DUP3 PUSH2 0x939 JUMP JUMPDEST PUSH1 0x20 DUP3 ADD SWAP1 POP SWAP2 SWAP1 POP JUMP JUMPDEST PUSH1 0x0 PUSH1 0x20 DUP3 ADD SWAP1 POP DUP2 DUP2 SUB PUSH1 0x0 DUP4 ADD MSTORE PUSH2 0x99E DUP2 PUSH2 0x962 JUMP JUMPDEST SWAP1 POP SWAP2 SWAP1 POP JUMP JUMPDEST PUSH1 0x0 DUP1 REVERT JUMPDEST PUSH1 0x0 DUP1 REVERT JUMPDEST PUSH1 0x0 DUP1 REVERT JUMPDEST PUSH1 0x0 DUP1 DUP4 CALLDATALOAD PUSH1 0x1 PUSH1 0x20 SUB DUP5 CALLDATASIZE SUB SUB DUP2 SLT PUSH2 0x9D1 JUMPI PUSH2 0x9D0 PUSH2 0x9A5 JUMP JUMPDEST JUMPDEST DUP1 DUP5 ADD SWAP3 POP DUP3 CALLDATALOAD SWAP2 POP PUSH8 0xFFFFFFFFFFFFFFFF DUP3 GT ISZERO PUSH2 0x9F3 JUMPI PUSH2 0x9F2 PUSH2 0x9AA JUMP JUMPDEST JUMPDEST PUSH1 0x20 DUP4 ADD SWAP3 POP PUSH1 0x1 DUP3 MUL CALLDATASIZE SUB DUP4 SGT ISZERO PUSH2 0xA0F JUMPI PUSH2 0xA0E PUSH2 0x9AF JUMP JUMPDEST JUMPDEST POP SWAP3 POP SWAP3 SWAP1 POP JUMP JUMPDEST PUSH1 0x0 DUP3 SWAP1 POP SWAP3 SWAP2 POP POP JUMP JUMPDEST PUSH32 0x4E487B7100000000000000000000000000000000000000000000000000000000 PUSH1 0x0 MSTORE PUSH1 0x41 PUSH1 0x4 MSTORE PUSH1 0x24 PUSH1 0x0 REVERT JUMPDEST PUSH1 0x0 DUP2 SWAP1 POP DUP2 PUSH1 0x0 MSTORE PUSH1 0x20 PUSH1 0x0 KECCAK256 SWAP1 POP SWAP2 SWAP1 POP JUMP JUMPDEST PUSH1 0x0 PUSH1 0x20 PUSH1 0x1F DUP4 ADD DIV SWAP1 POP SWAP2 SWAP1 POP JUMP JUMPDEST PUSH1 0x0 DUP3 DUP3 SHL SWAP1 POP SWAP3 SWAP2 POP POP JUMP JUMPDEST PUSH1 0x0 PUSH1 0x8 DUP4 MUL PUSH2 0xAB3 PUSH32 0xFFFFFFFFFFFFFFFFFFFFFFFFFFFFFFFFFFFFFFFFFFFFFFFFFFFFFFFFFFFFFFFF DUP3 PUSH2 0xA76 JUMP JUMPDEST PUSH2 0xABD DUP7 DUP4 PUSH2 0xA76 JUMP JUMPDEST SWAP6 POP DUP1 NOT DUP5 AND SWAP4 POP DUP1 DUP7 AND DUP5 OR SWAP3 POP POP POP SWAP4 SWAP3 POP POP POP JUMP JUMPDEST PUSH1 0x0 DUP2 SWAP1 POP SWAP2 SWAP1 POP JUMP JUMPDEST PUSH1 0x0 PUSH2 0xAFA PUSH2 0xAF5 PUSH2 0xAF0 DUP5 PUSH2 0x693 JUMP JUMPDEST PUSH2 0xAD5 JUMP JUMPDEST PUSH2 0x693 JUMP JUMPDEST SWAP1 POP SWAP2 SWAP1 POP JUMP JUMPDEST PUSH1 0x0 DUP2 SWAP1 POP SWAP2 SWAP1 POP JUMP JUMPDEST PUSH2 0xB14 DUP4 PUSH2 0xADF JUMP JUMPDEST PUSH2 0xB28 PUSH2 0xB20 DUP3 PUSH2 0xB01 JUMP JUMPDEST DUP5 DUP5 SLOAD PUSH2 0xA83 JUMP JUMPDEST DUP3 SSTORE POP POP POP POP JUMP JUMPDEST PUSH1 0x0 SWAP1 JUMP JUMPDEST PUSH2 0xB3D PUSH2 0xB30 JUMP JUMPDEST PUSH2 0xB48 DUP2 DUP5 DUP5 PUSH2 0xB0B JUMP JUMPDEST POP POP POP JUMP JUMPDEST JUMPDEST DUP2 DUP2 LT ISZERO PUSH2 0xB6C JUMPI PUSH2 0xB61 PUSH1 0x0 DUP3 PUSH2 0xB35 JUMP JUMPDEST PUSH1 0x1 DUP2 ADD SWAP1 POP PUSH2 0xB4E JUMP JUMPDEST POP POP JUMP JUMPDEST PUSH1 0x1F DUP3 GT ISZERO PUSH2 0xBB1 JUMPI PUSH2 0xB82 DUP2 PUSH2 0xA51 JUMP JUMPDEST PUSH2 0xB8B DUP5 PUSH2 0xA66 JUMP JUMPDEST DUP2 ADD PUSH1 0x20 DUP6 LT ISZERO PUSH2 0xB9A JUMPI DUP2 SWAP1 POP JUMPDEST PUSH2 0xBAE PUSH2 0xBA6 DUP6 PUSH2 0xA66 JUMP JUMPDEST DUP4 ADD DUP3 PUSH2 0xB4D JUMP JUMPDEST POP POP JUMPDEST POP POP POP JUMP JUMPDEST PUSH1 0x0 DUP3 DUP3 SHR SWAP1 POP SWAP3 SWAP2 POP POP JUMP JUMPDEST PUSH1 0x0 PUSH2 0xBD4 PUSH1 0x0 NOT DUP5 PUSH1 0x8 MUL PUSH2 0xBB6 JUMP JUMPDEST NOT DUP1 DUP4 AND SWAP2 POP POP SWAP3 SWAP2 POP POP JUMP JUMPDEST PUSH1 0x0 PUSH2 0xBED DUP4 DUP4 PUSH2 0xBC3 JUMP JUMPDEST SWAP2 POP DUP3 PUSH1 0x2 MUL DUP3 OR SWAP1 POP SWAP3 SWAP2 POP POP JUMP JUMPDEST PUSH2 0xC07 DUP4 DUP4 PUSH2 0xA17 JUMP JUMPDEST PUSH8 0xFFFFFFFFFFFFFFFF DUP2 GT ISZERO PUSH2 0xC20 JUMPI PUSH2 0xC1F PUSH2 0xA22 JUMP JUMPDEST JUMPDEST PUSH2 0xC2A DUP3 SLOAD PUSH2 0x908 JUMP JUMPDEST PUSH2 0xC35 DUP3 DUP3 DUP6 PUSH2 0xB70 JUMP JUMPDEST PUSH1 0x0 PUSH1 0x1F DUP4 GT PUSH1 0x1 DUP2 EQ PUSH2 0xC64 JUMPI PUSH1 0x0 DUP5 ISZERO PUSH2 0xC52 JUMPI DUP3 DUP8 ADD CALLDATALOAD SWAP1 POP JUMPDEST PUSH2 0xC5C DUP6 DUP3 PUSH2 0xBE1 JUMP JUMPDEST DUP7 SSTORE POP PUSH2 0xCC4 JUMP JUMPDEST PUSH1 0x1F NOT DUP5 AND PUSH2 0xC72 DUP7 PUSH2 0xA51 JUMP JUMPDEST PUSH1 0x0 JUMPDEST DUP3 DUP2 LT ISZERO PUSH2 0xC9A JUMPI DUP5 DUP10 ADD CALLDATALOAD DUP3 SSTORE PUSH1 0x1 DUP3 ADD SWAP2 POP PUSH1 0x20 DUP6 ADD SWAP5 POP PUSH1 0x20 DUP2 ADD SWAP1 POP PUSH2 0xC75 JUMP JUMPDEST DUP7 DUP4 LT ISZERO PUSH2 0xCB7 JUMPI DUP5 DUP10 ADD CALLDATALOAD PUSH2 0xCB3 PUSH1 0x1F DUP10 AND DUP3 PUSH2 0xBC3 JUMP JUMPDEST DUP4 SSTORE POP JUMPDEST PUSH1 0x1 PUSH1 0x2 DUP9 MUL ADD DUP9 SSTORE POP POP POP JUMPDEST POP POP POP POP POP POP POP JUMP JUMPDEST PUSH2 0xCD8 DUP4 DUP4 DUP4 PUSH2 0xBFD JUMP JUMPDEST POP POP POP JUMP JUMPDEST PUSH1 0x0 DUP1 DUP4 CALLDATALOAD PUSH1 0x1 PUSH1 0x20 SUB DUP5 CALLDATASIZE SUB SUB DUP2 SLT PUSH2 0xCFA JUMPI PUSH2 0xCF9 PUSH2 0x9A5 JUMP JUMPDEST JUMPDEST DUP1 DUP5 ADD SWAP3 POP DUP3 CALLDATALOAD SWAP2 POP PUSH8 0xFFFFFFFFFFFFFFFF DUP3 GT ISZERO PUSH2 0xD1C JUMPI PUSH2 0xD1B PUSH2 0x9AA JUMP JUMPDEST JUMPDEST PUSH1 0x20 DUP4 ADD SWAP3 POP PUSH1 0x1 DUP3 MUL CALLDATASIZE SUB DUP4 SGT ISZERO PUSH2 0xD38 JUMPI PUSH2 0xD37 PUSH2 0x9AF JUMP JUMPDEST JUMPDEST POP SWAP3 POP SWAP3 SWAP1 POP JUMP JUMPDEST PUSH1 0x0 DUP3 SWAP1 POP SWAP3 SWAP2 POP POP JUMP JUMPDEST PUSH1 0x0 DUP2 SWAP1 POP DUP2 PUSH1 0x0 MSTORE PUSH1 0x20 PUSH1 0x0 KECCAK256 SWAP1 POP SWAP2 SWAP1 POP JUMP JUMPDEST PUSH1 0x1F DUP3 GT ISZERO PUSH2 0xDA1 JUMPI PUSH2 0xD72 DUP2 PUSH2 0xD4B JUMP JUMPDEST PUSH2 0xD7B DUP5 PUSH2 0xA66 JUMP JUMPDEST DUP2 ADD PUSH1 0x20 DUP6 LT ISZERO PUSH2 0xD8A JUMPI DUP2 SWAP1 POP JUMPDEST PUSH2 0xD9E PUSH2 0xD96 DUP6 PUSH2 0xA66 JUMP JUMPDEST DUP4 ADD DUP3 PUSH2 0xB4D JUMP JUMPDEST POP POP JUMPDEST POP POP POP JUMP JUMPDEST PUSH2 0xDB0 DUP4 DUP4 PUSH2 0xD40 JUMP JUMPDEST PUSH8 0xFFFFFFFFFFFFFFFF DUP2 GT ISZERO PUSH2 0xDC9 JUMPI PUSH2 0xDC8 PUSH2 0xA22 JUMP JUMPDEST JUMPDEST PUSH2 0xDD3 DUP3 SLOAD PUSH2 0x908 JUMP JUMPDEST PUSH2 0xDDE DUP3 DUP3 DUP6 PUSH2 0xD60 JUMP JUMPDEST PUSH1 0x0 PUSH1 0x1F DUP4 GT PUSH1 0x1 DUP2 EQ PUSH2 0xE0D JUMPI PUSH1 0x0 DUP5 ISZERO PUSH2 0xDFB JUMPI DUP3 DUP8 ADD CALLDATALOAD SWAP1 POP JUMPDEST PUSH2 0xE05 DUP6 DUP3 PUSH2 0xBE1 JUMP JUMPDEST DUP7 SSTORE POP PUSH2 0xE6D JUMP JUMPDEST PUSH1 0x1F NOT DUP5 AND PUSH2 0xE1B DUP7 PUSH2 0xD4B JUMP JUMPDEST PUSH1 0x0 JUMPDEST DUP3 DUP2 LT ISZERO PUSH2 0xE43 JUMPI DUP5 DUP10 ADD CALLDATALOAD DUP3 SSTORE PUSH1 0x1 DUP3 ADD SWAP2 POP PUSH1 0x20 DUP6 ADD SWAP5 POP PUSH1 0x20 DUP2 ADD SWAP1 POP PUSH2 0xE1E JUMP JUMPDEST DUP7 DUP4 LT ISZERO PUSH2 0xE60 JUMPI DUP5 DUP10 ADD CALLDATALOAD PUSH2 0xE5C PUSH1 0x1F DUP10 AND DUP3 PUSH2 0xBC3 JUMP JUMPDEST DUP4 SSTORE POP JUMPDEST PUSH1 0x1 PUSH1 0x2 DUP9 MUL ADD DUP9 SSTORE POP POP POP JUMPDEST POP POP POP POP POP POP POP JUMP JUMPDEST PUSH2 0xE81 DUP4 DUP4 DUP4 PUSH2 0xDA6 JUMP JUMPDEST POP POP POP JUMP JUMPDEST PUSH2 0xE8F DUP2 PUSH2 0x82D JUMP JUMPDEST DUP2 EQ PUSH2 0xE9A JUMPI PUSH1 0x0 DUP1 REVERT JUMPDEST POP JUMP JUMPDEST PUSH1 0x0 DUP2 CALLDATALOAD PUSH2 0xEAA DUP2 PUSH2 0xE86 JUMP JUMPDEST DUP1 SWAP2 POP POP SWAP2 SWAP1 POP JUMP JUMPDEST PUSH1 0x0 DUP2 PUSH1 0x0 SHL SWAP1 POP SWAP2 SWAP1 POP JUMP JUMPDEST PUSH1 0x0 PUSH20 0xFFFFFFFFFFFFFFFFFFFFFFFFFFFFFFFFFFFFFFFF PUSH2 0xEE0 DUP5 PUSH2 0xEB3 JUMP JUMPDEST SWAP4 POP DUP1 NOT DUP4 AND SWAP3 POP DUP1 DUP5 AND DUP4 OR SWAP2 POP POP SWAP3 SWAP2 POP POP JUMP JUMPDEST PUSH1 0x0 PUSH2 0xF11 PUSH2 0xF0C PUSH2 0xF07 DUP5 PUSH2 0x80D JUMP JUMPDEST PUSH2 0xAD5 JUMP JUMPDEST PUSH2 0x80D JUMP JUMPDEST SWAP1 POP SWAP2 SWAP1 POP JUMP JUMPDEST PUSH1 0x0 PUSH2 0xF23 DUP3 PUSH2 0xEF6 JUMP JUMPDEST SWAP1 POP SWAP2 SWAP1 POP JUMP JUMPDEST PUSH1 0x0 PUSH2 0xF35 DUP3 PUSH2 0xF18 JUMP JUMPDEST SWAP1 POP SWAP2 SWAP1 POP JUMP JUMPDEST PUSH1 0x0 DUP2 SWAP1 POP SWAP2 SWAP1 POP JUMP JUMPDEST PUSH2 0xF4F DUP3 PUSH2 0xF2A JUMP JUMPDEST PUSH2 0xF62 PUSH2 0xF5B DUP3 PUSH2 0xF3C JUMP JUMPDEST DUP4 SLOAD PUSH2 0xEC0 JUMP JUMPDEST DUP3 SSTORE POP POP POP JUMP JUMPDEST PUSH2 0xF72 DUP2 PUSH2 0x84E JUMP JUMPDEST DUP2 EQ PUSH2 0xF7D JUMPI PUSH1 0x0 DUP1 REVERT JUMPDEST POP JUMP JUMPDEST PUSH1 0x0 DUP2 CALLDATALOAD PUSH2 0xF8D DUP2 PUSH2 0xF69 JUMP JUMPDEST DUP1 SWAP2 POP POP SWAP2 SWAP1 POP JUMP JUMPDEST PUSH1 0x0 DUP2 PUSH1 0xA0 SHL SWAP1 POP SWAP2 SWAP1 POP JUMP JUMPDEST PUSH1 0x0 PUSH22 0xFFFF0000000000000000000000000000000000000000 PUSH2 0xFC5 DUP5 PUSH2 0xF96 JUMP JUMPDEST SWAP4 POP DUP1 NOT DUP4 AND SWAP3 POP DUP1 DUP5 AND DUP4 OR SWAP2 POP POP SWAP3 SWAP2 POP POP JUMP JUMPDEST PUSH1 0x0 PUSH2 0xFF6 PUSH2 0xFF1 PUSH2 0xFEC DUP5 PUSH2 0x84E JUMP JUMPDEST PUSH2 0xAD5 JUMP JUMPDEST PUSH2 0x84E JUMP JUMPDEST SWAP1 POP SWAP2 SWAP1 POP JUMP JUMPDEST PUSH1 0x0 DUP2 SWAP1 POP SWAP2 SWAP1 POP JUMP JUMPDEST PUSH2 0x1010 DUP3 PUSH2 0xFDB JUMP JUMPDEST PUSH2 0x1023 PUSH2 0x101C DUP3 PUSH2 0xFFD JUMP JUMPDEST DUP4 SLOAD PUSH2 0xFA3 JUMP JUMPDEST DUP3 SSTORE POP POP POP JUMP JUMPDEST PUSH1 0x0 DUP2 ADD PUSH1 0x0 DUP4 ADD PUSH2 0x103C DUP2 DUP6 PUSH2 0x9B4 JUMP JUMPDEST PUSH2 0x1047 DUP2 DUP4 DUP7 PUSH2 0xCCD JUMP JUMPDEST POP POP POP POP PUSH1 0x1 DUP2 ADD PUSH1 0x20 DUP4 ADD PUSH2 0x105D DUP2 DUP6 PUSH2 0xCDD JUMP JUMPDEST PUSH2 0x1068 DUP2 DUP4 DUP7 PUSH2 0xE76 JUMP JUMPDEST POP POP POP POP PUSH1 0x2 DUP2 ADD PUSH1 0x40 DUP4 ADD DUP1 PUSH2 0x107E DUP2 PUSH2 0xE9D JUMP JUMPDEST SWAP1 POP PUSH2 0x108A DUP2 DUP5 PUSH2 0xF46 JUMP JUMPDEST POP POP POP PUSH1 0x2 DUP2 ADD PUSH1 0x60 DUP4 ADD DUP1 PUSH2 0x109F DUP2 PUSH2 0xF80 JUMP JUMPDEST SWAP1 POP PUSH2 0x10AB DUP2 DUP5 PUSH2 0x1007 JUMP JUMPDEST POP POP POP POP POP JUMP JUMPDEST PUSH2 0x10BC DUP3 DUP3 PUSH2 0x102A JUMP JUMPDEST POP POP JUMP JUMPDEST PUSH32 0x4E487B7100000000000000000000000000000000000000000000000000000000 PUSH1 0x0 MSTORE PUSH1 0x11 PUSH1 0x4 MSTORE PUSH1 0x24 PUSH1 0x0 REVERT JUMPDEST PUSH1 0x0 PUSH2 0x10FA DUP3 PUSH2 0x693 JUMP JUMPDEST SWAP2 POP PUSH32 0xFFFFFFFFFFFFFFFFFFFFFFFFFFFFFFFFFFFFFFFFFFFFFFFFFFFFFFFFFFFFFFFF DUP3 SUB PUSH2 0x112C JUMPI PUSH2 0x112B PUSH2 0x10C0 JUMP JUMPDEST JUMPDEST PUSH1 0x1 DUP3 ADD SWAP1 POP SWAP2 SWAP1 POP JUMP JUMPDEST PUSH2 0x1140 DUP2 PUSH2 0x6C7 JUMP JUMPDEST DUP2 EQ PUSH2 0x114B JUMPI PUSH1 0x0 DUP1 REVERT JUMPDEST POP JUMP JUMPDEST PUSH1 0x0 DUP2 CALLDATALOAD SWAP1 POP PUSH2 0x115D DUP2 PUSH2 0x1137 JUMP JUMPDEST SWAP3 SWAP2 POP POP JUMP JUMPDEST PUSH2 0x116C DUP2 PUSH2 0x693 JUMP JUMPDEST DUP2 EQ PUSH2 0x1177 JUMPI PUSH1 0x0 DUP1 REVERT JUMPDEST POP JUMP JUMPDEST PUSH1 0x0 DUP2 CALLDATALOAD SWAP1 POP PUSH2 0x1189 DUP2 PUSH2 0x1163 JUMP JUMPDEST SWAP3 SWAP2 POP POP JUMP JUMPDEST PUSH1 0x0 DUP1 PUSH1 0x0 DUP1 PUSH1 0x80 DUP6 DUP8 SUB SLT ISZERO PUSH2 0x11A9 JUMPI PUSH2 0x11A8 PUSH2 0x478 JUMP JUMPDEST JUMPDEST PUSH1 0x0 PUSH2 0x11B7 DUP8 DUP3 DUP9 ADD PUSH2 0x114E JUMP JUMPDEST SWAP5 POP POP PUSH1 0x20 PUSH2 0x11C8 DUP8 DUP3 DUP9 ADD PUSH2 0x114E JUMP JUMPDEST SWAP4 POP POP PUSH1 0x40 PUSH2 0x11D9 DUP8 DUP3 DUP9 ADD PUSH2 0x117A JUMP JUMPDEST SWAP3 POP POP PUSH1 0x60 PUSH2 0x11EA DUP8 DUP3 DUP9 ADD PUSH2 0x117A JUMP JUMPDEST SWAP2 POP POP SWAP3 SWAP6 SWAP2 SWAP5 POP SWAP3 POP JUMP INVALID LOG2 PUSH5 0x6970667358 0x22 SLT KECCAK256 0xCA 0xE SAR CREATE BLOCKHASH 0xD0 0xD2 0xC2 0xB5 0xBF GASPRICE MSTORE BYTE 0xDB 0xD5 ISZERO DUP10 GASLIMIT PUSH19 0xDB848A782311324EA6F30640F564736F6C6343 STOP ADDMOD SHR STOP CALLER "
        },
        "methodIdentifiers": {
          "afterTaskSubmission((string,bytes,address,uint16),bool,bytes,uint256[2],uint256[])": "dd1a5387",
          "attestationCenter()": "d92807a2",
          "beforeTaskSubmission((string,bytes,address,uint16),bool,bytes,uint256[2],uint256[])": "502f5bd0",
          "counter()": "61bc221a",
          "lastTaskData()": "b69e0c72",
          "lastTaskInfo()": "c102e96c"
        }
      }
    }
  }
}