{
  "contracts/SampleAvsLogicCounter.sol": {
    "SampleAvsLogicCounter": {
      "abi": [
        {
          "inputs": [
            {
              "internalType": "address",
              "name": "_attestationCenter",
              "type": "address"
            }
          ],
          "stateMutability": "nonpayable",
          "type": "constructor"
        },
        {
          "inputs": [
            {
              "components": [
                {
                  "internalType": "string",
                  "name": "proofOfTask",
                  "type": "string"
                },
                {
                  "internalType": "bytes",
                  "name": "data",
                  "type": "bytes"
                },
                {
                  "internalType": "address",
                  "name": "taskPerformer",
                  "type": "address"
                },
                {
                  "internalType": "uint16",
                  "name": "taskDefinitionId",
                  "type": "uint16"
                }
              ],
              "internalType": "struct IAttestationCenter.TaskInfo",
              "name": "_taskInfo",
              "type": "tuple"
            },
            {
              "internalType": "bool",
              "name": "",
              "type": "bool"
            },
            {
              "internalType": "bytes",
              "name": "",
              "type": "bytes"
            },
            {
              "internalType": "uint256[2]",
              "name": "",
              "type": "uint256[2]"
            },
            {
              "internalType": "uint256[]",
              "name": "",
              "type": "uint256[]"
            }
          ],
          "name": "afterTaskSubmission",
          "outputs": [],
          "stateMutability": "nonpayable",
          "type": "function"
        },
        {
          "inputs": [],
          "name": "attestationCenter",
          "outputs": [
            {
              "internalType": "address",
              "name": "",
              "type": "address"
            }
          ],
          "stateMutability": "view",
          "type": "function"
        },
        {
          "inputs": [
            {
              "components": [
                {
                  "internalType": "string",
                  "name": "proofOfTask",
                  "type": "string"
                },
                {
                  "internalType": "bytes",
                  "name": "data",
                  "type": "bytes"
                },
                {
                  "internalType": "address",
                  "name": "taskPerformer",
                  "type": "address"
                },
                {
                  "internalType": "uint16",
                  "name": "taskDefinitionId",
                  "type": "uint16"
                }
              ],
              "internalType": "struct IAttestationCenter.TaskInfo",
              "name": "_taskInfo",
              "type": "tuple"
            },
            {
              "internalType": "bool",
              "name": "_isApproved",
              "type": "bool"
            },
            {
              "internalType": "bytes",
              "name": "_tpSignature",
              "type": "bytes"
            },
            {
              "internalType": "uint256[2]",
              "name": "_taSignature",
              "type": "uint256[2]"
            },
            {
              "internalType": "uint256[]",
              "name": "_operatorIds",
              "type": "uint256[]"
            }
          ],
          "name": "beforeTaskSubmission",
          "outputs": [],
          "stateMutability": "nonpayable",
          "type": "function"
        },
        {
          "inputs": [],
          "name": "counter",
          "outputs": [
            {
              "internalType": "uint256",
              "name": "",
              "type": "uint256"
            }
          ],
          "stateMutability": "view",
          "type": "function"
        },
        {
          "inputs": [],
          "name": "lastTaskInfo",
          "outputs": [
            {
              "internalType": "string",
              "name": "proofOfTask",
              "type": "string"
            },
            {
              "internalType": "bytes",
              "name": "data",
              "type": "bytes"
            },
            {
              "internalType": "address",
              "name": "taskPerformer",
              "type": "address"
            },
            {
              "internalType": "uint16",
              "name": "taskDefinitionId",
              "type": "uint16"
            }
          ],
          "stateMutability": "view",
          "type": "function"
        }
      ],
      "evm": {
        "bytecode": {
          "linkReferences": {},
          "object": "608060405234801561001057600080fd5b506040516110f03803806110f0833981810160405281019061003291906100dc565b80600460006101000a81548173ffffffffffffffffffffffffffffffffffffffff021916908373ffffffffffffffffffffffffffffffffffffffff16021790555050610109565b600080fd5b600073ffffffffffffffffffffffffffffffffffffffff82169050919050565b60006100a98261007e565b9050919050565b6100b98161009e565b81146100c457600080fd5b50565b6000815190506100d6816100b0565b92915050565b6000602082840312156100f2576100f1610079565b5b6000610100848285016100c7565b91505092915050565b610fd8806101186000396000f3fe608060405234801561001057600080fd5b50600436106100575760003560e01c8063502f5bd01461005c57806361bc221a14610078578063c102e96c14610096578063d92807a2146100b7578063dd1a5387146100d5575b600080fd5b61007660048036038101906100719190610487565b6100f1565b005b6100806100fa565b60405161008d9190610578565b60405180910390f35b61009e610100565b6040516100ae94939291906106d6565b60405180910390f35b6100bf61025c565b6040516100cc9190610729565b60405180910390f35b6100ef60048036038101906100ea9190610487565b610282565b005b50505050505050565b60005481565b600180600001805461011190610773565b80601f016020809104026020016040519081016040528092919081815260200182805461013d90610773565b801561018a5780601f1061015f5761010080835404028352916020019161018a565b820191906000526020600020905b81548152906001019060200180831161016d57829003601f168201915b50505050509080600101805461019f90610773565b80601f01602080910402602001604051908101604052809291908181526020018280546101cb90610773565b80156102185780601f106101ed57610100808354040283529160200191610218565b820191906000526020600020905b8154815290600101906020018083116101fb57829003601f168201915b5050505050908060020160009054906101000a900473ffffffffffffffffffffffffffffffffffffffff16908060020160149054906101000a900461ffff16905084565b600460009054906101000a900473ffffffffffffffffffffffffffffffffffffffff1681565b600460009054906101000a900473ffffffffffffffffffffffffffffffffffffffff1673ffffffffffffffffffffffffffffffffffffffff163373ffffffffffffffffffffffffffffffffffffffff1614610312576040517f08c379a0000000000000000000000000000000000000000000000000000000008152600401610309906107f0565b60405180910390fd5b86600181816103219190610f1d565b90505060008081548092919061033690610f5a565b919050555050505050505050565b600080fd5b600080fd5b600080fd5b6000608082840312156103695761036861034e565b5b81905092915050565b60008115159050919050565b61038781610372565b811461039257600080fd5b50565b6000813590506103a48161037e565b92915050565b600080fd5b600080fd5b600080fd5b60008083601f8401126103cf576103ce6103aa565b5b8235905067ffffffffffffffff8111156103ec576103eb6103af565b5b602083019150836001820283011115610408576104076103b4565b5b9250929050565b60008190508260206002028201111561042b5761042a6103b4565b5b92915050565b60008083601f840112610447576104466103aa565b5b8235905067ffffffffffffffff811115610464576104636103af565b5b6020830191508360208202830111156104805761047f6103b4565b5b9250929050565b600080600080600080600060c0888a0312156104a6576104a5610344565b5b600088013567ffffffffffffffff8111156104c4576104c3610349565b5b6104d08a828b01610353565b97505060206104e18a828b01610395565b965050604088013567ffffffffffffffff81111561050257610501610349565b5b61050e8a828b016103b9565b955095505060606105218a828b0161040f565b93505060a088013567ffffffffffffffff81111561054257610541610349565b5b61054e8a828b01610431565b925092505092959891949750929550565b6000819050919050565b6105728161055f565b82525050565b600060208201905061058d6000830184610569565b92915050565b600081519050919050565b600082825260208201905092915050565b60005b838110156105cd5780820151818401526020810190506105b2565b60008484015250505050565b6000601f19601f8301169050919050565b60006105f582610593565b6105ff818561059e565b935061060f8185602086016105af565b610618816105d9565b840191505092915050565b600081519050919050565b600082825260208201905092915050565b600061064a82610623565b610654818561062e565b93506106648185602086016105af565b61066d816105d9565b840191505092915050565b600073ffffffffffffffffffffffffffffffffffffffff82169050919050565b60006106a382610678565b9050919050565b6106b381610698565b82525050565b600061ffff82169050919050565b6106d0816106b9565b82525050565b600060808201905081810360008301526106f081876105ea565b90508181036020830152610704818661063f565b905061071360408301856106aa565b61072060608301846106c7565b95945050505050565b600060208201905061073e60008301846106aa565b92915050565b7f4e487b7100000000000000000000000000000000000000000000000000000000600052602260045260246000fd5b6000600282049050600182168061078b57607f821691505b60208210810361079e5761079d610744565b5b50919050565b7f4e6f7420616c6c6f776564000000000000000000000000000000000000000000600082015250565b60006107da600b8361059e565b91506107e5826107a4565b602082019050919050565b60006020820190508181036000830152610809816107cd565b9050919050565b600080fd5b600080fd5b600080fd5b6000808335600160200384360303811261083c5761083b610810565b5b80840192508235915067ffffffffffffffff82111561085e5761085d610815565b5b60208301925060018202360383131561087a5761087961081a565b5b509250929050565b600082905092915050565b7f4e487b7100000000000000000000000000000000000000000000000000000000600052604160045260246000fd5b60008190508160005260206000209050919050565b60006020601f8301049050919050565b600082821b905092915050565b60006008830261091e7fffffffffffffffffffffffffffffffffffffffffffffffffffffffffffffffff826108e1565b61092886836108e1565b95508019841693508086168417925050509392505050565b6000819050919050565b600061096561096061095b8461055f565b610940565b61055f565b9050919050565b6000819050919050565b61097f8361094a565b61099361098b8261096c565b8484546108ee565b825550505050565b600090565b6109a861099b565b6109b3818484610976565b505050565b5b818110156109d7576109cc6000826109a0565b6001810190506109b9565b5050565b601f821115610a1c576109ed816108bc565b6109f6846108d1565b81016020851015610a05578190505b610a19610a11856108d1565b8301826109b8565b50505b505050565b600082821c905092915050565b6000610a3f60001984600802610a21565b1980831691505092915050565b6000610a588383610a2e565b9150826002028217905092915050565b610a728383610882565b67ffffffffffffffff811115610a8b57610a8a61088d565b5b610a958254610773565b610aa08282856109db565b6000601f831160018114610acf5760008415610abd578287013590505b610ac78582610a4c565b865550610b2f565b601f198416610add866108bc565b60005b82811015610b0557848901358255600182019150602085019450602081019050610ae0565b86831015610b225784890135610b1e601f891682610a2e565b8355505b6001600288020188555050505b50505050505050565b610b43838383610a68565b505050565b60008083356001602003843603038112610b6557610b64610810565b5b80840192508235915067ffffffffffffffff821115610b8757610b86610815565b5b602083019250600182023603831315610ba357610ba261081a565b5b509250929050565b600082905092915050565b60008190508160005260206000209050919050565b601f821115610c0c57610bdd81610bb6565b610be6846108d1565b81016020851015610bf5578190505b610c09610c01856108d1565b8301826109b8565b50505b505050565b610c1b8383610bab565b67ffffffffffffffff811115610c3457610c3361088d565b5b610c3e8254610773565b610c49828285610bcb565b6000601f831160018114610c785760008415610c66578287013590505b610c708582610a4c565b865550610cd8565b601f198416610c8686610bb6565b60005b82811015610cae57848901358255600182019150602085019450602081019050610c89565b86831015610ccb5784890135610cc7601f891682610a2e565b8355505b6001600288020188555050505b50505050505050565b610cec838383610c11565b505050565b610cfa81610698565b8114610d0557600080fd5b50565b60008135610d1581610cf1565b80915050919050565b60008160001b9050919050565b600073ffffffffffffffffffffffffffffffffffffffff610d4b84610d1e565b9350801983169250808416831791505092915050565b6000610d7c610d77610d7284610678565b610940565b610678565b9050919050565b6000610d8e82610d61565b9050919050565b6000610da082610d83565b9050919050565b6000819050919050565b610dba82610d95565b610dcd610dc682610da7565b8354610d2b565b8255505050565b610ddd816106b9565b8114610de857600080fd5b50565b60008135610df881610dd4565b80915050919050565b60008160a01b9050919050565b600075ffff0000000000000000000000000000000000000000610e3084610e01565b9350801983169250808416831791505092915050565b6000610e61610e5c610e57846106b9565b610940565b6106b9565b9050919050565b6000819050919050565b610e7b82610e46565b610e8e610e8782610e68565b8354610e0e565b8255505050565b6000810160008301610ea7818561081f565b610eb2818386610b38565b505050506001810160208301610ec88185610b48565b610ed3818386610ce1565b50505050600281016040830180610ee981610d08565b9050610ef58184610db1565b505050600281016060830180610f0a81610deb565b9050610f168184610e72565b5050505050565b610f278282610e95565b5050565b7f4e487b7100000000000000000000000000000000000000000000000000000000600052601160045260246000fd5b6000610f658261055f565b91507fffffffffffffffffffffffffffffffffffffffffffffffffffffffffffffffff8203610f9757610f96610f2b565b5b60018201905091905056fea2646970667358221220ea5d4af0865c0a4744967fbf1d7f08fa6fad54ac75ac70dd7db2b6cb3924951964736f6c634300081c0033",
          "opcodes": "PUSH1 0x80 PUSH1 0x40 MSTORE CALLVALUE DUP1 ISZERO PUSH2 0x10 JUMPI PUSH1 0x0 DUP1 REVERT JUMPDEST POP PUSH1 0x40 MLOAD PUSH2 0x10F0 CODESIZE SUB DUP1 PUSH2 0x10F0 DUP4 CODECOPY DUP2 DUP2 ADD PUSH1 0x40 MSTORE DUP2 ADD SWAP1 PUSH2 0x32 SWAP2 SWAP1 PUSH2 0xDC JUMP JUMPDEST DUP1 PUSH1 0x4 PUSH1 0x0 PUSH2 0x100 EXP DUP2 SLOAD DUP2 PUSH20 0xFFFFFFFFFFFFFFFFFFFFFFFFFFFFFFFFFFFFFFFF MUL NOT AND SWAP1 DUP4 PUSH20 0xFFFFFFFFFFFFFFFFFFFFFFFFFFFFFFFFFFFFFFFF AND MUL OR SWAP1 SSTORE POP POP PUSH2 0x109 JUMP JUMPDEST PUSH1 0x0 DUP1 REVERT JUMPDEST PUSH1 0x0 PUSH20 0xFFFFFFFFFFFFFFFFFFFFFFFFFFFFFFFFFFFFFFFF DUP3 AND SWAP1 POP SWAP2 SWAP1 POP JUMP JUMPDEST PUSH1 0x0 PUSH2 0xA9 DUP3 PUSH2 0x7E JUMP JUMPDEST SWAP1 POP SWAP2 SWAP1 POP JUMP JUMPDEST PUSH2 0xB9 DUP2 PUSH2 0x9E JUMP JUMPDEST DUP2 EQ PUSH2 0xC4 JUMPI PUSH1 0x0 DUP1 REVERT JUMPDEST POP JUMP JUMPDEST PUSH1 0x0 DUP2 MLOAD SWAP1 POP PUSH2 0xD6 DUP2 PUSH2 0xB0 JUMP JUMPDEST SWAP3 SWAP2 POP POP JUMP JUMPDEST PUSH1 0x0 PUSH1 0x20 DUP3 DUP5 SUB SLT ISZERO PUSH2 0xF2 JUMPI PUSH2 0xF1 PUSH2 0x79 JUMP JUMPDEST JUMPDEST PUSH1 0x0 PUSH2 0x100 DUP5 DUP3 DUP6 ADD PUSH2 0xC7 JUMP JUMPDEST SWAP2 POP POP SWAP3 SWAP2 POP POP JUMP JUMPDEST PUSH2 0xFD8 DUP1 PUSH2 0x118 PUSH1 0x0 CODECOPY PUSH1 0x0 RETURN INVALID PUSH1 0x80 PUSH1 0x40 MSTORE CALLVALUE DUP1 ISZERO PUSH2 0x10 JUMPI PUSH1 0x0 DUP1 REVERT JUMPDEST POP PUSH1 0x4 CALLDATASIZE LT PUSH2 0x57 JUMPI PUSH1 0x0 CALLDATALOAD PUSH1 0xE0 SHR DUP1 PUSH4 0x502F5BD0 EQ PUSH2 0x5C JUMPI DUP1 PUSH4 0x61BC221A EQ PUSH2 0x78 JUMPI DUP1 PUSH4 0xC102E96C EQ PUSH2 0x96 JUMPI DUP1 PUSH4 0xD92807A2 EQ PUSH2 0xB7 JUMPI DUP1 PUSH4 0xDD1A5387 EQ PUSH2 0xD5 JUMPI JUMPDEST PUSH1 0x0 DUP1 REVERT JUMPDEST PUSH2 0x76 PUSH1 0x4 DUP1 CALLDATASIZE SUB DUP2 ADD SWAP1 PUSH2 0x71 SWAP2 SWAP1 PUSH2 0x487 JUMP JUMPDEST PUSH2 0xF1 JUMP JUMPDEST STOP JUMPDEST PUSH2 0x80 PUSH2 0xFA JUMP JUMPDEST PUSH1 0x40 MLOAD PUSH2 0x8D SWAP2 SWAP1 PUSH2 0x578 JUMP JUMPDEST PUSH1 0x40 MLOAD DUP1 SWAP2 SUB SWAP1 RETURN JUMPDEST PUSH2 0x9E PUSH2 0x100 JUMP JUMPDEST PUSH1 0x40 MLOAD PUSH2 0xAE SWAP5 SWAP4 SWAP3 SWAP2 SWAP1 PUSH2 0x6D6 JUMP JUMPDEST PUSH1 0x40 MLOAD DUP1 SWAP2 SUB SWAP1 RETURN JUMPDEST PUSH2 0xBF PUSH2 0x25C JUMP JUMPDEST PUSH1 0x40 MLOAD PUSH2 0xCC SWAP2 SWAP1 PUSH2 0x729 JUMP JUMPDEST PUSH1 0x40 MLOAD DUP1 SWAP2 SUB SWAP1 RETURN JUMPDEST PUSH2 0xEF PUSH1 0x4 DUP1 CALLDATASIZE SUB DUP2 ADD SWAP1 PUSH2 0xEA SWAP2 SWAP1 PUSH2 0x487 JUMP JUMPDEST PUSH2 0x282 JUMP JUMPDEST STOP JUMPDEST POP POP POP POP POP POP POP JUMP JUMPDEST PUSH1 0x0 SLOAD DUP2 JUMP JUMPDEST PUSH1 0x1 DUP1 PUSH1 0x0 ADD DUP1 SLOAD PUSH2 0x111 SWAP1 PUSH2 0x773 JUMP JUMPDEST DUP1 PUSH1 0x1F ADD PUSH1 0x20 DUP1 SWAP2 DIV MUL PUSH1 0x20 ADD PUSH1 0x40 MLOAD SWAP1 DUP2 ADD PUSH1 0x40 MSTORE DUP1 SWAP3 SWAP2 SWAP1 DUP2 DUP2 MSTORE PUSH1 0x20 ADD DUP3 DUP1 SLOAD PUSH2 0x13D SWAP1 PUSH2 0x773 JUMP JUMPDEST DUP1 ISZERO PUSH2 0x18A JUMPI DUP1 PUSH1 0x1F LT PUSH2 0x15F JUMPI PUSH2 0x100 DUP1 DUP4 SLOAD DIV MUL DUP4 MSTORE SWAP2 PUSH1 0x20 ADD SWAP2 PUSH2 0x18A JUMP JUMPDEST DUP3 ADD SWAP2 SWAP1 PUSH1 0x0 MSTORE PUSH1 0x20 PUSH1 0x0 KECCAK256 SWAP1 JUMPDEST DUP2 SLOAD DUP2 MSTORE SWAP1 PUSH1 0x1 ADD SWAP1 PUSH1 0x20 ADD DUP1 DUP4 GT PUSH2 0x16D JUMPI DUP3 SWAP1 SUB PUSH1 0x1F AND DUP3 ADD SWAP2 JUMPDEST POP POP POP POP POP SWAP1 DUP1 PUSH1 0x1 ADD DUP1 SLOAD PUSH2 0x19F SWAP1 PUSH2 0x773 JUMP JUMPDEST DUP1 PUSH1 0x1F ADD PUSH1 0x20 DUP1 SWAP2 DIV MUL PUSH1 0x20 ADD PUSH1 0x40 MLOAD SWAP1 DUP2 ADD PUSH1 0x40 MSTORE DUP1 SWAP3 SWAP2 SWAP1 DUP2 DUP2 MSTORE PUSH1 0x20 ADD DUP3 DUP1 SLOAD PUSH2 0x1CB SWAP1 PUSH2 0x773 JUMP JUMPDEST DUP1 ISZERO PUSH2 0x218 JUMPI DUP1 PUSH1 0x1F LT PUSH2 0x1ED JUMPI PUSH2 0x100 DUP1 DUP4 SLOAD DIV MUL DUP4 MSTORE SWAP2 PUSH1 0x20 ADD SWAP2 PUSH2 0x218 JUMP JUMPDEST DUP3 ADD SWAP2 SWAP1 PUSH1 0x0 MSTORE PUSH1 0x20 PUSH1 0x0 KECCAK256 SWAP1 JUMPDEST DUP2 SLOAD DUP2 MSTORE SWAP1 PUSH1 0x1 ADD SWAP1 PUSH1 0x20 ADD DUP1 DUP4 GT PUSH2 0x1FB JUMPI DUP3 SWAP1 SUB PUSH1 0x1F AND DUP3 ADD SWAP2 JUMPDEST POP POP POP POP POP SWAP1 DUP1 PUSH1 0x2 ADD PUSH1 0x0 SWAP1 SLOAD SWAP1 PUSH2 0x100 EXP SWAP1 DIV PUSH20 0xFFFFFFFFFFFFFFFFFFFFFFFFFFFFFFFFFFFFFFFF AND SWAP1 DUP1 PUSH1 0x2 ADD PUSH1 0x14 SWAP1 SLOAD SWAP1 PUSH2 0x100 EXP SWAP1 DIV PUSH2 0xFFFF AND SWAP1 POP DUP5 JUMP JUMPDEST PUSH1 0x4 PUSH1 0x0 SWAP1 SLOAD SWAP1 PUSH2 0x100 EXP SWAP1 DIV PUSH20 0xFFFFFFFFFFFFFFFFFFFFFFFFFFFFFFFFFFFFFFFF AND DUP2 JUMP JUMPDEST PUSH1 0x4 PUSH1 0x0 SWAP1 SLOAD SWAP1 PUSH2 0x100 EXP SWAP1 DIV PUSH20 0xFFFFFFFFFFFFFFFFFFFFFFFFFFFFFFFFFFFFFFFF AND PUSH20 0xFFFFFFFFFFFFFFFFFFFFFFFFFFFFFFFFFFFFFFFF AND CALLER PUSH20 0xFFFFFFFFFFFFFFFFFFFFFFFFFFFFFFFFFFFFFFFF AND EQ PUSH2 0x312 JUMPI PUSH1 0x40 MLOAD PUSH32 0x8C379A000000000000000000000000000000000000000000000000000000000 DUP2 MSTORE PUSH1 0x4 ADD PUSH2 0x309 SWAP1 PUSH2 0x7F0 JUMP JUMPDEST PUSH1 0x40 MLOAD DUP1 SWAP2 SUB SWAP1 REVERT JUMPDEST DUP7 PUSH1 0x1 DUP2 DUP2 PUSH2 0x321 SWAP2 SWAP1 PUSH2 0xF1D JUMP JUMPDEST SWAP1 POP POP PUSH1 0x0 DUP1 DUP2 SLOAD DUP1 SWAP3 SWAP2 SWAP1 PUSH2 0x336 SWAP1 PUSH2 0xF5A JUMP JUMPDEST SWAP2 SWAP1 POP SSTORE POP POP POP POP POP POP POP POP JUMP JUMPDEST PUSH1 0x0 DUP1 REVERT JUMPDEST PUSH1 0x0 DUP1 REVERT JUMPDEST PUSH1 0x0 DUP1 REVERT JUMPDEST PUSH1 0x0 PUSH1 0x80 DUP3 DUP5 SUB SLT ISZERO PUSH2 0x369 JUMPI PUSH2 0x368 PUSH2 0x34E JUMP JUMPDEST JUMPDEST DUP2 SWAP1 POP SWAP3 SWAP2 POP POP JUMP JUMPDEST PUSH1 0x0 DUP2 ISZERO ISZERO SWAP1 POP SWAP2 SWAP1 POP JUMP JUMPDEST PUSH2 0x387 DUP2 PUSH2 0x372 JUMP JUMPDEST DUP2 EQ PUSH2 0x392 JUMPI PUSH1 0x0 DUP1 REVERT JUMPDEST POP JUMP JUMPDEST PUSH1 0x0 DUP2 CALLDATALOAD SWAP1 POP PUSH2 0x3A4 DUP2 PUSH2 0x37E JUMP JUMPDEST SWAP3 SWAP2 POP POP JUMP JUMPDEST PUSH1 0x0 DUP1 REVERT JUMPDEST PUSH1 0x0 DUP1 REVERT JUMPDEST PUSH1 0x0 DUP1 REVERT JUMPDEST PUSH1 0x0 DUP1 DUP4 PUSH1 0x1F DUP5 ADD SLT PUSH2 0x3CF JUMPI PUSH2 0x3CE PUSH2 0x3AA JUMP JUMPDEST JUMPDEST DUP3 CALLDATALOAD SWAP1 POP PUSH8 0xFFFFFFFFFFFFFFFF DUP2 GT ISZERO PUSH2 0x3EC JUMPI PUSH2 0x3EB PUSH2 0x3AF JUMP JUMPDEST JUMPDEST PUSH1 0x20 DUP4 ADD SWAP2 POP DUP4 PUSH1 0x1 DUP3 MUL DUP4 ADD GT ISZERO PUSH2 0x408 JUMPI PUSH2 0x407 PUSH2 0x3B4 JUMP JUMPDEST JUMPDEST SWAP3 POP SWAP3 SWAP1 POP JUMP JUMPDEST PUSH1 0x0 DUP2 SWAP1 POP DUP3 PUSH1 0x20 PUSH1 0x2 MUL DUP3 ADD GT ISZERO PUSH2 0x42B JUMPI PUSH2 0x42A PUSH2 0x3B4 JUMP JUMPDEST JUMPDEST SWAP3 SWAP2 POP POP JUMP JUMPDEST PUSH1 0x0 DUP1 DUP4 PUSH1 0x1F DUP5 ADD SLT PUSH2 0x447 JUMPI PUSH2 0x446 PUSH2 0x3AA JUMP JUMPDEST JUMPDEST DUP3 CALLDATALOAD SWAP1 POP PUSH8 0xFFFFFFFFFFFFFFFF DUP2 GT ISZERO PUSH2 0x464 JUMPI PUSH2 0x463 PUSH2 0x3AF JUMP JUMPDEST JUMPDEST PUSH1 0x20 DUP4 ADD SWAP2 POP DUP4 PUSH1 0x20 DUP3 MUL DUP4 ADD GT ISZERO PUSH2 0x480 JUMPI PUSH2 0x47F PUSH2 0x3B4 JUMP JUMPDEST JUMPDEST SWAP3 POP SWAP3 SWAP1 POP JUMP JUMPDEST PUSH1 0x0 DUP1 PUSH1 0x0 DUP1 PUSH1 0x0 DUP1 PUSH1 0x0 PUSH1 0xC0 DUP9 DUP11 SUB SLT ISZERO PUSH2 0x4A6 JUMPI PUSH2 0x4A5 PUSH2 0x344 JUMP JUMPDEST JUMPDEST PUSH1 0x0 DUP9 ADD CALLDATALOAD PUSH8 0xFFFFFFFFFFFFFFFF DUP2 GT ISZERO PUSH2 0x4C4 JUMPI PUSH2 0x4C3 PUSH2 0x349 JUMP JUMPDEST JUMPDEST PUSH2 0x4D0 DUP11 DUP3 DUP12 ADD PUSH2 0x353 JUMP JUMPDEST SWAP8 POP POP PUSH1 0x20 PUSH2 0x4E1 DUP11 DUP3 DUP12 ADD PUSH2 0x395 JUMP JUMPDEST SWAP7 POP POP PUSH1 0x40 DUP9 ADD CALLDATALOAD PUSH8 0xFFFFFFFFFFFFFFFF DUP2 GT ISZERO PUSH2 0x502 JUMPI PUSH2 0x501 PUSH2 0x349 JUMP JUMPDEST JUMPDEST PUSH2 0x50E DUP11 DUP3 DUP12 ADD PUSH2 0x3B9 JUMP JUMPDEST SWAP6 POP SWAP6 POP POP PUSH1 0x60 PUSH2 0x521 DUP11 DUP3 DUP12 ADD PUSH2 0x40F JUMP JUMPDEST SWAP4 POP POP PUSH1 0xA0 DUP9 ADD CALLDATALOAD PUSH8 0xFFFFFFFFFFFFFFFF DUP2 GT ISZERO PUSH2 0x542 JUMPI PUSH2 0x541 PUSH2 0x349 JUMP JUMPDEST JUMPDEST PUSH2 0x54E DUP11 DUP3 DUP12 ADD PUSH2 0x431 JUMP JUMPDEST SWAP3 POP SWAP3 POP POP SWAP3 SWAP6 SWAP9 SWAP2 SWAP5 SWAP8 POP SWAP3 SWAP6 POP JUMP JUMPDEST PUSH1 0x0 DUP2 SWAP1 POP SWAP2 SWAP1 POP JUMP JUMPDEST PUSH2 0x572 DUP2 PUSH2 0x55F JUMP JUMPDEST DUP3 MSTORE POP POP JUMP JUMPDEST PUSH1 0x0 PUSH1 0x20 DUP3 ADD SWAP1 POP PUSH2 0x58D PUSH1 0x0 DUP4 ADD DUP5 PUSH2 0x569 JUMP JUMPDEST SWAP3 SWAP2 POP POP JUMP JUMPDEST PUSH1 0x0 DUP2 MLOAD SWAP1 POP SWAP2 SWAP1 POP JUMP JUMPDEST PUSH1 0x0 DUP3 DUP3 MSTORE PUSH1 0x20 DUP3 ADD SWAP1 POP SWAP3 SWAP2 POP POP JUMP JUMPDEST PUSH1 0x0 JUMPDEST DUP4 DUP2 LT ISZERO PUSH2 0x5CD JUMPI DUP1 DUP3 ADD MLOAD DUP2 DUP5 ADD MSTORE PUSH1 0x20 DUP2 ADD SWAP1 POP PUSH2 0x5B2 JUMP JUMPDEST PUSH1 0x0 DUP5 DUP5 ADD MSTORE POP POP POP POP JUMP JUMPDEST PUSH1 0x0 PUSH1 0x1F NOT PUSH1 0x1F DUP4 ADD AND SWAP1 POP SWAP2 SWAP1 POP JUMP JUMPDEST PUSH1 0x0 PUSH2 0x5F5 DUP3 PUSH2 0x593 JUMP JUMPDEST PUSH2 0x5FF DUP2 DUP6 PUSH2 0x59E JUMP JUMPDEST SWAP4 POP PUSH2 0x60F DUP2 DUP6 PUSH1 0x20 DUP7 ADD PUSH2 0x5AF JUMP JUMPDEST PUSH2 0x618 DUP2 PUSH2 0x5D9 JUMP JUMPDEST DUP5 ADD SWAP2 POP POP SWAP3 SWAP2 POP POP JUMP JUMPDEST PUSH1 0x0 DUP2 MLOAD SWAP1 POP SWAP2 SWAP1 POP JUMP JUMPDEST PUSH1 0x0 DUP3 DUP3 MSTORE PUSH1 0x20 DUP3 ADD SWAP1 POP SWAP3 SWAP2 POP POP JUMP JUMPDEST PUSH1 0x0 PUSH2 0x64A DUP3 PUSH2 0x623 JUMP JUMPDEST PUSH2 0x654 DUP2 DUP6 PUSH2 0x62E JUMP JUMPDEST SWAP4 POP PUSH2 0x664 DUP2 DUP6 PUSH1 0x20 DUP7 ADD PUSH2 0x5AF JUMP JUMPDEST PUSH2 0x66D DUP2 PUSH2 0x5D9 JUMP JUMPDEST DUP5 ADD SWAP2 POP POP SWAP3 SWAP2 POP POP JUMP JUMPDEST PUSH1 0x0 PUSH20 0xFFFFFFFFFFFFFFFFFFFFFFFFFFFFFFFFFFFFFFFF DUP3 AND SWAP1 POP SWAP2 SWAP1 POP JUMP JUMPDEST PUSH1 0x0 PUSH2 0x6A3 DUP3 PUSH2 0x678 JUMP JUMPDEST SWAP1 POP SWAP2 SWAP1 POP JUMP JUMPDEST PUSH2 0x6B3 DUP2 PUSH2 0x698 JUMP JUMPDEST DUP3 MSTORE POP POP JUMP JUMPDEST PUSH1 0x0 PUSH2 0xFFFF DUP3 AND SWAP1 POP SWAP2 SWAP1 POP JUMP JUMPDEST PUSH2 0x6D0 DUP2 PUSH2 0x6B9 JUMP JUMPDEST DUP3 MSTORE POP POP JUMP JUMPDEST PUSH1 0x0 PUSH1 0x80 DUP3 ADD SWAP1 POP DUP2 DUP2 SUB PUSH1 0x0 DUP4 ADD MSTORE PUSH2 0x6F0 DUP2 DUP8 PUSH2 0x5EA JUMP JUMPDEST SWAP1 POP DUP2 DUP2 SUB PUSH1 0x20 DUP4 ADD MSTORE PUSH2 0x704 DUP2 DUP7 PUSH2 0x63F JUMP JUMPDEST SWAP1 POP PUSH2 0x713 PUSH1 0x40 DUP4 ADD DUP6 PUSH2 0x6AA JUMP JUMPDEST PUSH2 0x720 PUSH1 0x60 DUP4 ADD DUP5 PUSH2 0x6C7 JUMP JUMPDEST SWAP6 SWAP5 POP POP POP POP POP JUMP JUMPDEST PUSH1 0x0 PUSH1 0x20 DUP3 ADD SWAP1 POP PUSH2 0x73E PUSH1 0x0 DUP4 ADD DUP5 PUSH2 0x6AA JUMP JUMPDEST SWAP3 SWAP2 POP POP JUMP JUMPDEST PUSH32 0x4E487B7100000000000000000000000000000000000000000000000000000000 PUSH1 0x0 MSTORE PUSH1 0x22 PUSH1 0x4 MSTORE PUSH1 0x24 PUSH1 0x0 REVERT JUMPDEST PUSH1 0x0 PUSH1 0x2 DUP3 DIV SWAP1 POP PUSH1 0x1 DUP3 AND DUP1 PUSH2 0x78B JUMPI PUSH1 0x7F DUP3 AND SWAP2 POP JUMPDEST PUSH1 0x20 DUP3 LT DUP2 SUB PUSH2 0x79E JUMPI PUSH2 0x79D PUSH2 0x744 JUMP JUMPDEST JUMPDEST POP SWAP2 SWAP1 POP JUMP JUMPDEST PUSH32 0x4E6F7420616C6C6F776564000000000000000000000000000000000000000000 PUSH1 0x0 DUP3 ADD MSTORE POP JUMP JUMPDEST PUSH1 0x0 PUSH2 0x7DA PUSH1 0xB DUP4 PUSH2 0x59E JUMP JUMPDEST SWAP2 POP PUSH2 0x7E5 DUP3 PUSH2 0x7A4 JUMP JUMPDEST PUSH1 0x20 DUP3 ADD SWAP1 POP SWAP2 SWAP1 POP JUMP JUMPDEST PUSH1 0x0 PUSH1 0x20 DUP3 ADD SWAP1 POP DUP2 DUP2 SUB PUSH1 0x0 DUP4 ADD MSTORE PUSH2 0x809 DUP2 PUSH2 0x7CD JUMP JUMPDEST SWAP1 POP SWAP2 SWAP1 POP JUMP JUMPDEST PUSH1 0x0 DUP1 REVERT JUMPDEST PUSH1 0x0 DUP1 REVERT JUMPDEST PUSH1 0x0 DUP1 REVERT JUMPDEST PUSH1 0x0 DUP1 DUP4 CALLDATALOAD PUSH1 0x1 PUSH1 0x20 SUB DUP5 CALLDATASIZE SUB SUB DUP2 SLT PUSH2 0x83C JUMPI PUSH2 0x83B PUSH2 0x810 JUMP JUMPDEST JUMPDEST DUP1 DUP5 ADD SWAP3 POP DUP3 CALLDATALOAD SWAP2 POP PUSH8 0xFFFFFFFFFFFFFFFF DUP3 GT ISZERO PUSH2 0x85E JUMPI PUSH2 0x85D PUSH2 0x815 JUMP JUMPDEST JUMPDEST PUSH1 0x20 DUP4 ADD SWAP3 POP PUSH1 0x1 DUP3 MUL CALLDATASIZE SUB DUP4 SGT ISZERO PUSH2 0x87A JUMPI PUSH2 0x879 PUSH2 0x81A JUMP JUMPDEST JUMPDEST POP SWAP3 POP SWAP3 SWAP1 POP JUMP JUMPDEST PUSH1 0x0 DUP3 SWAP1 POP SWAP3 SWAP2 POP POP JUMP JUMPDEST PUSH32 0x4E487B7100000000000000000000000000000000000000000000000000000000 PUSH1 0x0 MSTORE PUSH1 0x41 PUSH1 0x4 MSTORE PUSH1 0x24 PUSH1 0x0 REVERT JUMPDEST PUSH1 0x0 DUP2 SWAP1 POP DUP2 PUSH1 0x0 MSTORE PUSH1 0x20 PUSH1 0x0 KECCAK256 SWAP1 POP SWAP2 SWAP1 POP JUMP JUMPDEST PUSH1 0x0 PUSH1 0x20 PUSH1 0x1F DUP4 ADD DIV SWAP1 POP SWAP2 SWAP1 POP JUMP JUMPDEST PUSH1 0x0 DUP3 DUP3 SHL SWAP1 POP SWAP3 SWAP2 POP POP JUMP JUMPDEST PUSH1 0x0 PUSH1 0x8 DUP4 MUL PUSH2 0x91E PUSH32 0xFFFFFFFFFFFFFFFFFFFFFFFFFFFFFFFFFFFFFFFFFFFFFFFFFFFFFFFFFFFFFFFF DUP3 PUSH2 0x8E1 JUMP JUMPDEST PUSH2 0x928 DUP7 DUP4 PUSH2 0x8E1 JUMP JUMPDEST SWAP6 POP DUP1 NOT DUP5 AND SWAP4 POP DUP1 DUP7 AND DUP5 OR SWAP3 POP POP POP SWAP4 SWAP3 POP POP POP JUMP JUMPDEST PUSH1 0x0 DUP2 SWAP1 POP SWAP2 SWAP1 POP JUMP JUMPDEST PUSH1 0x0 PUSH2 0x965 PUSH2 0x960 PUSH2 0x95B DUP5 PUSH2 0x55F JUMP JUMPDEST PUSH2 0x940 JUMP JUMPDEST PUSH2 0x55F JUMP JUMPDEST SWAP1 POP SWAP2 SWAP1 POP JUMP JUMPDEST PUSH1 0x0 DUP2 SWAP1 POP SWAP2 SWAP1 POP JUMP JUMPDEST PUSH2 0x97F DUP4 PUSH2 0x94A JUMP JUMPDEST PUSH2 0x993 PUSH2 0x98B DUP3 PUSH2 0x96C JUMP JUMPDEST DUP5 DUP5 SLOAD PUSH2 0x8EE JUMP JUMPDEST DUP3 SSTORE POP POP POP POP JUMP JUMPDEST PUSH1 0x0 SWAP1 JUMP JUMPDEST PUSH2 0x9A8 PUSH2 0x99B JUMP JUMPDEST PUSH2 0x9B3 DUP2 DUP5 DUP5 PUSH2 0x976 JUMP JUMPDEST POP POP POP JUMP JUMPDEST JUMPDEST DUP2 DUP2 LT ISZERO PUSH2 0x9D7 JUMPI PUSH2 0x9CC PUSH1 0x0 DUP3 PUSH2 0x9A0 JUMP JUMPDEST PUSH1 0x1 DUP2 ADD SWAP1 POP PUSH2 0x9B9 JUMP JUMPDEST POP POP JUMP JUMPDEST PUSH1 0x1F DUP3 GT ISZERO PUSH2 0xA1C JUMPI PUSH2 0x9ED DUP2 PUSH2 0x8BC JUMP JUMPDEST PUSH2 0x9F6 DUP5 PUSH2 0x8D1 JUMP JUMPDEST DUP2 ADD PUSH1 0x20 DUP6 LT ISZERO PUSH2 0xA05 JUMPI DUP2 SWAP1 POP JUMPDEST PUSH2 0xA19 PUSH2 0xA11 DUP6 PUSH2 0x8D1 JUMP JUMPDEST DUP4 ADD DUP3 PUSH2 0x9B8 JUMP JUMPDEST POP POP JUMPDEST POP POP POP JUMP JUMPDEST PUSH1 0x0 DUP3 DUP3 SHR SWAP1 POP SWAP3 SWAP2 POP POP JUMP JUMPDEST PUSH1 0x0 PUSH2 0xA3F PUSH1 0x0 NOT DUP5 PUSH1 0x8 MUL PUSH2 0xA21 JUMP JUMPDEST NOT DUP1 DUP4 AND SWAP2 POP POP SWAP3 SWAP2 POP POP JUMP JUMPDEST PUSH1 0x0 PUSH2 0xA58 DUP4 DUP4 PUSH2 0xA2E JUMP JUMPDEST SWAP2 POP DUP3 PUSH1 0x2 MUL DUP3 OR SWAP1 POP SWAP3 SWAP2 POP POP JUMP JUMPDEST PUSH2 0xA72 DUP4 DUP4 PUSH2 0x882 JUMP JUMPDEST PUSH8 0xFFFFFFFFFFFFFFFF DUP2 GT ISZERO PUSH2 0xA8B JUMPI PUSH2 0xA8A PUSH2 0x88D JUMP JUMPDEST JUMPDEST PUSH2 0xA95 DUP3 SLOAD PUSH2 0x773 JUMP JUMPDEST PUSH2 0xAA0 DUP3 DUP3 DUP6 PUSH2 0x9DB JUMP JUMPDEST PUSH1 0x0 PUSH1 0x1F DUP4 GT PUSH1 0x1 DUP2 EQ PUSH2 0xACF JUMPI PUSH1 0x0 DUP5 ISZERO PUSH2 0xABD JUMPI DUP3 DUP8 ADD CALLDATALOAD SWAP1 POP JUMPDEST PUSH2 0xAC7 DUP6 DUP3 PUSH2 0xA4C JUMP JUMPDEST DUP7 SSTORE POP PUSH2 0xB2F JUMP JUMPDEST PUSH1 0x1F NOT DUP5 AND PUSH2 0xADD DUP7 PUSH2 0x8BC JUMP JUMPDEST PUSH1 0x0 JUMPDEST DUP3 DUP2 LT ISZERO PUSH2 0xB05 JUMPI DUP5 DUP10 ADD CALLDATALOAD DUP3 SSTORE PUSH1 0x1 DUP3 ADD SWAP2 POP PUSH1 0x20 DUP6 ADD SWAP5 POP PUSH1 0x20 DUP2 ADD SWAP1 POP PUSH2 0xAE0 JUMP JUMPDEST DUP7 DUP4 LT ISZERO PUSH2 0xB22 JUMPI DUP5 DUP10 ADD CALLDATALOAD PUSH2 0xB1E PUSH1 0x1F DUP10 AND DUP3 PUSH2 0xA2E JUMP JUMPDEST DUP4 SSTORE POP JUMPDEST PUSH1 0x1 PUSH1 0x2 DUP9 MUL ADD DUP9 SSTORE POP POP POP JUMPDEST POP POP POP POP POP POP POP JUMP JUMPDEST PUSH2 0xB43 DUP4 DUP4 DUP4 PUSH2 0xA68 JUMP JUMPDEST POP POP POP JUMP JUMPDEST PUSH1 0x0 DUP1 DUP4 CALLDATALOAD PUSH1 0x1 PUSH1 0x20 SUB DUP5 CALLDATASIZE SUB SUB DUP2 SLT PUSH2 0xB65 JUMPI PUSH2 0xB64 PUSH2 0x810 JUMP JUMPDEST JUMPDEST DUP1 DUP5 ADD SWAP3 POP DUP3 CALLDATALOAD SWAP2 POP PUSH8 0xFFFFFFFFFFFFFFFF DUP3 GT ISZERO PUSH2 0xB87 JUMPI PUSH2 0xB86 PUSH2 0x815 JUMP JUMPDEST JUMPDEST PUSH1 0x20 DUP4 ADD SWAP3 POP PUSH1 0x1 DUP3 MUL CALLDATASIZE SUB DUP4 SGT ISZERO PUSH2 0xBA3 JUMPI PUSH2 0xBA2 PUSH2 0x81A JUMP JUMPDEST JUMPDEST POP SWAP3 POP SWAP3 SWAP1 POP JUMP JUMPDEST PUSH1 0x0 DUP3 SWAP1 POP SWAP3 SWAP2 POP POP JUMP JUMPDEST PUSH1 0x0 DUP2 SWAP1 POP DUP2 PUSH1 0x0 MSTORE PUSH1 0x20 PUSH1 0x0 KECCAK256 SWAP1 POP SWAP2 SWAP1 POP JUMP JUMPDEST PUSH1 0x1F DUP3 GT ISZERO PUSH2 0xC0C JUMPI PUSH2 0xBDD DUP2 PUSH2 0xBB6 JUMP JUMPDEST PUSH2 0xBE6 DUP5 PUSH2 0x8D1 JUMP JUMPDEST DUP2 ADD PUSH1 0x20 DUP6 LT ISZERO PUSH2 0xBF5 JUMPI DUP2 SWAP1 POP JUMPDEST PUSH2 0xC09 PUSH2 0xC01 DUP6 PUSH2 0x8D1 JUMP JUMPDEST DUP4 ADD DUP3 PUSH2 0x9B8 JUMP JUMPDEST POP POP JUMPDEST POP POP POP JUMP JUMPDEST PUSH2 0xC1B DUP4 DUP4 PUSH2 0xBAB JUMP JUMPDEST PUSH8 0xFFFFFFFFFFFFFFFF DUP2 GT ISZERO PUSH2 0xC34 JUMPI PUSH2 0xC33 PUSH2 0x88D JUMP JUMPDEST JUMPDEST PUSH2 0xC3E DUP3 SLOAD PUSH2 0x773 JUMP JUMPDEST PUSH2 0xC49 DUP3 DUP3 DUP6 PUSH2 0xBCB JUMP JUMPDEST PUSH1 0x0 PUSH1 0x1F DUP4 GT PUSH1 0x1 DUP2 EQ PUSH2 0xC78 JUMPI PUSH1 0x0 DUP5 ISZERO PUSH2 0xC66 JUMPI DUP3 DUP8 ADD CALLDATALOAD SWAP1 POP JUMPDEST PUSH2 0xC70 DUP6 DUP3 PUSH2 0xA4C JUMP JUMPDEST DUP7 SSTORE POP PUSH2 0xCD8 JUMP JUMPDEST PUSH1 0x1F NOT DUP5 AND PUSH2 0xC86 DUP7 PUSH2 0xBB6 JUMP JUMPDEST PUSH1 0x0 JUMPDEST DUP3 DUP2 LT ISZERO PUSH2 0xCAE JUMPI DUP5 DUP10 ADD CALLDATALOAD DUP3 SSTORE PUSH1 0x1 DUP3 ADD SWAP2 POP PUSH1 0x20 DUP6 ADD SWAP5 POP PUSH1 0x20 DUP2 ADD SWAP1 POP PUSH2 0xC89 JUMP JUMPDEST DUP7 DUP4 LT ISZERO PUSH2 0xCCB JUMPI DUP5 DUP10 ADD CALLDATALOAD PUSH2 0xCC7 PUSH1 0x1F DUP10 AND DUP3 PUSH2 0xA2E JUMP JUMPDEST DUP4 SSTORE POP JUMPDEST PUSH1 0x1 PUSH1 0x2 DUP9 MUL ADD DUP9 SSTORE POP POP POP JUMPDEST POP POP POP POP POP POP POP JUMP JUMPDEST PUSH2 0xCEC DUP4 DUP4 DUP4 PUSH2 0xC11 JUMP JUMPDEST POP POP POP JUMP JUMPDEST PUSH2 0xCFA DUP2 PUSH2 0x698 JUMP JUMPDEST DUP2 EQ PUSH2 0xD05 JUMPI PUSH1 0x0 DUP1 REVERT JUMPDEST POP JUMP JUMPDEST PUSH1 0x0 DUP2 CALLDATALOAD PUSH2 0xD15 DUP2 PUSH2 0xCF1 JUMP JUMPDEST DUP1 SWAP2 POP POP SWAP2 SWAP1 POP JUMP JUMPDEST PUSH1 0x0 DUP2 PUSH1 0x0 SHL SWAP1 POP SWAP2 SWAP1 POP JUMP JUMPDEST PUSH1 0x0 PUSH20 0xFFFFFFFFFFFFFFFFFFFFFFFFFFFFFFFFFFFFFFFF PUSH2 0xD4B DUP5 PUSH2 0xD1E JUMP JUMPDEST SWAP4 POP DUP1 NOT DUP4 AND SWAP3 POP DUP1 DUP5 AND DUP4 OR SWAP2 POP POP SWAP3 SWAP2 POP POP JUMP JUMPDEST PUSH1 0x0 PUSH2 0xD7C PUSH2 0xD77 PUSH2 0xD72 DUP5 PUSH2 0x678 JUMP JUMPDEST PUSH2 0x940 JUMP JUMPDEST PUSH2 0x678 JUMP JUMPDEST SWAP1 POP SWAP2 SWAP1 POP JUMP JUMPDEST PUSH1 0x0 PUSH2 0xD8E DUP3 PUSH2 0xD61 JUMP JUMPDEST SWAP1 POP SWAP2 SWAP1 POP JUMP JUMPDEST PUSH1 0x0 PUSH2 0xDA0 DUP3 PUSH2 0xD83 JUMP JUMPDEST SWAP1 POP SWAP2 SWAP1 POP JUMP JUMPDEST PUSH1 0x0 DUP2 SWAP1 POP SWAP2 SWAP1 POP JUMP JUMPDEST PUSH2 0xDBA DUP3 PUSH2 0xD95 JUMP JUMPDEST PUSH2 0xDCD PUSH2 0xDC6 DUP3 PUSH2 0xDA7 JUMP JUMPDEST DUP4 SLOAD PUSH2 0xD2B JUMP JUMPDEST DUP3 SSTORE POP POP POP JUMP JUMPDEST PUSH2 0xDDD DUP2 PUSH2 0x6B9 JUMP JUMPDEST DUP2 EQ PUSH2 0xDE8 JUMPI PUSH1 0x0 DUP1 REVERT JUMPDEST POP JUMP JUMPDEST PUSH1 0x0 DUP2 CALLDATALOAD PUSH2 0xDF8 DUP2 PUSH2 0xDD4 JUMP JUMPDEST DUP1 SWAP2 POP POP SWAP2 SWAP1 POP JUMP JUMPDEST PUSH1 0x0 DUP2 PUSH1 0xA0 SHL SWAP1 POP SWAP2 SWAP1 POP JUMP JUMPDEST PUSH1 0x0 PUSH22 0xFFFF0000000000000000000000000000000000000000 PUSH2 0xE30 DUP5 PUSH2 0xE01 JUMP JUMPDEST SWAP4 POP DUP1 NOT DUP4 AND SWAP3 POP DUP1 DUP5 AND DUP4 OR SWAP2 POP POP SWAP3 SWAP2 POP POP JUMP JUMPDEST PUSH1 0x0 PUSH2 0xE61 PUSH2 0xE5C PUSH2 0xE57 DUP5 PUSH2 0x6B9 JUMP JUMPDEST PUSH2 0x940 JUMP JUMPDEST PUSH2 0x6B9 JUMP JUMPDEST SWAP1 POP SWAP2 SWAP1 POP JUMP JUMPDEST PUSH1 0x0 DUP2 SWAP1 POP SWAP2 SWAP1 POP JUMP JUMPDEST PUSH2 0xE7B DUP3 PUSH2 0xE46 JUMP JUMPDEST PUSH2 0xE8E PUSH2 0xE87 DUP3 PUSH2 0xE68 JUMP JUMPDEST DUP4 SLOAD PUSH2 0xE0E JUMP JUMPDEST DUP3 SSTORE POP POP POP JUMP JUMPDEST PUSH1 0x0 DUP2 ADD PUSH1 0x0 DUP4 ADD PUSH2 0xEA7 DUP2 DUP6 PUSH2 0x81F JUMP JUMPDEST PUSH2 0xEB2 DUP2 DUP4 DUP7 PUSH2 0xB38 JUMP JUMPDEST POP POP POP POP PUSH1 0x1 DUP2 ADD PUSH1 0x20 DUP4 ADD PUSH2 0xEC8 DUP2 DUP6 PUSH2 0xB48 JUMP JUMPDEST PUSH2 0xED3 DUP2 DUP4 DUP7 PUSH2 0xCE1 JUMP JUMPDEST POP POP POP POP PUSH1 0x2 DUP2 ADD PUSH1 0x40 DUP4 ADD DUP1 PUSH2 0xEE9 DUP2 PUSH2 0xD08 JUMP JUMPDEST SWAP1 POP PUSH2 0xEF5 DUP2 DUP5 PUSH2 0xDB1 JUMP JUMPDEST POP POP POP PUSH1 0x2 DUP2 ADD PUSH1 0x60 DUP4 ADD DUP1 PUSH2 0xF0A DUP2 PUSH2 0xDEB JUMP JUMPDEST SWAP1 POP PUSH2 0xF16 DUP2 DUP5 PUSH2 0xE72 JUMP JUMPDEST POP POP POP POP POP JUMP JUMPDEST PUSH2 0xF27 DUP3 DUP3 PUSH2 0xE95 JUMP JUMPDEST POP POP JUMP JUMPDEST PUSH32 0x4E487B7100000000000000000000000000000000000000000000000000000000 PUSH1 0x0 MSTORE PUSH1 0x11 PUSH1 0x4 MSTORE PUSH1 0x24 PUSH1 0x0 REVERT JUMPDEST PUSH1 0x0 PUSH2 0xF65 DUP3 PUSH2 0x55F JUMP JUMPDEST SWAP2 POP PUSH32 0xFFFFFFFFFFFFFFFFFFFFFFFFFFFFFFFFFFFFFFFFFFFFFFFFFFFFFFFFFFFFFFFF DUP3 SUB PUSH2 0xF97 JUMPI PUSH2 0xF96 PUSH2 0xF2B JUMP JUMPDEST JUMPDEST PUSH1 0x1 DUP3 ADD SWAP1 POP SWAP2 SWAP1 POP JUMP INVALID LOG2 PUSH5 0x6970667358 0x22 SLT KECCAK256 0xEA TSTORE BLOBBASEFEE CREATE DUP7 TLOAD EXP SELFBALANCE PREVRANDAO SWAP7 PUSH32 0xBF1D7F08FA6FAD54AC75AC70DD7DB2B6CB3924951964736F6C634300081C0033 "
        },
        "methodIdentifiers": {
          "afterTaskSubmission((string,bytes,address,uint16),bool,bytes,uint256[2],uint256[])": "dd1a5387",
          "attestationCenter()": "d92807a2",
          "beforeTaskSubmission((string,bytes,address,uint16),bool,bytes,uint256[2],uint256[])": "502f5bd0",
          "counter()": "61bc221a",
          "lastTaskInfo()": "c102e96c"
        }
      }
    }
  }
}