{
  "_format": "hh-sol-artifact-1",
  "contractName": "MockAmmV2",
  "sourceName": "contracts/MockAmmV2.sol",
  "abi": [
    {
      "inputs": [
        {
          "internalType": "address",
          "name": "_tokenA",
          "type": "address"
        },
        {
          "internalType": "address",
          "name": "_tokenB",
          "type": "address"
        }
      ],
      "stateMutability": "nonpayable",
      "type": "constructor"
    },
    {
      "anonymous": false,
      "inputs": [
        {
          "indexed": true,
          "internalType": "address",
          "name": "user",
          "type": "address"
        },
        {
          "indexed": false,
          "internalType": "uint256",
          "name": "amountA",
          "type": "uint256"
        },
        {
          "indexed": false,
          "internalType": "uint256",
          "name": "amountB",
          "type": "uint256"
        }
      ],
      "name": "LiquidityAdded",
      "type": "event"
    },
    {
      "anonymous": false,
      "inputs": [
        {
          "indexed": true,
          "internalType": "address",
          "name": "user",
          "type": "address"
        },
        {
          "indexed": false,
          "internalType": "uint256",
          "name": "amountA",
          "type": "uint256"
        },
        {
          "indexed": false,
          "internalType": "uint256",
          "name": "amountB",
          "type": "uint256"
        }
      ],
      "name": "LiquidityRemoved",
      "type": "event"
    },
    {
      "anonymous": false,
      "inputs": [
        {
          "indexed": true,
          "internalType": "address",
          "name": "user",
          "type": "address"
        },
        {
          "indexed": true,
          "internalType": "address",
          "name": "inputToken",
          "type": "address"
        },
        {
          "indexed": false,
          "internalType": "uint256",
          "name": "inputAmount",
          "type": "uint256"
        },
        {
          "indexed": false,
          "internalType": "uint256",
          "name": "outputAmount",
          "type": "uint256"
        }
      ],
      "name": "Swap",
      "type": "event"
    },
    {
      "inputs": [
        {
          "internalType": "uint256",
          "name": "amountA",
          "type": "uint256"
        },
        {
          "internalType": "uint256",
          "name": "amountB",
          "type": "uint256"
        }
      ],
      "name": "addLiquidity",
      "outputs": [],
      "stateMutability": "nonpayable",
      "type": "function"
    },
    {
      "inputs": [],
      "name": "getReserves",
      "outputs": [
        {
          "internalType": "uint256",
          "name": "",
          "type": "uint256"
        },
        {
          "internalType": "uint256",
          "name": "",
          "type": "uint256"
        }
      ],
      "stateMutability": "view",
      "type": "function"
    },
    {
      "inputs": [
        {
          "internalType": "address",
          "name": "",
          "type": "address"
        }
      ],
      "name": "liquidity",
      "outputs": [
        {
          "internalType": "uint256",
          "name": "",
          "type": "uint256"
        }
      ],
      "stateMutability": "view",
      "type": "function"
    },
    {
      "inputs": [
        {
          "internalType": "uint256",
          "name": "amountA",
          "type": "uint256"
        },
        {
          "internalType": "uint256",
          "name": "amountB",
          "type": "uint256"
        }
      ],
      "name": "removeLiquidity",
      "outputs": [
        {
          "internalType": "uint256",
          "name": "",
          "type": "uint256"
        },
        {
          "internalType": "uint256",
          "name": "",
          "type": "uint256"
        }
      ],
      "stateMutability": "nonpayable",
      "type": "function"
    },
    {
      "inputs": [],
      "name": "reserveA",
      "outputs": [
        {
          "internalType": "uint256",
          "name": "",
          "type": "uint256"
        }
      ],
      "stateMutability": "view",
      "type": "function"
    },
    {
      "inputs": [],
      "name": "reserveB",
      "outputs": [
        {
          "internalType": "uint256",
          "name": "",
          "type": "uint256"
        }
      ],
      "stateMutability": "view",
      "type": "function"
    },
    {
      "inputs": [
        {
          "internalType": "address",
          "name": "inputToken",
          "type": "address"
        },
        {
          "internalType": "uint256",
          "name": "inputAmount",
          "type": "uint256"
        }
      ],
      "name": "swap",
      "outputs": [],
      "stateMutability": "nonpayable",
      "type": "function"
    },
    {
      "inputs": [],
      "name": "tokenA",
      "outputs": [
        {
          "internalType": "address",
          "name": "",
          "type": "address"
        }
      ],
      "stateMutability": "view",
      "type": "function"
    },
    {
      "inputs": [],
      "name": "tokenB",
      "outputs": [
        {
          "internalType": "address",
          "name": "",
          "type": "address"
        }
      ],
      "stateMutability": "view",
      "type": "function"
    }
  ],
  "bytecode": "0x60c060405234801561001057600080fd5b5060405161170738038061170783398181016040528101906100329190610104565b8173ffffffffffffffffffffffffffffffffffffffff1660808173ffffffffffffffffffffffffffffffffffffffff16815250508073ffffffffffffffffffffffffffffffffffffffff1660a08173ffffffffffffffffffffffffffffffffffffffff16815250505050610144565b600080fd5b600073ffffffffffffffffffffffffffffffffffffffff82169050919050565b60006100d1826100a6565b9050919050565b6100e1816100c6565b81146100ec57600080fd5b50565b6000815190506100fe816100d8565b92915050565b6000806040838503121561011b5761011a6100a1565b5b6000610129858286016100ef565b925050602061013a858286016100ef565b9150509250929050565b60805160a0516115586101af6000396000818161020501528181610319015281816106b6015281816108b80152610a140152600081816101db0152818161027801528181610615015281816108630152818161098f015281816109e80152610b8001526115586000f3fe608060405234801561001057600080fd5b50600436106100935760003560e01c80639cd441da116100665780639cd441da146101115780639d7de6b31461012d578063b8c876b11461015e578063d004f0f71461018e578063dc5fa6c5146101aa57610093565b80630902f1ac146100985780630fc63d10146100b757806319e36f3b146100d55780635f64b55b146100f3575b600080fd5b6100a06101c8565b6040516100ae929190610d89565b60405180910390f35b6100bf6101d9565b6040516100cc9190610df3565b60405180910390f35b6100dd6101fd565b6040516100ea9190610e0e565b60405180910390f35b6100fb610203565b6040516101089190610df3565b60405180910390f35b61012b60048036038101906101269190610e5a565b610227565b005b61014760048036038101906101429190610e5a565b61049e565b604051610155929190610d89565b60405180910390f35b61017860048036038101906101739190610ec6565b610849565b6040516101859190610e0e565b60405180910390f35b6101a860048036038101906101a39190610ef3565b610861565b005b6101b2610ca8565b6040516101bf9190610e0e565b60405180910390f35b600080600054600154915091509091565b7f000000000000000000000000000000000000000000000000000000000000000081565b60015481565b7f000000000000000000000000000000000000000000000000000000000000000081565b6000821180156102375750600081115b610276576040517f08c379a000000000000000000000000000000000000000000000000000000000815260040161026d90610f90565b60405180910390fd5b7f000000000000000000000000000000000000000000000000000000000000000073ffffffffffffffffffffffffffffffffffffffff166323b872dd3330856040518463ffffffff1660e01b81526004016102d393929190610fb0565b6020604051808303816000875af11580156102f2573d6000803e3d6000fd5b505050506040513d601f19601f82011682018060405250810190610316919061101f565b507f000000000000000000000000000000000000000000000000000000000000000073ffffffffffffffffffffffffffffffffffffffff166323b872dd3330846040518463ffffffff1660e01b815260040161037493929190610fb0565b6020604051808303816000875af1158015610393573d6000803e3d6000fd5b505050506040513d601f19601f820116820180604052508101906103b7919061101f565b50816000808282546103c9919061107b565b9250508190555080600160008282546103e2919061107b565b9250508190555080826103f5919061107b565b600260003373ffffffffffffffffffffffffffffffffffffffff1673ffffffffffffffffffffffffffffffffffffffff1681526020019081526020016000206000828254610443919061107b565b925050819055503373ffffffffffffffffffffffffffffffffffffffff167fac1d76749e5447b7b16f5ab61447e1bd502f3bb4807af3b28e620d1700a6ee458383604051610492929190610d89565b60405180910390a25050565b6000806000841180156104b15750600083115b6104f0576040517f08c379a00000000000000000000000000000000000000000000000000000000081526004016104e790611121565b60405180910390fd5b82846104fc919061107b565b600260003373ffffffffffffffffffffffffffffffffffffffff1673ffffffffffffffffffffffffffffffffffffffff16815260200190815260200160002054101561057d576040517f08c379a00000000000000000000000000000000000000000000000000000000081526004016105749061118d565b60405180910390fd5b600060644233604051602001610594929190611216565b6040516020818303038152906040528051906020012060001c6105b79190611271565b9050600061271082876105ca91906112a2565b6105d491906112e4565b9050600061271083876105e791906112a2565b6105f191906112e4565b905060008288610601919061107b565b905060008288610611919061107b565b90507f000000000000000000000000000000000000000000000000000000000000000073ffffffffffffffffffffffffffffffffffffffff166323b872dd3330856040518463ffffffff1660e01b815260040161067093929190610fb0565b6020604051808303816000875af115801561068f573d6000803e3d6000fd5b505050506040513d601f19601f820116820180604052508101906106b3919061101f565b507f000000000000000000000000000000000000000000000000000000000000000073ffffffffffffffffffffffffffffffffffffffff166323b872dd3330846040518463ffffffff1660e01b815260040161071193929190610fb0565b6020604051808303816000875af1158015610730573d6000803e3d6000fd5b505050506040513d601f19601f82011682018060405250810190610754919061101f565b50816000808282546107669190611315565b92505081905550806001600082825461077f9190611315565b925050819055508789610792919061107b565b600260003373ffffffffffffffffffffffffffffffffffffffff1673ffffffffffffffffffffffffffffffffffffffff16815260200190815260200160002060008282546107e09190611315565b925050819055503373ffffffffffffffffffffffffffffffffffffffff167f96cd817c6329656790ef8fba7675405193677d39619571282f5e21f3a98cd059838360405161082f929190610d89565b60405180910390a288889650965050505050509250929050565b60026020528060005260406000206000915090505481565b7f000000000000000000000000000000000000000000000000000000000000000073ffffffffffffffffffffffffffffffffffffffff168273ffffffffffffffffffffffffffffffffffffffff16148061090657507f000000000000000000000000000000000000000000000000000000000000000073ffffffffffffffffffffffffffffffffffffffff168273ffffffffffffffffffffffffffffffffffffffff16145b610945576040517f08c379a000000000000000000000000000000000000000000000000000000000815260040161093c90611395565b60405180910390fd5b60008111610988576040517f08c379a000000000000000000000000000000000000000000000000000000000815260040161097f90611401565b60405180910390fd5b60008060007f000000000000000000000000000000000000000000000000000000000000000073ffffffffffffffffffffffffffffffffffffffff168573ffffffffffffffffffffffffffffffffffffffff1614610a0c576001546000547f0000000000000000000000000000000000000000000000000000000000000000610a34565b6000546001547f00000000000000000000000000000000000000000000000000000000000000005b925092509250600083118015610a4a5750600082115b610a89576040517f08c379a0000000000000000000000000000000000000000000000000000000008152600401610a809061118d565b60405180910390fd5b60008484610a97919061107b565b8386610aa391906112a2565b610aad91906112e4565b905060008111610af2576040517f08c379a0000000000000000000000000000000000000000000000000000000008152600401610ae99061146d565b60405180910390fd5b8573ffffffffffffffffffffffffffffffffffffffff166323b872dd3330886040518463ffffffff1660e01b8152600401610b2f93929190610fb0565b6020604051808303816000875af1158015610b4e573d6000803e3d6000fd5b505050506040513d601f19601f82011682018060405250810190610b72919061101f565b50610b7e823383610cae565b7f000000000000000000000000000000000000000000000000000000000000000073ffffffffffffffffffffffffffffffffffffffff168673ffffffffffffffffffffffffffffffffffffffff1603610c075784600080828254610be2919061107b565b925050819055508060016000828254610bfb9190611315565b92505081905550610c39565b8460016000828254610c19919061107b565b9250508190555080600080828254610c319190611315565b925050819055505b8573ffffffffffffffffffffffffffffffffffffffff163373ffffffffffffffffffffffffffffffffffffffff167ffa2dda1cc1b86e41239702756b13effbc1a092b5c57e3ad320fbe4f3b13fe2358784604051610c98929190610d89565b60405180910390a3505050505050565b60005481565b8273ffffffffffffffffffffffffffffffffffffffff1663a9059cbb83836040518363ffffffff1660e01b8152600401610ce992919061148d565b6020604051808303816000875af1158015610d08573d6000803e3d6000fd5b505050506040513d601f19601f82011682018060405250810190610d2c919061101f565b610d6b576040517f08c379a0000000000000000000000000000000000000000000000000000000008152600401610d6290611502565b60405180910390fd5b505050565b6000819050919050565b610d8381610d70565b82525050565b6000604082019050610d9e6000830185610d7a565b610dab6020830184610d7a565b9392505050565b600073ffffffffffffffffffffffffffffffffffffffff82169050919050565b6000610ddd82610db2565b9050919050565b610ded81610dd2565b82525050565b6000602082019050610e086000830184610de4565b92915050565b6000602082019050610e236000830184610d7a565b92915050565b600080fd5b610e3781610d70565b8114610e4257600080fd5b50565b600081359050610e5481610e2e565b92915050565b60008060408385031215610e7157610e70610e29565b5b6000610e7f85828601610e45565b9250506020610e9085828601610e45565b9150509250929050565b610ea381610dd2565b8114610eae57600080fd5b50565b600081359050610ec081610e9a565b92915050565b600060208284031215610edc57610edb610e29565b5b6000610eea84828501610eb1565b91505092915050565b60008060408385031215610f0a57610f09610e29565b5b6000610f1885828601610eb1565b9250506020610f2985828601610e45565b9150509250929050565b600082825260208201905092915050565b7f416d6f756e7473206d7573742062652067726561746572207468616e20300000600082015250565b6000610f7a601e83610f33565b9150610f8582610f44565b602082019050919050565b60006020820190508181036000830152610fa981610f6d565b9050919050565b6000606082019050610fc56000830186610de4565b610fd26020830185610de4565b610fdf6040830184610d7a565b949350505050565b60008115159050919050565b610ffc81610fe7565b811461100757600080fd5b50565b60008151905061101981610ff3565b92915050565b60006020828403121561103557611034610e29565b5b60006110438482850161100a565b91505092915050565b7f4e487b7100000000000000000000000000000000000000000000000000000000600052601160045260246000fd5b600061108682610d70565b915061109183610d70565b92508282019050808211156110a9576110a861104c565b5b92915050565b7f576974686472617720616d6f756e74206d75737420626520677265617465722060008201527f7468616e20300000000000000000000000000000000000000000000000000000602082015250565b600061110b602683610f33565b9150611116826110af565b604082019050919050565b6000602082019050818103600083015261113a816110fe565b9050919050565b7f496e73756666696369656e74206c697175696469747900000000000000000000600082015250565b6000611177601683610f33565b915061118282611141565b602082019050919050565b600060208201905081810360008301526111a68161116a565b9050919050565b6000819050919050565b6111c86111c382610d70565b6111ad565b82525050565b60008160601b9050919050565b60006111e6826111ce565b9050919050565b60006111f8826111db565b9050919050565b61121061120b82610dd2565b6111ed565b82525050565b600061122282856111b7565b60208201915061123282846111ff565b6014820191508190509392505050565b7f4e487b7100000000000000000000000000000000000000000000000000000000600052601260045260246000fd5b600061127c82610d70565b915061128783610d70565b92508261129757611296611242565b5b828206905092915050565b60006112ad82610d70565b91506112b883610d70565b92508282026112c681610d70565b915082820484148315176112dd576112dc61104c565b5b5092915050565b60006112ef82610d70565b91506112fa83610d70565b92508261130a57611309611242565b5b828204905092915050565b600061132082610d70565b915061132b83610d70565b92508282039050818111156113435761134261104c565b5b92915050565b7f496e76616c696420746f6b656e00000000000000000000000000000000000000600082015250565b600061137f600d83610f33565b915061138a82611349565b602082019050919050565b600060208201905081810360008301526113ae81611372565b9050919050565b7f416d6f756e74206d7573742062652067726561746572207468616e2030000000600082015250565b60006113eb601d83610f33565b91506113f6826113b5565b602082019050919050565b6000602082019050818103600083015261141a816113de565b9050919050565b7f496e76616c6964206f757470757420616d6f756e740000000000000000000000600082015250565b6000611457601583610f33565b915061146282611421565b602082019050919050565b600060208201905081810360008301526114868161144a565b9050919050565b60006040820190506114a26000830185610de4565b6114af6020830184610d7a565b9392505050565b7f5472616e73666572206661696c65640000000000000000000000000000000000600082015250565b60006114ec600f83610f33565b91506114f7826114b6565b602082019050919050565b6000602082019050818103600083015261151b816114df565b905091905056fea26469706673582212200bff2eba3a4bac01b59114568d25a77dfada4cc37c8c5b520903fb3e48403f1864736f6c634300081c0033",
  "linkReferences": {},
  "deployedLinkReferences": {}
}