{
  "_format": "hh-sol-artifact-1",
  "contractName": "MockAMM",
  "sourceName": "contracts/MockAMM.sol",
  "abi": [
    {
      "inputs": [
        {
          "internalType": "address",
          "name": "_tokenA",
          "type": "address"
        },
        {
          "internalType": "address",
          "name": "_tokenB",
          "type": "address"
        }
      ],
      "stateMutability": "nonpayable",
      "type": "constructor"
    },
    {
      "anonymous": false,
      "inputs": [
        {
          "indexed": true,
          "internalType": "address",
          "name": "user",
          "type": "address"
        },
        {
          "indexed": false,
          "internalType": "uint256",
          "name": "amountA",
          "type": "uint256"
        },
        {
          "indexed": false,
          "internalType": "uint256",
          "name": "amountB",
          "type": "uint256"
        }
      ],
      "name": "LiquidityAdded",
      "type": "event"
    },
    {
      "anonymous": false,
      "inputs": [
        {
          "indexed": true,
          "internalType": "address",
          "name": "user",
          "type": "address"
        },
        {
          "indexed": false,
          "internalType": "uint256",
          "name": "amountA",
          "type": "uint256"
        },
        {
          "indexed": false,
          "internalType": "uint256",
          "name": "amountB",
          "type": "uint256"
        },
        {
          "indexed": false,
          "internalType": "uint256",
          "name": "feesCollected",
          "type": "uint256"
        }
      ],
      "name": "LiquidityRemoved",
      "type": "event"
    },
    {
      "anonymous": false,
      "inputs": [
        {
          "indexed": true,
          "internalType": "address",
          "name": "user",
          "type": "address"
        },
        {
          "indexed": true,
          "internalType": "address",
          "name": "inputToken",
          "type": "address"
        },
        {
          "indexed": false,
          "internalType": "uint256",
          "name": "inputAmount",
          "type": "uint256"
        },
        {
          "indexed": false,
          "internalType": "uint256",
          "name": "outputAmount",
          "type": "uint256"
        }
      ],
      "name": "Swap",
      "type": "event"
    },
    {
      "inputs": [
        {
          "internalType": "uint256",
          "name": "amountA",
          "type": "uint256"
        },
        {
          "internalType": "uint256",
          "name": "amountB",
          "type": "uint256"
        }
      ],
      "name": "addLiquidity",
      "outputs": [],
      "stateMutability": "nonpayable",
      "type": "function"
    },
    {
      "inputs": [],
      "name": "getReserves",
      "outputs": [
        {
          "internalType": "uint256",
          "name": "",
          "type": "uint256"
        },
        {
          "internalType": "uint256",
          "name": "",
          "type": "uint256"
        }
      ],
      "stateMutability": "view",
      "type": "function"
    },
    {
      "inputs": [
        {
          "internalType": "address",
          "name": "",
          "type": "address"
        }
      ],
      "name": "liquidity",
      "outputs": [
        {
          "internalType": "uint256",
          "name": "",
          "type": "uint256"
        }
      ],
      "stateMutability": "view",
      "type": "function"
    },
    {
      "inputs": [],
      "name": "removeLiquidity",
      "outputs": [],
      "stateMutability": "nonpayable",
      "type": "function"
    },
    {
      "inputs": [],
      "name": "reserveA",
      "outputs": [
        {
          "internalType": "uint256",
          "name": "",
          "type": "uint256"
        }
      ],
      "stateMutability": "view",
      "type": "function"
    },
    {
      "inputs": [],
      "name": "reserveB",
      "outputs": [
        {
          "internalType": "uint256",
          "name": "",
          "type": "uint256"
        }
      ],
      "stateMutability": "view",
      "type": "function"
    },
    {
      "inputs": [
        {
          "internalType": "address",
          "name": "inputToken",
          "type": "address"
        },
        {
          "internalType": "uint256",
          "name": "inputAmount",
          "type": "uint256"
        }
      ],
      "name": "swap",
      "outputs": [],
      "stateMutability": "nonpayable",
      "type": "function"
    },
    {
      "inputs": [],
      "name": "tokenA",
      "outputs": [
        {
          "internalType": "address",
          "name": "",
          "type": "address"
        }
      ],
      "stateMutability": "view",
      "type": "function"
    },
    {
      "inputs": [],
      "name": "tokenB",
      "outputs": [
        {
          "internalType": "address",
          "name": "",
          "type": "address"
        }
      ],
      "stateMutability": "view",
      "type": "function"
    }
  ],
  "bytecode": "0x60c060405234801561001057600080fd5b506040516115e23803806115e283398181016040528101906100329190610104565b8173ffffffffffffffffffffffffffffffffffffffff1660808173ffffffffffffffffffffffffffffffffffffffff16815250508073ffffffffffffffffffffffffffffffffffffffff1660a08173ffffffffffffffffffffffffffffffffffffffff16815250505050610144565b600080fd5b600073ffffffffffffffffffffffffffffffffffffffff82169050919050565b60006100d1826100a6565b9050919050565b6100e1816100c6565b81146100ec57600080fd5b50565b6000815190506100fe816100d8565b92915050565b6000806040838503121561011b5761011a6100a1565b5b6000610129858286016100ef565b925050602061013a858286016100ef565b9150509250929050565b60805160a0516114336101af600039600081816101de015281816104110152818161058e0152818161078201526108de0152600081816101b4015281816103e6015281816104ed0152818161072d01528181610859015281816108b20152610a4a01526114336000f3fe608060405234801561001057600080fd5b50600436106100935760003560e01c806367b9a2861161006657806367b9a286146101115780639cd441da1461011b578063b8c876b114610137578063d004f0f714610167578063dc5fa6c51461018357610093565b80630902f1ac146100985780630fc63d10146100b757806319e36f3b146100d55780635f64b55b146100f3575b600080fd5b6100a06101a1565b6040516100ae929190610c53565b60405180910390f35b6100bf6101b2565b6040516100cc9190610cbd565b60405180910390f35b6100dd6101d6565b6040516100ea9190610cd8565b60405180910390f35b6100fb6101dc565b6040516101089190610cbd565b60405180910390f35b610119610200565b005b61013560048036038101906101309190610d24565b61049c565b005b610151600480360381019061014c9190610d90565b610713565b60405161015e9190610cd8565b60405180910390f35b610181600480360381019061017c9190610dbd565b61072b565b005b61018b610b72565b6040516101989190610cd8565b60405180910390f35b600080600054600154915091509091565b7f000000000000000000000000000000000000000000000000000000000000000081565b60015481565b7f000000000000000000000000000000000000000000000000000000000000000081565b6000600260003373ffffffffffffffffffffffffffffffffffffffff1673ffffffffffffffffffffffffffffffffffffffff16815260200190815260200160002054905060008111610287576040517f08c379a000000000000000000000000000000000000000000000000000000000815260040161027e90610e5a565b60405180910390fd5b60006001546000546102999190610ea9565b826000546102a79190610edd565b6102b19190610f4e565b905060006001546000546102c59190610ea9565b836001546102d39190610edd565b6102dd9190610f4e565b90506000606442336040516020016102f6929190610fe8565b6040516020818303038152906040528051906020012060001c6103199190611014565b90506000612710828561032c9190610edd565b6103369190610f4e565b9050600061271083856103499190610edd565b6103539190610f4e565b905081856103619190610ea9565b6000808282546103719190611045565b9250508190555080846103849190610ea9565b600160008282546103959190611045565b925050819055506000600260003373ffffffffffffffffffffffffffffffffffffffff1673ffffffffffffffffffffffffffffffffffffffff1681526020019081526020016000208190555061040c7f00000000000000000000000000000000000000000000000000000000000000003387610b78565b6104377f00000000000000000000000000000000000000000000000000000000000000003386610b78565b3373ffffffffffffffffffffffffffffffffffffffff167f1dc8bb69df2b8e91fbdcbfcf93d951b3f0000f085a95fe3f7946d6161439245d8686848661047d9190610ea9565b60405161048c93929190611079565b60405180910390a2505050505050565b6000821180156104ac5750600081115b6104eb576040517f08c379a00000000000000000000000000000000000000000000000000000000081526004016104e2906110fc565b60405180910390fd5b7f000000000000000000000000000000000000000000000000000000000000000073ffffffffffffffffffffffffffffffffffffffff166323b872dd3330856040518463ffffffff1660e01b81526004016105489392919061111c565b6020604051808303816000875af1158015610567573d6000803e3d6000fd5b505050506040513d601f19601f8201168201806040525081019061058b919061118b565b507f000000000000000000000000000000000000000000000000000000000000000073ffffffffffffffffffffffffffffffffffffffff166323b872dd3330846040518463ffffffff1660e01b81526004016105e99392919061111c565b6020604051808303816000875af1158015610608573d6000803e3d6000fd5b505050506040513d601f19601f8201168201806040525081019061062c919061118b565b508160008082825461063e9190610ea9565b9250508190555080600160008282546106579190610ea9565b92505081905550808261066a9190610ea9565b600260003373ffffffffffffffffffffffffffffffffffffffff1673ffffffffffffffffffffffffffffffffffffffff16815260200190815260200160002060008282546106b89190610ea9565b925050819055503373ffffffffffffffffffffffffffffffffffffffff167fac1d76749e5447b7b16f5ab61447e1bd502f3bb4807af3b28e620d1700a6ee458383604051610707929190610c53565b60405180910390a25050565b60026020528060005260406000206000915090505481565b7f000000000000000000000000000000000000000000000000000000000000000073ffffffffffffffffffffffffffffffffffffffff168273ffffffffffffffffffffffffffffffffffffffff1614806107d057507f000000000000000000000000000000000000000000000000000000000000000073ffffffffffffffffffffffffffffffffffffffff168273ffffffffffffffffffffffffffffffffffffffff16145b61080f576040517f08c379a000000000000000000000000000000000000000000000000000000000815260040161080690611204565b60405180910390fd5b60008111610852576040517f08c379a000000000000000000000000000000000000000000000000000000000815260040161084990611270565b60405180910390fd5b60008060007f000000000000000000000000000000000000000000000000000000000000000073ffffffffffffffffffffffffffffffffffffffff168573ffffffffffffffffffffffffffffffffffffffff16146108d6576001546000547f00000000000000000000000000000000000000000000000000000000000000006108fe565b6000546001547f00000000000000000000000000000000000000000000000000000000000000005b9250925092506000831180156109145750600082115b610953576040517f08c379a000000000000000000000000000000000000000000000000000000000815260040161094a906112dc565b60405180910390fd5b600084846109619190610ea9565b838661096d9190610edd565b6109779190610f4e565b9050600081116109bc576040517f08c379a00000000000000000000000000000000000000000000000000000000081526004016109b390611348565b60405180910390fd5b8573ffffffffffffffffffffffffffffffffffffffff166323b872dd3330886040518463ffffffff1660e01b81526004016109f99392919061111c565b6020604051808303816000875af1158015610a18573d6000803e3d6000fd5b505050506040513d601f19601f82011682018060405250810190610a3c919061118b565b50610a48823383610b78565b7f000000000000000000000000000000000000000000000000000000000000000073ffffffffffffffffffffffffffffffffffffffff168673ffffffffffffffffffffffffffffffffffffffff1603610ad15784600080828254610aac9190610ea9565b925050819055508060016000828254610ac59190611045565b92505081905550610b03565b8460016000828254610ae39190610ea9565b9250508190555080600080828254610afb9190611045565b925050819055505b8573ffffffffffffffffffffffffffffffffffffffff163373ffffffffffffffffffffffffffffffffffffffff167ffa2dda1cc1b86e41239702756b13effbc1a092b5c57e3ad320fbe4f3b13fe2358784604051610b62929190610c53565b60405180910390a3505050505050565b60005481565b8273ffffffffffffffffffffffffffffffffffffffff1663a9059cbb83836040518363ffffffff1660e01b8152600401610bb3929190611368565b6020604051808303816000875af1158015610bd2573d6000803e3d6000fd5b505050506040513d601f19601f82011682018060405250810190610bf6919061118b565b610c35576040517f08c379a0000000000000000000000000000000000000000000000000000000008152600401610c2c906113dd565b60405180910390fd5b505050565b6000819050919050565b610c4d81610c3a565b82525050565b6000604082019050610c686000830185610c44565b610c756020830184610c44565b9392505050565b600073ffffffffffffffffffffffffffffffffffffffff82169050919050565b6000610ca782610c7c565b9050919050565b610cb781610c9c565b82525050565b6000602082019050610cd26000830184610cae565b92915050565b6000602082019050610ced6000830184610c44565b92915050565b600080fd5b610d0181610c3a565b8114610d0c57600080fd5b50565b600081359050610d1e81610cf8565b92915050565b60008060408385031215610d3b57610d3a610cf3565b5b6000610d4985828601610d0f565b9250506020610d5a85828601610d0f565b9150509250929050565b610d6d81610c9c565b8114610d7857600080fd5b50565b600081359050610d8a81610d64565b92915050565b600060208284031215610da657610da5610cf3565b5b6000610db484828501610d7b565b91505092915050565b60008060408385031215610dd457610dd3610cf3565b5b6000610de285828601610d7b565b9250506020610df385828601610d0f565b9150509250929050565b600082825260208201905092915050565b7f4e6f206c697175696469747920746f2072656d6f766500000000000000000000600082015250565b6000610e44601683610dfd565b9150610e4f82610e0e565b602082019050919050565b60006020820190508181036000830152610e7381610e37565b9050919050565b7f4e487b7100000000000000000000000000000000000000000000000000000000600052601160045260246000fd5b6000610eb482610c3a565b9150610ebf83610c3a565b9250828201905080821115610ed757610ed6610e7a565b5b92915050565b6000610ee882610c3a565b9150610ef383610c3a565b9250828202610f0181610c3a565b91508282048414831517610f1857610f17610e7a565b5b5092915050565b7f4e487b7100000000000000000000000000000000000000000000000000000000600052601260045260246000fd5b6000610f5982610c3a565b9150610f6483610c3a565b925082610f7457610f73610f1f565b5b828204905092915050565b6000819050919050565b610f9a610f9582610c3a565b610f7f565b82525050565b60008160601b9050919050565b6000610fb882610fa0565b9050919050565b6000610fca82610fad565b9050919050565b610fe2610fdd82610c9c565b610fbf565b82525050565b6000610ff48285610f89565b6020820191506110048284610fd1565b6014820191508190509392505050565b600061101f82610c3a565b915061102a83610c3a565b92508261103a57611039610f1f565b5b828206905092915050565b600061105082610c3a565b915061105b83610c3a565b925082820390508181111561107357611072610e7a565b5b92915050565b600060608201905061108e6000830186610c44565b61109b6020830185610c44565b6110a86040830184610c44565b949350505050565b7f416d6f756e7473206d7573742062652067726561746572207468616e20300000600082015250565b60006110e6601e83610dfd565b91506110f1826110b0565b602082019050919050565b60006020820190508181036000830152611115816110d9565b9050919050565b60006060820190506111316000830186610cae565b61113e6020830185610cae565b61114b6040830184610c44565b949350505050565b60008115159050919050565b61116881611153565b811461117357600080fd5b50565b6000815190506111858161115f565b92915050565b6000602082840312156111a1576111a0610cf3565b5b60006111af84828501611176565b91505092915050565b7f496e76616c696420746f6b656e00000000000000000000000000000000000000600082015250565b60006111ee600d83610dfd565b91506111f9826111b8565b602082019050919050565b6000602082019050818103600083015261121d816111e1565b9050919050565b7f416d6f756e74206d7573742062652067726561746572207468616e2030000000600082015250565b600061125a601d83610dfd565b915061126582611224565b602082019050919050565b600060208201905081810360008301526112898161124d565b9050919050565b7f496e73756666696369656e74206c697175696469747900000000000000000000600082015250565b60006112c6601683610dfd565b91506112d182611290565b602082019050919050565b600060208201905081810360008301526112f5816112b9565b9050919050565b7f496e76616c6964206f757470757420616d6f756e740000000000000000000000600082015250565b6000611332601583610dfd565b915061133d826112fc565b602082019050919050565b6000602082019050818103600083015261136181611325565b9050919050565b600060408201905061137d6000830185610cae565b61138a6020830184610c44565b9392505050565b7f5472616e73666572206661696c65640000000000000000000000000000000000600082015250565b60006113c7600f83610dfd565b91506113d282611391565b602082019050919050565b600060208201905081810360008301526113f6816113ba565b905091905056fea2646970667358221220a8517696f5694f5b4db94079fb19594b3924a6c74d55c856760d613678e0041664736f6c634300081c0033",
  "linkReferences": {},
  "deployedLinkReferences": {}
}