{
  "_format": "hh-sol-artifact-1",
  "contractName": "USDT",
  "sourceName": "contracts/USDT.sol",
  "abi": [
    {
      "inputs": [
        {
          "internalType": "address",
          "name": "initialOwner",
          "type": "address"
        }
      ],
      "stateMutability": "nonpayable",
      "type": "constructor"
    },
    {
      "inputs": [],
      "name": "ECDSAInvalidSignature",
      "type": "error"
    },
    {
      "inputs": [
        {
          "internalType": "uint256",
          "name": "length",
          "type": "uint256"
        }
      ],
      "name": "ECDSAInvalidSignatureLength",
      "type": "error"
    },
    {
      "inputs": [
        {
          "internalType": "bytes32",
          "name": "s",
          "type": "bytes32"
        }
      ],
      "name": "ECDSAInvalidSignatureS",
      "type": "error"
    },
    {
      "inputs": [
        {
          "internalType": "address",
          "name": "spender",
          "type": "address"
        },
        {
          "internalType": "uint256",
          "name": "allowance",
          "type": "uint256"
        },
        {
          "internalType": "uint256",
          "name": "needed",
          "type": "uint256"
        }
      ],
      "name": "ERC20InsufficientAllowance",
      "type": "error"
    },
    {
      "inputs": [
        {
          "internalType": "address",
          "name": "sender",
          "type": "address"
        },
        {
          "internalType": "uint256",
          "name": "balance",
          "type": "uint256"
        },
        {
          "internalType": "uint256",
          "name": "needed",
          "type": "uint256"
        }
      ],
      "name": "ERC20InsufficientBalance",
      "type": "error"
    },
    {
      "inputs": [
        {
          "internalType": "address",
          "name": "approver",
          "type": "address"
        }
      ],
      "name": "ERC20InvalidApprover",
      "type": "error"
    },
    {
      "inputs": [
        {
          "internalType": "address",
          "name": "receiver",
          "type": "address"
        }
      ],
      "name": "ERC20InvalidReceiver",
      "type": "error"
    },
    {
      "inputs": [
        {
          "internalType": "address",
          "name": "sender",
          "type": "address"
        }
      ],
      "name": "ERC20InvalidSender",
      "type": "error"
    },
    {
      "inputs": [
        {
          "internalType": "address",
          "name": "spender",
          "type": "address"
        }
      ],
      "name": "ERC20InvalidSpender",
      "type": "error"
    },
    {
      "inputs": [
        {
          "internalType": "uint256",
          "name": "deadline",
          "type": "uint256"
        }
      ],
      "name": "ERC2612ExpiredSignature",
      "type": "error"
    },
    {
      "inputs": [
        {
          "internalType": "address",
          "name": "signer",
          "type": "address"
        },
        {
          "internalType": "address",
          "name": "owner",
          "type": "address"
        }
      ],
      "name": "ERC2612InvalidSigner",
      "type": "error"
    },
    {
      "inputs": [
        {
          "internalType": "address",
          "name": "account",
          "type": "address"
        },
        {
          "internalType": "uint256",
          "name": "currentNonce",
          "type": "uint256"
        }
      ],
      "name": "InvalidAccountNonce",
      "type": "error"
    },
    {
      "inputs": [],
      "name": "InvalidShortString",
      "type": "error"
    },
    {
      "inputs": [
        {
          "internalType": "address",
          "name": "owner",
          "type": "address"
        }
      ],
      "name": "OwnableInvalidOwner",
      "type": "error"
    },
    {
      "inputs": [
        {
          "internalType": "address",
          "name": "account",
          "type": "address"
        }
      ],
      "name": "OwnableUnauthorizedAccount",
      "type": "error"
    },
    {
      "inputs": [
        {
          "internalType": "string",
          "name": "str",
          "type": "string"
        }
      ],
      "name": "StringTooLong",
      "type": "error"
    },
    {
      "anonymous": false,
      "inputs": [
        {
          "indexed": true,
          "internalType": "address",
          "name": "owner",
          "type": "address"
        },
        {
          "indexed": true,
          "internalType": "address",
          "name": "spender",
          "type": "address"
        },
        {
          "indexed": false,
          "internalType": "uint256",
          "name": "value",
          "type": "uint256"
        }
      ],
      "name": "Approval",
      "type": "event"
    },
    {
      "anonymous": false,
      "inputs": [],
      "name": "EIP712DomainChanged",
      "type": "event"
    },
    {
      "anonymous": false,
      "inputs": [
        {
          "indexed": true,
          "internalType": "address",
          "name": "previousOwner",
          "type": "address"
        },
        {
          "indexed": true,
          "internalType": "address",
          "name": "newOwner",
          "type": "address"
        }
      ],
      "name": "OwnershipTransferred",
      "type": "event"
    },
    {
      "anonymous": false,
      "inputs": [
        {
          "indexed": true,
          "internalType": "address",
          "name": "from",
          "type": "address"
        },
        {
          "indexed": true,
          "internalType": "address",
          "name": "to",
          "type": "address"
        },
        {
          "indexed": false,
          "internalType": "uint256",
          "name": "value",
          "type": "uint256"
        }
      ],
      "name": "Transfer",
      "type": "event"
    },
    {
      "inputs": [],
      "name": "DOMAIN_SEPARATOR",
      "outputs": [
        {
          "internalType": "bytes32",
          "name": "",
          "type": "bytes32"
        }
      ],
      "stateMutability": "view",
      "type": "function"
    },
    {
      "inputs": [
        {
          "internalType": "address",
          "name": "owner",
          "type": "address"
        },
        {
          "internalType": "address",
          "name": "spender",
          "type": "address"
        }
      ],
      "name": "allowance",
      "outputs": [
        {
          "internalType": "uint256",
          "name": "",
          "type": "uint256"
        }
      ],
      "stateMutability": "view",
      "type": "function"
    },
    {
      "inputs": [
        {
          "internalType": "address",
          "name": "spender",
          "type": "address"
        },
        {
          "internalType": "uint256",
          "name": "value",
          "type": "uint256"
        }
      ],
      "name": "approve",
      "outputs": [
        {
          "internalType": "bool",
          "name": "",
          "type": "bool"
        }
      ],
      "stateMutability": "nonpayable",
      "type": "function"
    },
    {
      "inputs": [
        {
          "internalType": "address",
          "name": "account",
          "type": "address"
        }
      ],
      "name": "balanceOf",
      "outputs": [
        {
          "internalType": "uint256",
          "name": "",
          "type": "uint256"
        }
      ],
      "stateMutability": "view",
      "type": "function"
    },
    {
      "inputs": [],
      "name": "decimals",
      "outputs": [
        {
          "internalType": "uint8",
          "name": "",
          "type": "uint8"
        }
      ],
      "stateMutability": "view",
      "type": "function"
    },
    {
      "inputs": [],
      "name": "eip712Domain",
      "outputs": [
        {
          "internalType": "bytes1",
          "name": "fields",
          "type": "bytes1"
        },
        {
          "internalType": "string",
          "name": "name",
          "type": "string"
        },
        {
          "internalType": "string",
          "name": "version",
          "type": "string"
        },
        {
          "internalType": "uint256",
          "name": "chainId",
          "type": "uint256"
        },
        {
          "internalType": "address",
          "name": "verifyingContract",
          "type": "address"
        },
        {
          "internalType": "bytes32",
          "name": "salt",
          "type": "bytes32"
        },
        {
          "internalType": "uint256[]",
          "name": "extensions",
          "type": "uint256[]"
        }
      ],
      "stateMutability": "view",
      "type": "function"
    },
    {
      "inputs": [
        {
          "internalType": "address",
          "name": "to",
          "type": "address"
        },
        {
          "internalType": "uint256",
          "name": "amount",
          "type": "uint256"
        }
      ],
      "name": "mint",
      "outputs": [],
      "stateMutability": "nonpayable",
      "type": "function"
    },
    {
      "inputs": [],
      "name": "name",
      "outputs": [
        {
          "internalType": "string",
          "name": "",
          "type": "string"
        }
      ],
      "stateMutability": "view",
      "type": "function"
    },
    {
      "inputs": [
        {
          "internalType": "address",
          "name": "owner",
          "type": "address"
        }
      ],
      "name": "nonces",
      "outputs": [
        {
          "internalType": "uint256",
          "name": "",
          "type": "uint256"
        }
      ],
      "stateMutability": "view",
      "type": "function"
    },
    {
      "inputs": [],
      "name": "owner",
      "outputs": [
        {
          "internalType": "address",
          "name": "",
          "type": "address"
        }
      ],
      "stateMutability": "view",
      "type": "function"
    },
    {
      "inputs": [
        {
          "internalType": "address",
          "name": "owner",
          "type": "address"
        },
        {
          "internalType": "address",
          "name": "spender",
          "type": "address"
        },
        {
          "internalType": "uint256",
          "name": "value",
          "type": "uint256"
        },
        {
          "internalType": "uint256",
          "name": "deadline",
          "type": "uint256"
        },
        {
          "internalType": "uint8",
          "name": "v",
          "type": "uint8"
        },
        {
          "internalType": "bytes32",
          "name": "r",
          "type": "bytes32"
        },
        {
          "internalType": "bytes32",
          "name": "s",
          "type": "bytes32"
        }
      ],
      "name": "permit",
      "outputs": [],
      "stateMutability": "nonpayable",
      "type": "function"
    },
    {
      "inputs": [],
      "name": "renounceOwnership",
      "outputs": [],
      "stateMutability": "nonpayable",
      "type": "function"
    },
    {
      "inputs": [],
      "name": "symbol",
      "outputs": [
        {
          "internalType": "string",
          "name": "",
          "type": "string"
        }
      ],
      "stateMutability": "view",
      "type": "function"
    },
    {
      "inputs": [],
      "name": "totalSupply",
      "outputs": [
        {
          "internalType": "uint256",
          "name": "",
          "type": "uint256"
        }
      ],
      "stateMutability": "view",
      "type": "function"
    },
    {
      "inputs": [
        {
          "internalType": "address",
          "name": "to",
          "type": "address"
        },
        {
          "internalType": "uint256",
          "name": "value",
          "type": "uint256"
        }
      ],
      "name": "transfer",
      "outputs": [
        {
          "internalType": "bool",
          "name": "",
          "type": "bool"
        }
      ],
      "stateMutability": "nonpayable",
      "type": "function"
    },
    {
      "inputs": [
        {
          "internalType": "address",
          "name": "from",
          "type": "address"
        },
        {
          "internalType": "address",
          "name": "to",
          "type": "address"
        },
        {
          "internalType": "uint256",
          "name": "value",
          "type": "uint256"
        }
      ],
      "name": "transferFrom",
      "outputs": [
        {
          "internalType": "bool",
          "name": "",
          "type": "bool"
        }
      ],
      "stateMutability": "nonpayable",
      "type": "function"
    },
    {
      "inputs": [
        {
          "internalType": "address",
          "name": "newOwner",
          "type": "address"
        }
      ],
      "name": "transferOwnership",
      "outputs": [],
      "stateMutability": "nonpayable",
      "type": "function"
    }
  ],
  "bytecode": "0x61016060405234801561001157600080fd5b50604051612989380380612989833981810160405281019061003391906104a8565b6040518060400160405280600481526020017f5553445400000000000000000000000000000000000000000000000000000000815250806040518060400160405280600181526020017f3100000000000000000000000000000000000000000000000000000000000000815250836040518060400160405280600981526020017f4d6f636b205553445400000000000000000000000000000000000000000000008152506040518060400160405280600481526020017f5553445400000000000000000000000000000000000000000000000000000000815250816003908161011c9190610725565b50806004908161012c9190610725565b505050600073ffffffffffffffffffffffffffffffffffffffff168173ffffffffffffffffffffffffffffffffffffffff16036101a15760006040517f1e4fbdf70000000000000000000000000000000000000000000000000000000081526004016101989190610806565b60405180910390fd5b6101b08161026260201b60201c565b506101c560068361032860201b90919060201c565b61012081815250506101e160078261032860201b90919060201c565b6101408181525050818051906020012060e08181525050808051906020012061010081815250504660a0818152505061021e61037860201b60201c565b608081815250503073ffffffffffffffffffffffffffffffffffffffff1660c08173ffffffffffffffffffffffffffffffffffffffff1681525050505050506109da565b6000600560009054906101000a900473ffffffffffffffffffffffffffffffffffffffff16905081600560006101000a81548173ffffffffffffffffffffffffffffffffffffffff021916908373ffffffffffffffffffffffffffffffffffffffff1602179055508173ffffffffffffffffffffffffffffffffffffffff168173ffffffffffffffffffffffffffffffffffffffff167f8be0079c531659141344cd1fd0a4f28419497f9722a3daafe3b4186f6b6457e060405160405180910390a35050565b600060208351101561034a57610343836103d360201b60201c565b9050610372565b8261035a8361043b60201b60201c565b60000190816103699190610725565b5060ff60001b90505b92915050565b60007f8b73c3c69bb8fe3d512ecc4cf759cc79239f7b179b0ffacaa9a75d522b39400f60e0516101005146306040516020016103b8959493929190610849565b60405160208183030381529060405280519060200120905090565b600080829050601f8151111561042057826040517f305a27a90000000000000000000000000000000000000000000000000000000081526004016104179190610921565b60405180910390fd5b80518161042c90610973565b60001c1760001b915050919050565b6000819050919050565b600080fd5b600073ffffffffffffffffffffffffffffffffffffffff82169050919050565b60006104758261044a565b9050919050565b6104858161046a565b811461049057600080fd5b50565b6000815190506104a28161047c565b92915050565b6000602082840312156104be576104bd610445565b5b60006104cc84828501610493565b91505092915050565b600081519050919050565b7f4e487b7100000000000000000000000000000000000000000000000000000000600052604160045260246000fd5b7f4e487b7100000000000000000000000000000000000000000000000000000000600052602260045260246000fd5b6000600282049050600182168061055657607f821691505b6020821081036105695761056861050f565b5b50919050565b60008190508160005260206000209050919050565b60006020601f8301049050919050565b600082821b905092915050565b6000600883026105d17fffffffffffffffffffffffffffffffffffffffffffffffffffffffffffffffff82610594565b6105db8683610594565b95508019841693508086168417925050509392505050565b6000819050919050565b6000819050919050565b600061062261061d610618846105f3565b6105fd565b6105f3565b9050919050565b6000819050919050565b61063c83610607565b61065061064882610629565b8484546105a1565b825550505050565b600090565b610665610658565b610670818484610633565b505050565b5b818110156106945761068960008261065d565b600181019050610676565b5050565b601f8211156106d9576106aa8161056f565b6106b384610584565b810160208510156106c2578190505b6106d66106ce85610584565b830182610675565b50505b505050565b600082821c905092915050565b60006106fc600019846008026106de565b1980831691505092915050565b600061071583836106eb565b9150826002028217905092915050565b61072e826104d5565b67ffffffffffffffff811115610747576107466104e0565b5b610751825461053e565b61075c828285610698565b600060209050601f83116001811461078f576000841561077d578287015190505b6107878582610709565b8655506107ef565b601f19841661079d8661056f565b60005b828110156107c5578489015182556001820191506020850194506020810190506107a0565b868310156107e257848901516107de601f8916826106eb565b8355505b6001600288020188555050505b505050505050565b6108008161046a565b82525050565b600060208201905061081b60008301846107f7565b92915050565b6000819050919050565b61083481610821565b82525050565b610843816105f3565b82525050565b600060a08201905061085e600083018861082b565b61086b602083018761082b565b610878604083018661082b565b610885606083018561083a565b61089260808301846107f7565b9695505050505050565b600082825260208201905092915050565b60005b838110156108cb5780820151818401526020810190506108b0565b60008484015250505050565b6000601f19601f8301169050919050565b60006108f3826104d5565b6108fd818561089c565b935061090d8185602086016108ad565b610916816108d7565b840191505092915050565b6000602082019050818103600083015261093b81846108e8565b905092915050565b600081519050919050565b6000819050602082019050919050565b600061096a8251610821565b80915050919050565b600061097e82610943565b826109888461094e565b90506109938161095e565b925060208210156109d3576109ce7fffffffffffffffffffffffffffffffffffffffffffffffffffffffffffffffff83602003600802610594565b831692505b5050919050565b60805160a05160c05160e051610100516101205161014051611f55610a346000396000610d7c01526000610d41015260006112910152600061127001526000610a6d01526000610ac301526000610aec0152611f556000f3fe608060405234801561001057600080fd5b506004361061010b5760003560e01c8063715018a6116100a257806395d89b411161007157806395d89b41146102b0578063a9059cbb146102ce578063d505accf146102fe578063dd62ed3e1461031a578063f2fde38b1461034a5761010b565b8063715018a6146102345780637ecebe001461023e57806384b0196e1461026e5780638da5cb5b146102925761010b565b8063313ce567116100de578063313ce567146101ac5780633644e515146101ca57806340c10f19146101e857806370a08231146102045761010b565b806306fdde0314610110578063095ea7b31461012e57806318160ddd1461015e57806323b872dd1461017c575b600080fd5b610118610366565b604051610125919061177e565b60405180910390f35b61014860048036038101906101439190611839565b6103f8565b6040516101559190611894565b60405180910390f35b61016661041b565b60405161017391906118be565b60405180910390f35b610196600480360381019061019191906118d9565b610425565b6040516101a39190611894565b60405180910390f35b6101b4610454565b6040516101c19190611948565b60405180910390f35b6101d261045d565b6040516101df919061197c565b60405180910390f35b61020260048036038101906101fd9190611839565b61046c565b005b61021e60048036038101906102199190611997565b61047a565b60405161022b91906118be565b60405180910390f35b61023c6104c2565b005b61025860048036038101906102539190611997565b6104d6565b60405161026591906118be565b60405180910390f35b6102766104e8565b6040516102899796959493929190611acc565b60405180910390f35b61029a610592565b6040516102a79190611b50565b60405180910390f35b6102b86105bc565b6040516102c5919061177e565b60405180910390f35b6102e860048036038101906102e39190611839565b61064e565b6040516102f59190611894565b60405180910390f35b61031860048036038101906103139190611bc3565b610671565b005b610334600480360381019061032f9190611c65565b6107b9565b60405161034191906118be565b60405180910390f35b610364600480360381019061035f9190611997565b610840565b005b60606003805461037590611cd4565b80601f01602080910402602001604051908101604052809291908181526020018280546103a190611cd4565b80156103ee5780601f106103c3576101008083540402835291602001916103ee565b820191906000526020600020905b8154815290600101906020018083116103d157829003601f168201915b5050505050905090565b6000806104036108c6565b90506104108185856108ce565b600191505092915050565b6000600254905090565b6000806104306108c6565b905061043d8582856108e0565b610448858585610975565b60019150509392505050565b60006012905090565b6000610467610a69565b905090565b6104768282610b20565b5050565b60008060008373ffffffffffffffffffffffffffffffffffffffff1673ffffffffffffffffffffffffffffffffffffffff168152602001908152602001600020549050919050565b6104ca610ba2565b6104d46000610c29565b565b60006104e182610cef565b9050919050565b6000606080600080600060606104fc610d38565b610504610d73565b46306000801b600067ffffffffffffffff81111561052557610524611d05565b5b6040519080825280602002602001820160405280156105535781602001602082028036833780820191505090505b507f0f00000000000000000000000000000000000000000000000000000000000000959493929190965096509650965096509650965090919293949596565b6000600560009054906101000a900473ffffffffffffffffffffffffffffffffffffffff16905090565b6060600480546105cb90611cd4565b80601f01602080910402602001604051908101604052809291908181526020018280546105f790611cd4565b80156106445780601f1061061957610100808354040283529160200191610644565b820191906000526020600020905b81548152906001019060200180831161062757829003601f168201915b5050505050905090565b6000806106596108c6565b9050610666818585610975565b600191505092915050565b834211156106b657836040517f627913020000000000000000000000000000000000000000000000000000000081526004016106ad91906118be565b60405180910390fd5b60007f6e71edae12b1b97f4d1f60370fef10105fa2faae0126114a169c64845d6126c98888886106e58c610dae565b896040516020016106fb96959493929190611d34565b604051602081830303815290604052805190602001209050600061071e82610e05565b9050600061072e82878787610e1f565b90508973ffffffffffffffffffffffffffffffffffffffff168173ffffffffffffffffffffffffffffffffffffffff16146107a257808a6040517f4b800e46000000000000000000000000000000000000000000000000000000008152600401610799929190611d95565b60405180910390fd5b6107ad8a8a8a6108ce565b50505050505050505050565b6000600160008473ffffffffffffffffffffffffffffffffffffffff1673ffffffffffffffffffffffffffffffffffffffff16815260200190815260200160002060008373ffffffffffffffffffffffffffffffffffffffff1673ffffffffffffffffffffffffffffffffffffffff16815260200190815260200160002054905092915050565b610848610ba2565b600073ffffffffffffffffffffffffffffffffffffffff168173ffffffffffffffffffffffffffffffffffffffff16036108ba5760006040517f1e4fbdf70000000000000000000000000000000000000000000000000000000081526004016108b19190611b50565b60405180910390fd5b6108c381610c29565b50565b600033905090565b6108db8383836001610e4f565b505050565b60006108ec84846107b9565b90507fffffffffffffffffffffffffffffffffffffffffffffffffffffffffffffffff81101561096f578181101561095f578281836040517ffb8f41b200000000000000000000000000000000000000000000000000000000815260040161095693929190611dbe565b60405180910390fd5b61096e84848484036000610e4f565b5b50505050565b600073ffffffffffffffffffffffffffffffffffffffff168373ffffffffffffffffffffffffffffffffffffffff16036109e75760006040517f96c6fd1e0000000000000000000000000000000000000000000000000000000081526004016109de9190611b50565b60405180910390fd5b600073ffffffffffffffffffffffffffffffffffffffff168273ffffffffffffffffffffffffffffffffffffffff1603610a595760006040517fec442f05000000000000000000000000000000000000000000000000000000008152600401610a509190611b50565b60405180910390fd5b610a64838383611026565b505050565b60007f000000000000000000000000000000000000000000000000000000000000000073ffffffffffffffffffffffffffffffffffffffff163073ffffffffffffffffffffffffffffffffffffffff16148015610ae557507f000000000000000000000000000000000000000000000000000000000000000046145b15610b12577f00000000000000000000000000000000000000000000000000000000000000009050610b1d565b610b1a61124b565b90505b90565b600073ffffffffffffffffffffffffffffffffffffffff168273ffffffffffffffffffffffffffffffffffffffff1603610b925760006040517fec442f05000000000000000000000000000000000000000000000000000000008152600401610b899190611b50565b60405180910390fd5b610b9e60008383611026565b5050565b610baa6108c6565b73ffffffffffffffffffffffffffffffffffffffff16610bc8610592565b73ffffffffffffffffffffffffffffffffffffffff1614610c2757610beb6108c6565b6040517f118cdaa7000000000000000000000000000000000000000000000000000000008152600401610c1e9190611b50565b60405180910390fd5b565b6000600560009054906101000a900473ffffffffffffffffffffffffffffffffffffffff16905081600560006101000a81548173ffffffffffffffffffffffffffffffffffffffff021916908373ffffffffffffffffffffffffffffffffffffffff1602179055508173ffffffffffffffffffffffffffffffffffffffff168173ffffffffffffffffffffffffffffffffffffffff167f8be0079c531659141344cd1fd0a4f28419497f9722a3daafe3b4186f6b6457e060405160405180910390a35050565b6000600860008373ffffffffffffffffffffffffffffffffffffffff1673ffffffffffffffffffffffffffffffffffffffff168152602001908152602001600020549050919050565b6060610d6e60067f00000000000000000000000000000000000000000000000000000000000000006112e190919063ffffffff16565b905090565b6060610da960077f00000000000000000000000000000000000000000000000000000000000000006112e190919063ffffffff16565b905090565b6000600860008373ffffffffffffffffffffffffffffffffffffffff1673ffffffffffffffffffffffffffffffffffffffff1681526020019081526020016000206000815480929190600101919050559050919050565b6000610e18610e12610a69565b83611391565b9050919050565b600080600080610e31888888886113d2565b925092509250610e4182826114c6565b829350505050949350505050565b600073ffffffffffffffffffffffffffffffffffffffff168473ffffffffffffffffffffffffffffffffffffffff1603610ec15760006040517fe602df05000000000000000000000000000000000000000000000000000000008152600401610eb89190611b50565b60405180910390fd5b600073ffffffffffffffffffffffffffffffffffffffff168373ffffffffffffffffffffffffffffffffffffffff1603610f335760006040517f94280d62000000000000000000000000000000000000000000000000000000008152600401610f2a9190611b50565b60405180910390fd5b81600160008673ffffffffffffffffffffffffffffffffffffffff1673ffffffffffffffffffffffffffffffffffffffff16815260200190815260200160002060008573ffffffffffffffffffffffffffffffffffffffff1673ffffffffffffffffffffffffffffffffffffffff168152602001908152602001600020819055508015611020578273ffffffffffffffffffffffffffffffffffffffff168473ffffffffffffffffffffffffffffffffffffffff167f8c5be1e5ebec7d5bd14f71427d1e84f3dd0314c0f7b2291e5b200ac8c7c3b9258460405161101791906118be565b60405180910390a35b50505050565b600073ffffffffffffffffffffffffffffffffffffffff168373ffffffffffffffffffffffffffffffffffffffff160361107857806002600082825461106c9190611e24565b9250508190555061114b565b60008060008573ffffffffffffffffffffffffffffffffffffffff1673ffffffffffffffffffffffffffffffffffffffff16815260200190815260200160002054905081811015611104578381836040517fe450d38c0000000000000000000000000000000000000000000000000000000081526004016110fb93929190611dbe565b60405180910390fd5b8181036000808673ffffffffffffffffffffffffffffffffffffffff1673ffffffffffffffffffffffffffffffffffffffff16815260200190815260200160002081905550505b600073ffffffffffffffffffffffffffffffffffffffff168273ffffffffffffffffffffffffffffffffffffffff160361119457806002600082825403925050819055506111e1565b806000808473ffffffffffffffffffffffffffffffffffffffff1673ffffffffffffffffffffffffffffffffffffffff168152602001908152602001600020600082825401925050819055505b8173ffffffffffffffffffffffffffffffffffffffff168373ffffffffffffffffffffffffffffffffffffffff167fddf252ad1be2c89b69c2b068fc378daa952ba7f163c4a11628f55a4df523b3ef8360405161123e91906118be565b60405180910390a3505050565b60007f8b73c3c69bb8fe3d512ecc4cf759cc79239f7b179b0ffacaa9a75d522b39400f7f00000000000000000000000000000000000000000000000000000000000000007f000000000000000000000000000000000000000000000000000000000000000046306040516020016112c6959493929190611e58565b60405160208183030381529060405280519060200120905090565b606060ff60001b83146112fe576112f78361162a565b905061138b565b81805461130a90611cd4565b80601f016020809104026020016040519081016040528092919081815260200182805461133690611cd4565b80156113835780601f1061135857610100808354040283529160200191611383565b820191906000526020600020905b81548152906001019060200180831161136657829003601f168201915b505050505090505b92915050565b60006040517f190100000000000000000000000000000000000000000000000000000000000081528360028201528260228201526042812091505092915050565b60008060007f7fffffffffffffffffffffffffffffff5d576e7357a4501ddfe92f46681b20a08460001c11156114125760006003859250925092506114bc565b6000600188888888604051600081526020016040526040516114379493929190611eab565b6020604051602081039080840390855afa158015611459573d6000803e3d6000fd5b505050602060405103519050600073ffffffffffffffffffffffffffffffffffffffff168173ffffffffffffffffffffffffffffffffffffffff16036114ad57600060016000801b935093509350506114bc565b8060008060001b935093509350505b9450945094915050565b600060038111156114da576114d9611ef0565b5b8260038111156114ed576114ec611ef0565b5b0315611626576001600381111561150757611506611ef0565b5b82600381111561151a57611519611ef0565b5b03611551576040517ff645eedf00000000000000000000000000000000000000000000000000000000815260040160405180910390fd5b6002600381111561156557611564611ef0565b5b82600381111561157857611577611ef0565b5b036115bd578060001c6040517ffce698f70000000000000000000000000000000000000000000000000000000081526004016115b491906118be565b60405180910390fd5b6003808111156115d0576115cf611ef0565b5b8260038111156115e3576115e2611ef0565b5b0361162557806040517fd78bce0c00000000000000000000000000000000000000000000000000000000815260040161161c919061197c565b60405180910390fd5b5b5050565b606060006116378361169e565b90506000602067ffffffffffffffff81111561165657611655611d05565b5b6040519080825280601f01601f1916602001820160405280156116885781602001600182028036833780820191505090505b5090508181528360208201528092505050919050565b60008060ff8360001c169050601f8111156116e5576040517fb3512b0c00000000000000000000000000000000000000000000000000000000815260040160405180910390fd5b80915050919050565b600081519050919050565b600082825260208201905092915050565b60005b8381101561172857808201518184015260208101905061170d565b60008484015250505050565b6000601f19601f8301169050919050565b6000611750826116ee565b61175a81856116f9565b935061176a81856020860161170a565b61177381611734565b840191505092915050565b600060208201905081810360008301526117988184611745565b905092915050565b600080fd5b600073ffffffffffffffffffffffffffffffffffffffff82169050919050565b60006117d0826117a5565b9050919050565b6117e0816117c5565b81146117eb57600080fd5b50565b6000813590506117fd816117d7565b92915050565b6000819050919050565b61181681611803565b811461182157600080fd5b50565b6000813590506118338161180d565b92915050565b600080604083850312156118505761184f6117a0565b5b600061185e858286016117ee565b925050602061186f85828601611824565b9150509250929050565b60008115159050919050565b61188e81611879565b82525050565b60006020820190506118a96000830184611885565b92915050565b6118b881611803565b82525050565b60006020820190506118d360008301846118af565b92915050565b6000806000606084860312156118f2576118f16117a0565b5b6000611900868287016117ee565b9350506020611911868287016117ee565b925050604061192286828701611824565b9150509250925092565b600060ff82169050919050565b6119428161192c565b82525050565b600060208201905061195d6000830184611939565b92915050565b6000819050919050565b61197681611963565b82525050565b6000602082019050611991600083018461196d565b92915050565b6000602082840312156119ad576119ac6117a0565b5b60006119bb848285016117ee565b91505092915050565b60007fff0000000000000000000000000000000000000000000000000000000000000082169050919050565b6119f9816119c4565b82525050565b611a08816117c5565b82525050565b600081519050919050565b600082825260208201905092915050565b6000819050602082019050919050565b611a4381611803565b82525050565b6000611a558383611a3a565b60208301905092915050565b6000602082019050919050565b6000611a7982611a0e565b611a838185611a19565b9350611a8e83611a2a565b8060005b83811015611abf578151611aa68882611a49565b9750611ab183611a61565b925050600181019050611a92565b5085935050505092915050565b600060e082019050611ae1600083018a6119f0565b8181036020830152611af38189611745565b90508181036040830152611b078188611745565b9050611b1660608301876118af565b611b2360808301866119ff565b611b3060a083018561196d565b81810360c0830152611b428184611a6e565b905098975050505050505050565b6000602082019050611b6560008301846119ff565b92915050565b611b748161192c565b8114611b7f57600080fd5b50565b600081359050611b9181611b6b565b92915050565b611ba081611963565b8114611bab57600080fd5b50565b600081359050611bbd81611b97565b92915050565b600080600080600080600060e0888a031215611be257611be16117a0565b5b6000611bf08a828b016117ee565b9750506020611c018a828b016117ee565b9650506040611c128a828b01611824565b9550506060611c238a828b01611824565b9450506080611c348a828b01611b82565b93505060a0611c458a828b01611bae565b92505060c0611c568a828b01611bae565b91505092959891949750929550565b60008060408385031215611c7c57611c7b6117a0565b5b6000611c8a858286016117ee565b9250506020611c9b858286016117ee565b9150509250929050565b7f4e487b7100000000000000000000000000000000000000000000000000000000600052602260045260246000fd5b60006002820490506001821680611cec57607f821691505b602082108103611cff57611cfe611ca5565b5b50919050565b7f4e487b7100000000000000000000000000000000000000000000000000000000600052604160045260246000fd5b600060c082019050611d49600083018961196d565b611d5660208301886119ff565b611d6360408301876119ff565b611d7060608301866118af565b611d7d60808301856118af565b611d8a60a08301846118af565b979650505050505050565b6000604082019050611daa60008301856119ff565b611db760208301846119ff565b9392505050565b6000606082019050611dd360008301866119ff565b611de060208301856118af565b611ded60408301846118af565b949350505050565b7f4e487b7100000000000000000000000000000000000000000000000000000000600052601160045260246000fd5b6000611e2f82611803565b9150611e3a83611803565b9250828201905080821115611e5257611e51611df5565b5b92915050565b600060a082019050611e6d600083018861196d565b611e7a602083018761196d565b611e87604083018661196d565b611e9460608301856118af565b611ea160808301846119ff565b9695505050505050565b6000608082019050611ec0600083018761196d565b611ecd6020830186611939565b611eda604083018561196d565b611ee7606083018461196d565b95945050505050565b7f4e487b7100000000000000000000000000000000000000000000000000000000600052602160045260246000fdfea26469706673582212205e7e5034a2d84382a81b719e834f7b25f4fdb696c1ea0ae4ea01a0bbcf32776764736f6c634300081c0033",
  "linkReferences": {},
  "deployedLinkReferences": {}
}