{
  "_format": "hh-sol-artifact-1",
  "contractName": "TreasuryV2",
  "sourceName": "contracts/TreasuryV2.sol",
  "abi": [
    {
      "inputs": [
        {
          "internalType": "address",
          "name": "_authorizedCaller",
          "type": "address"
        },
        {
          "internalType": "address",
          "name": "_owner",
          "type": "address"
        }
      ],
      "stateMutability": "nonpayable",
      "type": "constructor"
    },
    {
      "anonymous": false,
      "inputs": [
        {
          "indexed": true,
          "internalType": "address",
          "name": "newAuthorizedCaller",
          "type": "address"
        }
      ],
      "name": "AuthorizedCallerSet",
      "type": "event"
    },
    {
      "anonymous": false,
      "inputs": [
        {
          "indexed": true,
          "internalType": "address",
          "name": "user",
          "type": "address"
        },
        {
          "indexed": true,
          "internalType": "address",
          "name": "token",
          "type": "address"
        },
        {
          "indexed": false,
          "internalType": "uint256",
          "name": "amount",
          "type": "uint256"
        },
        {
          "indexed": false,
          "internalType": "uint256",
          "name": "units",
          "type": "uint256"
        }
      ],
      "name": "Deposited",
      "type": "event"
    },
    {
      "anonymous": false,
      "inputs": [
        {
          "indexed": true,
          "internalType": "address",
          "name": "caller",
          "type": "address"
        },
        {
          "indexed": false,
          "internalType": "address",
          "name": "tokenA",
          "type": "address"
        },
        {
          "indexed": false,
          "internalType": "address",
          "name": "tokenB",
          "type": "address"
        },
        {
          "indexed": false,
          "internalType": "uint256",
          "name": "receivedA",
          "type": "uint256"
        },
        {
          "indexed": false,
          "internalType": "uint256",
          "name": "receivedB",
          "type": "uint256"
        }
      ],
      "name": "StrategyClosed",
      "type": "event"
    },
    {
      "anonymous": false,
      "inputs": [
        {
          "indexed": true,
          "internalType": "address",
          "name": "caller",
          "type": "address"
        },
        {
          "indexed": false,
          "internalType": "address",
          "name": "pool",
          "type": "address"
        },
        {
          "indexed": false,
          "internalType": "address",
          "name": "tokenA",
          "type": "address"
        },
        {
          "indexed": false,
          "internalType": "address",
          "name": "tokenB",
          "type": "address"
        },
        {
          "indexed": false,
          "internalType": "uint256",
          "name": "tokenAAmount",
          "type": "uint256"
        },
        {
          "indexed": false,
          "internalType": "uint256",
          "name": "tokenBAmount",
          "type": "uint256"
        }
      ],
      "name": "StrategyOpened",
      "type": "event"
    },
    {
      "anonymous": false,
      "inputs": [
        {
          "indexed": true,
          "internalType": "address",
          "name": "user",
          "type": "address"
        },
        {
          "indexed": true,
          "internalType": "address",
          "name": "token",
          "type": "address"
        },
        {
          "indexed": false,
          "internalType": "uint256",
          "name": "units",
          "type": "uint256"
        },
        {
          "indexed": false,
          "internalType": "uint256",
          "name": "amount",
          "type": "uint256"
        }
      ],
      "name": "Withdrawn",
      "type": "event"
    },
    {
      "inputs": [],
      "name": "DEFAULT_INDEX_PRICE",
      "outputs": [
        {
          "internalType": "uint256",
          "name": "",
          "type": "uint256"
        }
      ],
      "stateMutability": "view",
      "type": "function"
    },
    {
      "inputs": [
        {
          "internalType": "uint8",
          "name": "",
          "type": "uint8"
        }
      ],
      "name": "allowedStrategies",
      "outputs": [
        {
          "internalType": "contract IMockAmmV2",
          "name": "pool",
          "type": "address"
        },
        {
          "internalType": "address",
          "name": "tokenA",
          "type": "address"
        },
        {
          "internalType": "address",
          "name": "tokenB",
          "type": "address"
        }
      ],
      "stateMutability": "view",
      "type": "function"
    },
    {
      "inputs": [],
      "name": "authorizedCaller",
      "outputs": [
        {
          "internalType": "address",
          "name": "",
          "type": "address"
        }
      ],
      "stateMutability": "view",
      "type": "function"
    },
    {
      "inputs": [
        {
          "internalType": "address",
          "name": "token",
          "type": "address"
        },
        {
          "internalType": "uint256",
          "name": "amount",
          "type": "uint256"
        }
      ],
      "name": "deposit",
      "outputs": [],
      "stateMutability": "nonpayable",
      "type": "function"
    },
    {
      "inputs": [
        {
          "internalType": "bytes",
          "name": "",
          "type": "bytes"
        }
      ],
      "name": "executeApprovedTask",
      "outputs": [],
      "stateMutability": "nonpayable",
      "type": "function"
    },
    {
      "inputs": [
        {
          "internalType": "address",
          "name": "token",
          "type": "address"
        },
        {
          "internalType": "address",
          "name": "user",
          "type": "address"
        }
      ],
      "name": "getBalance",
      "outputs": [
        {
          "internalType": "uint256",
          "name": "",
          "type": "uint256"
        }
      ],
      "stateMutability": "view",
      "type": "function"
    },
    {
      "inputs": [
        {
          "internalType": "address",
          "name": "token",
          "type": "address"
        },
        {
          "internalType": "address",
          "name": "user",
          "type": "address"
        }
      ],
      "name": "getUnitAmount",
      "outputs": [
        {
          "internalType": "uint256",
          "name": "",
          "type": "uint256"
        }
      ],
      "stateMutability": "view",
      "type": "function"
    },
    {
      "inputs": [],
      "name": "owner",
      "outputs": [
        {
          "internalType": "address",
          "name": "",
          "type": "address"
        }
      ],
      "stateMutability": "view",
      "type": "function"
    },
    {
      "inputs": [
        {
          "internalType": "address",
          "name": "_authorizedCaller",
          "type": "address"
        }
      ],
      "name": "setAuthorizedCaller",
      "outputs": [],
      "stateMutability": "nonpayable",
      "type": "function"
    },
    {
      "inputs": [
        {
          "internalType": "uint8",
          "name": "id",
          "type": "uint8"
        },
        {
          "internalType": "contract IMockAmmV2",
          "name": "pool",
          "type": "address"
        },
        {
          "internalType": "address",
          "name": "_tokenA",
          "type": "address"
        },
        {
          "internalType": "address",
          "name": "_tokenB",
          "type": "address"
        }
      ],
      "name": "setStrategyPool",
      "outputs": [],
      "stateMutability": "nonpayable",
      "type": "function"
    },
    {
      "inputs": [
        {
          "internalType": "address",
          "name": "",
          "type": "address"
        }
      ],
      "name": "strategyDeposits",
      "outputs": [
        {
          "internalType": "uint256",
          "name": "",
          "type": "uint256"
        }
      ],
      "stateMutability": "view",
      "type": "function"
    },
    {
      "inputs": [
        {
          "internalType": "address",
          "name": "",
          "type": "address"
        }
      ],
      "name": "tokenInfo",
      "outputs": [
        {
          "internalType": "uint256",
          "name": "indexPrice",
          "type": "uint256"
        },
        {
          "internalType": "uint256",
          "name": "totalUnits",
          "type": "uint256"
        },
        {
          "internalType": "uint256",
          "name": "totalLiquidity",
          "type": "uint256"
        }
      ],
      "stateMutability": "view",
      "type": "function"
    },
    {
      "inputs": [
        {
          "internalType": "address",
          "name": "",
          "type": "address"
        },
        {
          "internalType": "address",
          "name": "",
          "type": "address"
        }
      ],
      "name": "userUnits",
      "outputs": [
        {
          "internalType": "uint256",
          "name": "",
          "type": "uint256"
        }
      ],
      "stateMutability": "view",
      "type": "function"
    },
    {
      "inputs": [
        {
          "internalType": "address",
          "name": "token",
          "type": "address"
        },
        {
          "internalType": "uint256",
          "name": "unitAmount",
          "type": "uint256"
        }
      ],
      "name": "withdraw",
      "outputs": [],
      "stateMutability": "nonpayable",
      "type": "function"
    }
  ],
  "bytecode": "0x6080604052620f424060025534801561001757600080fd5b50604051611f26380380611f268339818101604052810190610039919061015f565b81600160006101000a81548173ffffffffffffffffffffffffffffffffffffffff021916908373ffffffffffffffffffffffffffffffffffffffff160217905550600073ffffffffffffffffffffffffffffffffffffffff168173ffffffffffffffffffffffffffffffffffffffff16146100b457806100b6565b335b6000806101000a81548173ffffffffffffffffffffffffffffffffffffffff021916908373ffffffffffffffffffffffffffffffffffffffff160217905550505061019f565b600080fd5b600073ffffffffffffffffffffffffffffffffffffffff82169050919050565b600061012c82610101565b9050919050565b61013c81610121565b811461014757600080fd5b50565b60008151905061015981610133565b92915050565b60008060408385031215610176576101756100fc565b5b60006101848582860161014a565b92505060206101958582860161014a565b9150509250929050565b611d78806101ae6000396000f3fe608060405234801561001057600080fd5b50600436106100ea5760003560e01c8063968400601161008c578063d4fac45d11610066578063d4fac45d1461025d578063deeaa28d1461028d578063f3fef3a3146102ab578063f5dab711146102c7576100ea565b8063968400601461020757806397dc97cb14610223578063cf8fbec914610241576100ea565b806347e7ef24116100c857806347e7ef241461018157806359b47ae41461019d57806362e23830146101cd5780638da5cb5b146101e9576100ea565b80630309f062146100ef578063173122281461011f5780633f0f4f7114610151575b600080fd5b610109600480360381019061010491906113e9565b6102f9565b6040516101169190611442565b60405180910390f35b61013960048036038101906101349190611496565b61031e565b60405161014893929190611531565b60405180910390f35b61016b600480360381019061016691906113e9565b6103a8565b6040516101789190611442565b60405180910390f35b61019b60048036038101906101969190611594565b61042f565b005b6101b760048036038101906101b291906115d4565b61079b565b6040516101c49190611442565b60405180910390f35b6101e760048036038101906101e2919061163f565b6107b3565b005b6101f1610bda565b6040516101fe91906116a6565b60405180910390f35b610221600480360381019061021c9190611726565b610bfe565b005b61022b610c92565b60405161023891906116a6565b60405180910390f35b61025b600480360381019061025691906115d4565b610cb8565b005b610277600480360381019061027291906113e9565b610dcd565b6040516102849190611442565b60405180910390f35b610295610ea6565b6040516102a29190611442565b60405180910390f35b6102c560048036038101906102c09190611594565b610eac565b005b6102e160048036038101906102dc91906115d4565b611245565b6040516102f093929190611773565b60405180910390f35b6004602052816000526040600020602052806000526040600020600091509150505481565b60066020528060005260406000206000915090508060000160009054906101000a900473ffffffffffffffffffffffffffffffffffffffff16908060010160009054906101000a900473ffffffffffffffffffffffffffffffffffffffff16908060020160009054906101000a900473ffffffffffffffffffffffffffffffffffffffff16905083565b6000600460008373ffffffffffffffffffffffffffffffffffffffff1673ffffffffffffffffffffffffffffffffffffffff16815260200190815260200160002060008473ffffffffffffffffffffffffffffffffffffffff1673ffffffffffffffffffffffffffffffffffffffff16815260200190815260200160002054905092915050565b60008111610472576040517f08c379a000000000000000000000000000000000000000000000000000000000815260040161046990611807565b60405180910390fd5b6000600360008473ffffffffffffffffffffffffffffffffffffffff1673ffffffffffffffffffffffffffffffffffffffff168152602001908152602001600020600001540361050657600254600360008473ffffffffffffffffffffffffffffffffffffffff1673ffffffffffffffffffffffffffffffffffffffff168152602001908152602001600020600001819055505b6000600360008473ffffffffffffffffffffffffffffffffffffffff1673ffffffffffffffffffffffffffffffffffffffff1681526020019081526020016000209050600081600001548361055b9190611885565b9050600081116105a0576040517f08c379a000000000000000000000000000000000000000000000000000000000815260040161059790611902565b60405180910390fd5b808260010160008282546105b49190611922565b92505081905550828260020160008282546105cf9190611922565b9250508190555080600460003373ffffffffffffffffffffffffffffffffffffffff1673ffffffffffffffffffffffffffffffffffffffff16815260200190815260200160002060008673ffffffffffffffffffffffffffffffffffffffff1673ffffffffffffffffffffffffffffffffffffffff16815260200190815260200160002060008282546106629190611922565b9250508190555060008473ffffffffffffffffffffffffffffffffffffffff166323b872dd3330876040518463ffffffff1660e01b81526004016106a893929190611956565b6020604051808303816000875af11580156106c7573d6000803e3d6000fd5b505050506040513d601f19601f820116820180604052508101906106eb91906119c5565b90508061072d576040517f08c379a000000000000000000000000000000000000000000000000000000000815260040161072490611a3e565b60405180910390fd5b8473ffffffffffffffffffffffffffffffffffffffff163373ffffffffffffffffffffffffffffffffffffffff167ff5681f9d0db1b911ac18ee83d515a1cf1051853a9eae418316a2fdf7dea427c5868560405161078c929190611a5e565b60405180910390a35050505050565b60056020528060005260406000206000915090505481565b60008054906101000a900473ffffffffffffffffffffffffffffffffffffffff1673ffffffffffffffffffffffffffffffffffffffff163373ffffffffffffffffffffffffffffffffffffffff1614610841576040517f08c379a000000000000000000000000000000000000000000000000000000000815260040161083890611ad3565b60405180910390fd5b600073ffffffffffffffffffffffffffffffffffffffff16600660008660ff1660ff16815260200190815260200160002060010160009054906101000a900473ffffffffffffffffffffffffffffffffffffffff1673ffffffffffffffffffffffffffffffffffffffff161415806109225750600073ffffffffffffffffffffffffffffffffffffffff16600660008660ff1660ff16815260200190815260200160002060020160009054906101000a900473ffffffffffffffffffffffffffffffffffffffff1673ffffffffffffffffffffffffffffffffffffffff1614155b15610a30576109ab600660008660ff1660ff16815260200190815260200160002060010160009054906101000a900473ffffffffffffffffffffffffffffffffffffffff16600660008760ff1660ff16815260200190815260200160002060010160009054906101000a900473ffffffffffffffffffffffffffffffffffffffff16600061126f565b610a2f600660008660ff1660ff16815260200190815260200160002060010160009054906101000a900473ffffffffffffffffffffffffffffffffffffffff16600660008760ff1660ff16815260200190815260200160002060020160009054906101000a900473ffffffffffffffffffffffffffffffffffffffff16600061126f565b5b60405180606001604052808473ffffffffffffffffffffffffffffffffffffffff1681526020018373ffffffffffffffffffffffffffffffffffffffff1681526020018273ffffffffffffffffffffffffffffffffffffffff16815250600660008660ff1660ff16815260200190815260200160002060008201518160000160006101000a81548173ffffffffffffffffffffffffffffffffffffffff021916908373ffffffffffffffffffffffffffffffffffffffff16021790555060208201518160010160006101000a81548173ffffffffffffffffffffffffffffffffffffffff021916908373ffffffffffffffffffffffffffffffffffffffff16021790555060408201518160020160006101000a81548173ffffffffffffffffffffffffffffffffffffffff021916908373ffffffffffffffffffffffffffffffffffffffff160217905550905050610ba982847fffffffffffffffffffffffffffffffffffffffffffffffffffffffffffffffff61126f565b610bd481847fffffffffffffffffffffffffffffffffffffffffffffffffffffffffffffffff61126f565b50505050565b60008054906101000a900473ffffffffffffffffffffffffffffffffffffffff1681565b600160009054906101000a900473ffffffffffffffffffffffffffffffffffffffff1673ffffffffffffffffffffffffffffffffffffffff163373ffffffffffffffffffffffffffffffffffffffff1614610c8e576040517f08c379a0000000000000000000000000000000000000000000000000000000008152600401610c8590611b3f565b60405180910390fd5b5050565b600160009054906101000a900473ffffffffffffffffffffffffffffffffffffffff1681565b60008054906101000a900473ffffffffffffffffffffffffffffffffffffffff1673ffffffffffffffffffffffffffffffffffffffff163373ffffffffffffffffffffffffffffffffffffffff1614610d46576040517f08c379a0000000000000000000000000000000000000000000000000000000008152600401610d3d90611ad3565b60405180910390fd5b80600160006101000a81548173ffffffffffffffffffffffffffffffffffffffff021916908373ffffffffffffffffffffffffffffffffffffffff1602179055508073ffffffffffffffffffffffffffffffffffffffff167f8a543b23e9e3985a5581845751b4b0712b7c1a633d7ce41ef4ae00ae13dee76960405160405180910390a250565b600080600360008573ffffffffffffffffffffffffffffffffffffffff1673ffffffffffffffffffffffffffffffffffffffff16815260200190815260200160002090508060000154600460008573ffffffffffffffffffffffffffffffffffffffff1673ffffffffffffffffffffffffffffffffffffffff16815260200190815260200160002060008673ffffffffffffffffffffffffffffffffffffffff1673ffffffffffffffffffffffffffffffffffffffff16815260200190815260200160002054610e9d9190611b5f565b91505092915050565b60025481565b60008111610eef576040517f08c379a0000000000000000000000000000000000000000000000000000000008152600401610ee690611bed565b60405180910390fd5b80600460003373ffffffffffffffffffffffffffffffffffffffff1673ffffffffffffffffffffffffffffffffffffffff16815260200190815260200160002060008473ffffffffffffffffffffffffffffffffffffffff1673ffffffffffffffffffffffffffffffffffffffff168152602001908152602001600020541015610fae576040517f08c379a0000000000000000000000000000000000000000000000000000000008152600401610fa590611c59565b60405180910390fd5b6000600360008473ffffffffffffffffffffffffffffffffffffffff1673ffffffffffffffffffffffffffffffffffffffff168152602001908152602001600020905060008160000154836110039190611b5f565b9050816002015481111561104c576040517f08c379a000000000000000000000000000000000000000000000000000000000815260040161104390611cc5565b60405180910390fd5b82600460003373ffffffffffffffffffffffffffffffffffffffff1673ffffffffffffffffffffffffffffffffffffffff16815260200190815260200160002060008673ffffffffffffffffffffffffffffffffffffffff1673ffffffffffffffffffffffffffffffffffffffff16815260200190815260200160002060008282546110d89190611ce5565b92505081905550828260010160008282546110f39190611ce5565b925050819055508082600201600082825461110e9190611ce5565b9250508190555060008473ffffffffffffffffffffffffffffffffffffffff1663a9059cbb33846040518363ffffffff1660e01b8152600401611152929190611d19565b6020604051808303816000875af1158015611171573d6000803e3d6000fd5b505050506040513d601f19601f8201168201806040525081019061119591906119c5565b9050806111d7576040517f08c379a00000000000000000000000000000000000000000000000000000000081526004016111ce90611a3e565b60405180910390fd5b8473ffffffffffffffffffffffffffffffffffffffff163373ffffffffffffffffffffffffffffffffffffffff167f91fb9d98b786c57d74c099ccd2beca1739e9f6a81fb49001ca465c4b7591bbe28685604051611236929190611a5e565b60405180910390a35050505050565b60036020528060005260406000206000915090508060000154908060010154908060020154905083565b60008054906101000a900473ffffffffffffffffffffffffffffffffffffffff1673ffffffffffffffffffffffffffffffffffffffff163373ffffffffffffffffffffffffffffffffffffffff16146112fd576040517f08c379a00000000000000000000000000000000000000000000000000000000081526004016112f490611ad3565b60405180910390fd5b8273ffffffffffffffffffffffffffffffffffffffff1663095ea7b383836040518363ffffffff1660e01b8152600401611338929190611d19565b6020604051808303816000875af1158015611357573d6000803e3d6000fd5b505050506040513d601f19601f8201168201806040525081019061137b91906119c5565b50505050565b600080fd5b600080fd5b600073ffffffffffffffffffffffffffffffffffffffff82169050919050565b60006113b68261138b565b9050919050565b6113c6816113ab565b81146113d157600080fd5b50565b6000813590506113e3816113bd565b92915050565b60008060408385031215611400576113ff611381565b5b600061140e858286016113d4565b925050602061141f858286016113d4565b9150509250929050565b6000819050919050565b61143c81611429565b82525050565b60006020820190506114576000830184611433565b92915050565b600060ff82169050919050565b6114738161145d565b811461147e57600080fd5b50565b6000813590506114908161146a565b92915050565b6000602082840312156114ac576114ab611381565b5b60006114ba84828501611481565b91505092915050565b6000819050919050565b60006114e86114e36114de8461138b565b6114c3565b61138b565b9050919050565b60006114fa826114cd565b9050919050565b600061150c826114ef565b9050919050565b61151c81611501565b82525050565b61152b816113ab565b82525050565b60006060820190506115466000830186611513565b6115536020830185611522565b6115606040830184611522565b949350505050565b61157181611429565b811461157c57600080fd5b50565b60008135905061158e81611568565b92915050565b600080604083850312156115ab576115aa611381565b5b60006115b9858286016113d4565b92505060206115ca8582860161157f565b9150509250929050565b6000602082840312156115ea576115e9611381565b5b60006115f8848285016113d4565b91505092915050565b600061160c826113ab565b9050919050565b61161c81611601565b811461162757600080fd5b50565b60008135905061163981611613565b92915050565b6000806000806080858703121561165957611658611381565b5b600061166787828801611481565b94505060206116788782880161162a565b9350506040611689878288016113d4565b925050606061169a878288016113d4565b91505092959194509250565b60006020820190506116bb6000830184611522565b92915050565b600080fd5b600080fd5b600080fd5b60008083601f8401126116e6576116e56116c1565b5b8235905067ffffffffffffffff811115611703576117026116c6565b5b60208301915083600182028301111561171f5761171e6116cb565b5b9250929050565b6000806020838503121561173d5761173c611381565b5b600083013567ffffffffffffffff81111561175b5761175a611386565b5b611767858286016116d0565b92509250509250929050565b60006060820190506117886000830186611433565b6117956020830185611433565b6117a26040830184611433565b949350505050565b600082825260208201905092915050565b7f416d6f756e74206d757374206265203e20300000000000000000000000000000600082015250565b60006117f16012836117aa565b91506117fc826117bb565b602082019050919050565b60006020820190508181036000830152611820816117e4565b9050919050565b7f4e487b7100000000000000000000000000000000000000000000000000000000600052601260045260246000fd5b7f4e487b7100000000000000000000000000000000000000000000000000000000600052601160045260246000fd5b600061189082611429565b915061189b83611429565b9250826118ab576118aa611827565b5b828204905092915050565b7f4465706f73697420746f6f20736d616c6c20666f72203120756e697400000000600082015250565b60006118ec601c836117aa565b91506118f7826118b6565b602082019050919050565b6000602082019050818103600083015261191b816118df565b9050919050565b600061192d82611429565b915061193883611429565b92508282019050808211156119505761194f611856565b5b92915050565b600060608201905061196b6000830186611522565b6119786020830185611522565b6119856040830184611433565b949350505050565b60008115159050919050565b6119a28161198d565b81146119ad57600080fd5b50565b6000815190506119bf81611999565b92915050565b6000602082840312156119db576119da611381565b5b60006119e9848285016119b0565b91505092915050565b7f546f6b656e207472616e73666572206661696c65640000000000000000000000600082015250565b6000611a286015836117aa565b9150611a33826119f2565b602082019050919050565b60006020820190508181036000830152611a5781611a1b565b9050919050565b6000604082019050611a736000830185611433565b611a806020830184611433565b9392505050565b7f4e6f74206f776e65720000000000000000000000000000000000000000000000600082015250565b6000611abd6009836117aa565b9150611ac882611a87565b602082019050919050565b60006020820190508181036000830152611aec81611ab0565b9050919050565b7f4e6f7420617574686f72697a65642063616c6c65720000000000000000000000600082015250565b6000611b296015836117aa565b9150611b3482611af3565b602082019050919050565b60006020820190508181036000830152611b5881611b1c565b9050919050565b6000611b6a82611429565b9150611b7583611429565b9250828202611b8381611429565b91508282048414831517611b9a57611b99611856565b5b5092915050565b7f556e697473206d757374206265203e2030000000000000000000000000000000600082015250565b6000611bd76011836117aa565b9150611be282611ba1565b602082019050919050565b60006020820190508181036000830152611c0681611bca565b9050919050565b7f496e73756666696369656e7420756e6974730000000000000000000000000000600082015250565b6000611c436012836117aa565b9150611c4e82611c0d565b602082019050919050565b60006020820190508181036000830152611c7281611c36565b9050919050565b7f4e6f7420656e6f756768206c697175696469747920696e20706f6f6c00000000600082015250565b6000611caf601c836117aa565b9150611cba82611c79565b602082019050919050565b60006020820190508181036000830152611cde81611ca2565b9050919050565b6000611cf082611429565b9150611cfb83611429565b9250828203905081811115611d1357611d12611856565b5b92915050565b6000604082019050611d2e6000830185611522565b611d3b6020830184611433565b939250505056fea2646970667358221220ca4ae2f5b2e3db6290c754716066c39ff7628af779e75dbf2e2fa329d294deac64736f6c634300081c0033",
  "linkReferences": {},
  "deployedLinkReferences": {}
}