{
  "_format": "hh-sol-artifact-1",
  "contractName": "HAIperliquidAvsLogic",
  "sourceName": "contracts/HAIperliquidAvsLogic.sol",
  "abi": [
    {
      "inputs": [
        {
          "internalType": "address",
          "name": "_attestationCenter",
          "type": "address"
        },
        {
          "internalType": "contract ITreasury",
          "name": "_treasury",
          "type": "address"
        },
        {
          "internalType": "address",
          "name": "_owner",
          "type": "address"
        }
      ],
      "stateMutability": "nonpayable",
      "type": "constructor"
    },
    {
      "inputs": [
        {
          "components": [
            {
              "internalType": "string",
              "name": "proofOfTask",
              "type": "string"
            },
            {
              "internalType": "bytes",
              "name": "data",
              "type": "bytes"
            },
            {
              "internalType": "address",
              "name": "taskPerformer",
              "type": "address"
            },
            {
              "internalType": "uint16",
              "name": "taskDefinitionId",
              "type": "uint16"
            }
          ],
          "internalType": "struct IAttestationCenter.TaskInfo",
          "name": "_taskInfo",
          "type": "tuple"
        },
        {
          "internalType": "bool",
          "name": "_isApproved",
          "type": "bool"
        },
        {
          "internalType": "bytes",
          "name": "",
          "type": "bytes"
        },
        {
          "internalType": "uint256[2]",
          "name": "",
          "type": "uint256[2]"
        },
        {
          "internalType": "uint256[]",
          "name": "",
          "type": "uint256[]"
        }
      ],
      "name": "afterTaskSubmission",
      "outputs": [],
      "stateMutability": "nonpayable",
      "type": "function"
    },
    {
      "inputs": [],
      "name": "attestationCenter",
      "outputs": [
        {
          "internalType": "address",
          "name": "",
          "type": "address"
        }
      ],
      "stateMutability": "view",
      "type": "function"
    },
    {
      "inputs": [
        {
          "components": [
            {
              "internalType": "string",
              "name": "proofOfTask",
              "type": "string"
            },
            {
              "internalType": "bytes",
              "name": "data",
              "type": "bytes"
            },
            {
              "internalType": "address",
              "name": "taskPerformer",
              "type": "address"
            },
            {
              "internalType": "uint16",
              "name": "taskDefinitionId",
              "type": "uint16"
            }
          ],
          "internalType": "struct IAttestationCenter.TaskInfo",
          "name": "_taskInfo",
          "type": "tuple"
        },
        {
          "internalType": "bool",
          "name": "_isApproved",
          "type": "bool"
        },
        {
          "internalType": "bytes",
          "name": "_tpSignature",
          "type": "bytes"
        },
        {
          "internalType": "uint256[2]",
          "name": "_taSignature",
          "type": "uint256[2]"
        },
        {
          "internalType": "uint256[]",
          "name": "_operatorIds",
          "type": "uint256[]"
        }
      ],
      "name": "beforeTaskSubmission",
      "outputs": [],
      "stateMutability": "nonpayable",
      "type": "function"
    },
    {
      "inputs": [],
      "name": "owner",
      "outputs": [
        {
          "internalType": "address",
          "name": "",
          "type": "address"
        }
      ],
      "stateMutability": "view",
      "type": "function"
    },
    {
      "inputs": [
        {
          "internalType": "contract ITreasury",
          "name": "_treasury",
          "type": "address"
        }
      ],
      "name": "setTreasury",
      "outputs": [],
      "stateMutability": "nonpayable",
      "type": "function"
    },
    {
      "inputs": [],
      "name": "treasury",
      "outputs": [
        {
          "internalType": "contract ITreasury",
          "name": "",
          "type": "address"
        }
      ],
      "stateMutability": "view",
      "type": "function"
    }
  ],
  "bytecode": "0x608060405234801561001057600080fd5b50604051610b0b380380610b0b8339818101604052810190610032919061019d565b82600160006101000a81548173ffffffffffffffffffffffffffffffffffffffff021916908373ffffffffffffffffffffffffffffffffffffffff16021790555081600260006101000a81548173ffffffffffffffffffffffffffffffffffffffff021916908373ffffffffffffffffffffffffffffffffffffffff160217905550806000806101000a81548173ffffffffffffffffffffffffffffffffffffffff021916908373ffffffffffffffffffffffffffffffffffffffff1602179055505050506101f0565b600080fd5b600073ffffffffffffffffffffffffffffffffffffffff82169050919050565b600061012c82610101565b9050919050565b61013c81610121565b811461014757600080fd5b50565b60008151905061015981610133565b92915050565b600061016a82610121565b9050919050565b61017a8161015f565b811461018557600080fd5b50565b60008151905061019781610171565b92915050565b6000806000606084860312156101b6576101b56100fc565b5b60006101c48682870161014a565b93505060206101d586828701610188565b92505060406101e68682870161014a565b9150509250925092565b61090c806101ff6000396000f3fe608060405234801561001057600080fd5b50600436106100625760003560e01c8063502f5bd01461006757806361d027b3146100835780638da5cb5b146100a1578063d92807a2146100bf578063dd1a5387146100dd578063f0f44260146100f9575b600080fd5b610081600480360381019061007c91906104e0565b610115565b005b61008b61011e565b6040516100989190610637565b60405180910390f35b6100a9610144565b6040516100b69190610673565b60405180910390f35b6100c7610168565b6040516100d49190610673565b60405180910390f35b6100f760048036038101906100f291906104e0565b61018e565b005b610113600480360381019061010e91906106cc565b6102cb565b005b50505050505050565b600260009054906101000a900473ffffffffffffffffffffffffffffffffffffffff1681565b60008054906101000a900473ffffffffffffffffffffffffffffffffffffffff1681565b600160009054906101000a900473ffffffffffffffffffffffffffffffffffffffff1681565b600160009054906101000a900473ffffffffffffffffffffffffffffffffffffffff1673ffffffffffffffffffffffffffffffffffffffff163373ffffffffffffffffffffffffffffffffffffffff161461021e576040517f08c379a000000000000000000000000000000000000000000000000000000000815260040161021590610756565b60405180910390fd5b85156102c257600260009054906101000a900473ffffffffffffffffffffffffffffffffffffffff1673ffffffffffffffffffffffffffffffffffffffff1663968400608880602001906102729190610785565b6040518363ffffffff1660e01b815260040161028f929190610846565b600060405180830381600087803b1580156102a957600080fd5b505af11580156102bd573d6000803e3d6000fd5b505050505b50505050505050565b60008054906101000a900473ffffffffffffffffffffffffffffffffffffffff1673ffffffffffffffffffffffffffffffffffffffff163373ffffffffffffffffffffffffffffffffffffffff1614610359576040517f08c379a0000000000000000000000000000000000000000000000000000000008152600401610350906108b6565b60405180910390fd5b80600260006101000a81548173ffffffffffffffffffffffffffffffffffffffff021916908373ffffffffffffffffffffffffffffffffffffffff16021790555050565b600080fd5b600080fd5b600080fd5b6000608082840312156103c2576103c16103a7565b5b81905092915050565b60008115159050919050565b6103e0816103cb565b81146103eb57600080fd5b50565b6000813590506103fd816103d7565b92915050565b600080fd5b600080fd5b600080fd5b60008083601f84011261042857610427610403565b5b8235905067ffffffffffffffff81111561044557610444610408565b5b6020830191508360018202830111156104615761046061040d565b5b9250929050565b6000819050826020600202820111156104845761048361040d565b5b92915050565b60008083601f8401126104a05761049f610403565b5b8235905067ffffffffffffffff8111156104bd576104bc610408565b5b6020830191508360208202830111156104d9576104d861040d565b5b9250929050565b600080600080600080600060c0888a0312156104ff576104fe61039d565b5b600088013567ffffffffffffffff81111561051d5761051c6103a2565b5b6105298a828b016103ac565b975050602061053a8a828b016103ee565b965050604088013567ffffffffffffffff81111561055b5761055a6103a2565b5b6105678a828b01610412565b9550955050606061057a8a828b01610468565b93505060a088013567ffffffffffffffff81111561059b5761059a6103a2565b5b6105a78a828b0161048a565b925092505092959891949750929550565b600073ffffffffffffffffffffffffffffffffffffffff82169050919050565b6000819050919050565b60006105fd6105f86105f3846105b8565b6105d8565b6105b8565b9050919050565b600061060f826105e2565b9050919050565b600061062182610604565b9050919050565b61063181610616565b82525050565b600060208201905061064c6000830184610628565b92915050565b600061065d826105b8565b9050919050565b61066d81610652565b82525050565b60006020820190506106886000830184610664565b92915050565b600061069982610652565b9050919050565b6106a98161068e565b81146106b457600080fd5b50565b6000813590506106c6816106a0565b92915050565b6000602082840312156106e2576106e161039d565b5b60006106f0848285016106b7565b91505092915050565b600082825260208201905092915050565b7f4e6f7420616c6c6f776564000000000000000000000000000000000000000000600082015250565b6000610740600b836106f9565b915061074b8261070a565b602082019050919050565b6000602082019050818103600083015261076f81610733565b9050919050565b600080fd5b600080fd5b600080fd5b600080833560016020038436030381126107a2576107a1610776565b5b80840192508235915067ffffffffffffffff8211156107c4576107c361077b565b5b6020830192506001820236038313156107e0576107df610780565b5b509250929050565b600082825260208201905092915050565b82818337600083830152505050565b6000601f19601f8301169050919050565b600061082583856107e8565b93506108328385846107f9565b61083b83610808565b840190509392505050565b60006020820190508181036000830152610861818486610819565b90509392505050565b7f4e6f74206f776e65720000000000000000000000000000000000000000000000600082015250565b60006108a06009836106f9565b91506108ab8261086a565b602082019050919050565b600060208201905081810360008301526108cf81610893565b905091905056fea2646970667358221220b33a8e84e5572306d355e3566bd4be90df23d1fec3b4d7f84cabb59b176e4a3e64736f6c634300081c0033",
  "linkReferences": {},
  "deployedLinkReferences": {}
}