{
  "_format": "hh-sol-artifact-1",
  "contractName": "SampleAvsLogicDataReader",
  "sourceName": "contracts/SampleAvsLogicDataReader.sol",
  "abi": [
    {
      "inputs": [
        {
          "internalType": "address",
          "name": "_attestationCenter",
          "type": "address"
        }
      ],
      "stateMutability": "nonpayable",
      "type": "constructor"
    },
    {
      "inputs": [
        {
          "components": [
            {
              "internalType": "string",
              "name": "proofOfTask",
              "type": "string"
            },
            {
              "internalType": "bytes",
              "name": "data",
              "type": "bytes"
            },
            {
              "internalType": "address",
              "name": "taskPerformer",
              "type": "address"
            },
            {
              "internalType": "uint16",
              "name": "taskDefinitionId",
              "type": "uint16"
            }
          ],
          "internalType": "struct IAttestationCenter.TaskInfo",
          "name": "_taskInfo",
          "type": "tuple"
        },
        {
          "internalType": "bool",
          "name": "_isApproved",
          "type": "bool"
        },
        {
          "internalType": "bytes",
          "name": "",
          "type": "bytes"
        },
        {
          "internalType": "uint256[2]",
          "name": "",
          "type": "uint256[2]"
        },
        {
          "internalType": "uint256[]",
          "name": "",
          "type": "uint256[]"
        }
      ],
      "name": "afterTaskSubmission",
      "outputs": [],
      "stateMutability": "nonpayable",
      "type": "function"
    },
    {
      "inputs": [],
      "name": "attestationCenter",
      "outputs": [
        {
          "internalType": "address",
          "name": "",
          "type": "address"
        }
      ],
      "stateMutability": "view",
      "type": "function"
    },
    {
      "inputs": [
        {
          "components": [
            {
              "internalType": "string",
              "name": "proofOfTask",
              "type": "string"
            },
            {
              "internalType": "bytes",
              "name": "data",
              "type": "bytes"
            },
            {
              "internalType": "address",
              "name": "taskPerformer",
              "type": "address"
            },
            {
              "internalType": "uint16",
              "name": "taskDefinitionId",
              "type": "uint16"
            }
          ],
          "internalType": "struct IAttestationCenter.TaskInfo",
          "name": "_taskInfo",
          "type": "tuple"
        },
        {
          "internalType": "bool",
          "name": "_isApproved",
          "type": "bool"
        },
        {
          "internalType": "bytes",
          "name": "_tpSignature",
          "type": "bytes"
        },
        {
          "internalType": "uint256[2]",
          "name": "_taSignature",
          "type": "uint256[2]"
        },
        {
          "internalType": "uint256[]",
          "name": "_operatorIds",
          "type": "uint256[]"
        }
      ],
      "name": "beforeTaskSubmission",
      "outputs": [],
      "stateMutability": "nonpayable",
      "type": "function"
    },
    {
      "inputs": [],
      "name": "counter",
      "outputs": [
        {
          "internalType": "uint256",
          "name": "",
          "type": "uint256"
        }
      ],
      "stateMutability": "view",
      "type": "function"
    },
    {
      "inputs": [],
      "name": "lastTaskData",
      "outputs": [
        {
          "internalType": "uint8",
          "name": "activity",
          "type": "uint8"
        },
        {
          "internalType": "uint8",
          "name": "category",
          "type": "uint8"
        },
        {
          "internalType": "uint256",
          "name": "amountA",
          "type": "uint256"
        },
        {
          "internalType": "uint256",
          "name": "amountB",
          "type": "uint256"
        }
      ],
      "stateMutability": "view",
      "type": "function"
    },
    {
      "inputs": [],
      "name": "lastTaskInfo",
      "outputs": [
        {
          "internalType": "string",
          "name": "proofOfTask",
          "type": "string"
        },
        {
          "internalType": "bytes",
          "name": "data",
          "type": "bytes"
        },
        {
          "internalType": "address",
          "name": "taskPerformer",
          "type": "address"
        },
        {
          "internalType": "uint16",
          "name": "taskDefinitionId",
          "type": "uint16"
        }
      ],
      "stateMutability": "view",
      "type": "function"
    }
  ],
  "bytecode": "0x608060405234801561001057600080fd5b50604051611344380380611344833981810160405281019061003291906100dc565b80600460006101000a81548173ffffffffffffffffffffffffffffffffffffffff021916908373ffffffffffffffffffffffffffffffffffffffff16021790555050610109565b600080fd5b600073ffffffffffffffffffffffffffffffffffffffff82169050919050565b60006100a98261007e565b9050919050565b6100b98161009e565b81146100c457600080fd5b50565b6000815190506100d6816100b0565b92915050565b6000602082840312156100f2576100f1610079565b5b6000610100848285016100c7565b91505092915050565b61122c806101186000396000f3fe608060405234801561001057600080fd5b50600436106100625760003560e01c8063502f5bd01461006757806361bc221a14610083578063b69e0c72146100a1578063c102e96c146100c2578063d92807a2146100e3578063dd1a538714610101575b600080fd5b610081600480360381019061007c91906105bb565b61011d565b005b61008b610126565b60405161009891906106ac565b60405180910390f35b6100a961012c565b6040516100b994939291906106e3565b60405180910390f35b6100ca610164565b6040516100da949392919061086b565b60405180910390f35b6100eb6102c0565b6040516100f891906108be565b60405180910390f35b61011b600480360381019061011691906105bb565b6102e6565b005b50505050505050565b60005481565b60058060000160009054906101000a900460ff16908060000160019054906101000a900460ff16908060010154908060020154905084565b600180600001805461017590610908565b80601f01602080910402602001604051908101604052809291908181526020018280546101a190610908565b80156101ee5780601f106101c3576101008083540402835291602001916101ee565b820191906000526020600020905b8154815290600101906020018083116101d157829003601f168201915b50505050509080600101805461020390610908565b80601f016020809104026020016040519081016040528092919081815260200182805461022f90610908565b801561027c5780601f106102515761010080835404028352916020019161027c565b820191906000526020600020905b81548152906001019060200180831161025f57829003601f168201915b5050505050908060020160009054906101000a900473ffffffffffffffffffffffffffffffffffffffff16908060020160149054906101000a900461ffff16905084565b600460009054906101000a900473ffffffffffffffffffffffffffffffffffffffff1681565b600460009054906101000a900473ffffffffffffffffffffffffffffffffffffffff1673ffffffffffffffffffffffffffffffffffffffff163373ffffffffffffffffffffffffffffffffffffffff1614610376576040517f08c379a000000000000000000000000000000000000000000000000000000000815260040161036d90610985565b60405180910390fd5b866001818161038591906110b2565b905050851561046f57866001818161039d91906110b2565b9050506000808154809291906103b2906110ef565b91905055506000806000808a80602001906103cd9190610cdd565b8101906103da919061118f565b9350935093509350600060405180608001604052808660ff1681526020018560ff16815260200184815260200183815250905080600560008201518160000160006101000a81548160ff021916908360ff16021790555060208201518160000160016101000a81548160ff021916908360ff160217905550604082015181600101556060820151816002015590505050505050505b50505050505050565b600080fd5b600080fd5b600080fd5b60006080828403121561049d5761049c610482565b5b81905092915050565b60008115159050919050565b6104bb816104a6565b81146104c657600080fd5b50565b6000813590506104d8816104b2565b92915050565b600080fd5b600080fd5b600080fd5b60008083601f840112610503576105026104de565b5b8235905067ffffffffffffffff8111156105205761051f6104e3565b5b60208301915083600182028301111561053c5761053b6104e8565b5b9250929050565b60008190508260206002028201111561055f5761055e6104e8565b5b92915050565b60008083601f84011261057b5761057a6104de565b5b8235905067ffffffffffffffff811115610598576105976104e3565b5b6020830191508360208202830111156105b4576105b36104e8565b5b9250929050565b600080600080600080600060c0888a0312156105da576105d9610478565b5b600088013567ffffffffffffffff8111156105f8576105f761047d565b5b6106048a828b01610487565b97505060206106158a828b016104c9565b965050604088013567ffffffffffffffff8111156106365761063561047d565b5b6106428a828b016104ed565b955095505060606106558a828b01610543565b93505060a088013567ffffffffffffffff8111156106765761067561047d565b5b6106828a828b01610565565b925092505092959891949750929550565b6000819050919050565b6106a681610693565b82525050565b60006020820190506106c1600083018461069d565b92915050565b600060ff82169050919050565b6106dd816106c7565b82525050565b60006080820190506106f860008301876106d4565b61070560208301866106d4565b610712604083018561069d565b61071f606083018461069d565b95945050505050565b600081519050919050565b600082825260208201905092915050565b60005b83811015610762578082015181840152602081019050610747565b60008484015250505050565b6000601f19601f8301169050919050565b600061078a82610728565b6107948185610733565b93506107a4818560208601610744565b6107ad8161076e565b840191505092915050565b600081519050919050565b600082825260208201905092915050565b60006107df826107b8565b6107e981856107c3565b93506107f9818560208601610744565b6108028161076e565b840191505092915050565b600073ffffffffffffffffffffffffffffffffffffffff82169050919050565b60006108388261080d565b9050919050565b6108488161082d565b82525050565b600061ffff82169050919050565b6108658161084e565b82525050565b60006080820190508181036000830152610885818761077f565b9050818103602083015261089981866107d4565b90506108a8604083018561083f565b6108b5606083018461085c565b95945050505050565b60006020820190506108d3600083018461083f565b92915050565b7f4e487b7100000000000000000000000000000000000000000000000000000000600052602260045260246000fd5b6000600282049050600182168061092057607f821691505b602082108103610933576109326108d9565b5b50919050565b7f4e6f7420616c6c6f776564000000000000000000000000000000000000000000600082015250565b600061096f600b83610733565b915061097a82610939565b602082019050919050565b6000602082019050818103600083015261099e81610962565b9050919050565b600080fd5b600080fd5b600080fd5b600080833560016020038436030381126109d1576109d06109a5565b5b80840192508235915067ffffffffffffffff8211156109f3576109f26109aa565b5b602083019250600182023603831315610a0f57610a0e6109af565b5b509250929050565b600082905092915050565b7f4e487b7100000000000000000000000000000000000000000000000000000000600052604160045260246000fd5b60008190508160005260206000209050919050565b60006020601f8301049050919050565b600082821b905092915050565b600060088302610ab37fffffffffffffffffffffffffffffffffffffffffffffffffffffffffffffffff82610a76565b610abd8683610a76565b95508019841693508086168417925050509392505050565b6000819050919050565b6000610afa610af5610af084610693565b610ad5565b610693565b9050919050565b6000819050919050565b610b1483610adf565b610b28610b2082610b01565b848454610a83565b825550505050565b600090565b610b3d610b30565b610b48818484610b0b565b505050565b5b81811015610b6c57610b61600082610b35565b600181019050610b4e565b5050565b601f821115610bb157610b8281610a51565b610b8b84610a66565b81016020851015610b9a578190505b610bae610ba685610a66565b830182610b4d565b50505b505050565b600082821c905092915050565b6000610bd460001984600802610bb6565b1980831691505092915050565b6000610bed8383610bc3565b9150826002028217905092915050565b610c078383610a17565b67ffffffffffffffff811115610c2057610c1f610a22565b5b610c2a8254610908565b610c35828285610b70565b6000601f831160018114610c645760008415610c52578287013590505b610c5c8582610be1565b865550610cc4565b601f198416610c7286610a51565b60005b82811015610c9a57848901358255600182019150602085019450602081019050610c75565b86831015610cb75784890135610cb3601f891682610bc3565b8355505b6001600288020188555050505b50505050505050565b610cd8838383610bfd565b505050565b60008083356001602003843603038112610cfa57610cf96109a5565b5b80840192508235915067ffffffffffffffff821115610d1c57610d1b6109aa565b5b602083019250600182023603831315610d3857610d376109af565b5b509250929050565b600082905092915050565b60008190508160005260206000209050919050565b601f821115610da157610d7281610d4b565b610d7b84610a66565b81016020851015610d8a578190505b610d9e610d9685610a66565b830182610b4d565b50505b505050565b610db08383610d40565b67ffffffffffffffff811115610dc957610dc8610a22565b5b610dd38254610908565b610dde828285610d60565b6000601f831160018114610e0d5760008415610dfb578287013590505b610e058582610be1565b865550610e6d565b601f198416610e1b86610d4b565b60005b82811015610e4357848901358255600182019150602085019450602081019050610e1e565b86831015610e605784890135610e5c601f891682610bc3565b8355505b6001600288020188555050505b50505050505050565b610e81838383610da6565b505050565b610e8f8161082d565b8114610e9a57600080fd5b50565b60008135610eaa81610e86565b80915050919050565b60008160001b9050919050565b600073ffffffffffffffffffffffffffffffffffffffff610ee084610eb3565b9350801983169250808416831791505092915050565b6000610f11610f0c610f078461080d565b610ad5565b61080d565b9050919050565b6000610f2382610ef6565b9050919050565b6000610f3582610f18565b9050919050565b6000819050919050565b610f4f82610f2a565b610f62610f5b82610f3c565b8354610ec0565b8255505050565b610f728161084e565b8114610f7d57600080fd5b50565b60008135610f8d81610f69565b80915050919050565b60008160a01b9050919050565b600075ffff0000000000000000000000000000000000000000610fc584610f96565b9350801983169250808416831791505092915050565b6000610ff6610ff1610fec8461084e565b610ad5565b61084e565b9050919050565b6000819050919050565b61101082610fdb565b61102361101c82610ffd565b8354610fa3565b8255505050565b600081016000830161103c81856109b4565b611047818386610ccd565b50505050600181016020830161105d8185610cdd565b611068818386610e76565b5050505060028101604083018061107e81610e9d565b905061108a8184610f46565b50505060028101606083018061109f81610f80565b90506110ab8184611007565b5050505050565b6110bc828261102a565b5050565b7f4e487b7100000000000000000000000000000000000000000000000000000000600052601160045260246000fd5b60006110fa82610693565b91507fffffffffffffffffffffffffffffffffffffffffffffffffffffffffffffffff820361112c5761112b6110c0565b5b600182019050919050565b611140816106c7565b811461114b57600080fd5b50565b60008135905061115d81611137565b92915050565b61116c81610693565b811461117757600080fd5b50565b60008135905061118981611163565b92915050565b600080600080608085870312156111a9576111a8610478565b5b60006111b78782880161114e565b94505060206111c88782880161114e565b93505060406111d98782880161117a565b92505060606111ea8782880161117a565b9150509295919450925056fea2646970667358221220ca0e1df040d0d2c2b5bf3a521adbd515894572db848a782311324ea6f30640f564736f6c634300081c0033",
  "linkReferences": {},
  "deployedLinkReferences": {}
}