{
  "_format": "hh-sol-artifact-1",
  "contractName": "SampleAvsLogicCounter",
  "sourceName": "contracts/SampleAvsLogicCounter.sol",
  "abi": [
    {
      "inputs": [
        {
          "internalType": "address",
          "name": "_attestationCenter",
          "type": "address"
        }
      ],
      "stateMutability": "nonpayable",
      "type": "constructor"
    },
    {
      "inputs": [
        {
          "components": [
            {
              "internalType": "string",
              "name": "proofOfTask",
              "type": "string"
            },
            {
              "internalType": "bytes",
              "name": "data",
              "type": "bytes"
            },
            {
              "internalType": "address",
              "name": "taskPerformer",
              "type": "address"
            },
            {
              "internalType": "uint16",
              "name": "taskDefinitionId",
              "type": "uint16"
            }
          ],
          "internalType": "struct IAttestationCenter.TaskInfo",
          "name": "_taskInfo",
          "type": "tuple"
        },
        {
          "internalType": "bool",
          "name": "",
          "type": "bool"
        },
        {
          "internalType": "bytes",
          "name": "",
          "type": "bytes"
        },
        {
          "internalType": "uint256[2]",
          "name": "",
          "type": "uint256[2]"
        },
        {
          "internalType": "uint256[]",
          "name": "",
          "type": "uint256[]"
        }
      ],
      "name": "afterTaskSubmission",
      "outputs": [],
      "stateMutability": "nonpayable",
      "type": "function"
    },
    {
      "inputs": [],
      "name": "attestationCenter",
      "outputs": [
        {
          "internalType": "address",
          "name": "",
          "type": "address"
        }
      ],
      "stateMutability": "view",
      "type": "function"
    },
    {
      "inputs": [
        {
          "components": [
            {
              "internalType": "string",
              "name": "proofOfTask",
              "type": "string"
            },
            {
              "internalType": "bytes",
              "name": "data",
              "type": "bytes"
            },
            {
              "internalType": "address",
              "name": "taskPerformer",
              "type": "address"
            },
            {
              "internalType": "uint16",
              "name": "taskDefinitionId",
              "type": "uint16"
            }
          ],
          "internalType": "struct IAttestationCenter.TaskInfo",
          "name": "_taskInfo",
          "type": "tuple"
        },
        {
          "internalType": "bool",
          "name": "_isApproved",
          "type": "bool"
        },
        {
          "internalType": "bytes",
          "name": "_tpSignature",
          "type": "bytes"
        },
        {
          "internalType": "uint256[2]",
          "name": "_taSignature",
          "type": "uint256[2]"
        },
        {
          "internalType": "uint256[]",
          "name": "_operatorIds",
          "type": "uint256[]"
        }
      ],
      "name": "beforeTaskSubmission",
      "outputs": [],
      "stateMutability": "nonpayable",
      "type": "function"
    },
    {
      "inputs": [],
      "name": "counter",
      "outputs": [
        {
          "internalType": "uint256",
          "name": "",
          "type": "uint256"
        }
      ],
      "stateMutability": "view",
      "type": "function"
    },
    {
      "inputs": [],
      "name": "lastTaskInfo",
      "outputs": [
        {
          "internalType": "string",
          "name": "proofOfTask",
          "type": "string"
        },
        {
          "internalType": "bytes",
          "name": "data",
          "type": "bytes"
        },
        {
          "internalType": "address",
          "name": "taskPerformer",
          "type": "address"
        },
        {
          "internalType": "uint16",
          "name": "taskDefinitionId",
          "type": "uint16"
        }
      ],
      "stateMutability": "view",
      "type": "function"
    }
  ],
  "bytecode": "0x608060405234801561001057600080fd5b506040516110f03803806110f0833981810160405281019061003291906100dc565b80600460006101000a81548173ffffffffffffffffffffffffffffffffffffffff021916908373ffffffffffffffffffffffffffffffffffffffff16021790555050610109565b600080fd5b600073ffffffffffffffffffffffffffffffffffffffff82169050919050565b60006100a98261007e565b9050919050565b6100b98161009e565b81146100c457600080fd5b50565b6000815190506100d6816100b0565b92915050565b6000602082840312156100f2576100f1610079565b5b6000610100848285016100c7565b91505092915050565b610fd8806101186000396000f3fe608060405234801561001057600080fd5b50600436106100575760003560e01c8063502f5bd01461005c57806361bc221a14610078578063c102e96c14610096578063d92807a2146100b7578063dd1a5387146100d5575b600080fd5b61007660048036038101906100719190610487565b6100f1565b005b6100806100fa565b60405161008d9190610578565b60405180910390f35b61009e610100565b6040516100ae94939291906106d6565b60405180910390f35b6100bf61025c565b6040516100cc9190610729565b60405180910390f35b6100ef60048036038101906100ea9190610487565b610282565b005b50505050505050565b60005481565b600180600001805461011190610773565b80601f016020809104026020016040519081016040528092919081815260200182805461013d90610773565b801561018a5780601f1061015f5761010080835404028352916020019161018a565b820191906000526020600020905b81548152906001019060200180831161016d57829003601f168201915b50505050509080600101805461019f90610773565b80601f01602080910402602001604051908101604052809291908181526020018280546101cb90610773565b80156102185780601f106101ed57610100808354040283529160200191610218565b820191906000526020600020905b8154815290600101906020018083116101fb57829003601f168201915b5050505050908060020160009054906101000a900473ffffffffffffffffffffffffffffffffffffffff16908060020160149054906101000a900461ffff16905084565b600460009054906101000a900473ffffffffffffffffffffffffffffffffffffffff1681565b600460009054906101000a900473ffffffffffffffffffffffffffffffffffffffff1673ffffffffffffffffffffffffffffffffffffffff163373ffffffffffffffffffffffffffffffffffffffff1614610312576040517f08c379a0000000000000000000000000000000000000000000000000000000008152600401610309906107f0565b60405180910390fd5b86600181816103219190610f1d565b90505060008081548092919061033690610f5a565b919050555050505050505050565b600080fd5b600080fd5b600080fd5b6000608082840312156103695761036861034e565b5b81905092915050565b60008115159050919050565b61038781610372565b811461039257600080fd5b50565b6000813590506103a48161037e565b92915050565b600080fd5b600080fd5b600080fd5b60008083601f8401126103cf576103ce6103aa565b5b8235905067ffffffffffffffff8111156103ec576103eb6103af565b5b602083019150836001820283011115610408576104076103b4565b5b9250929050565b60008190508260206002028201111561042b5761042a6103b4565b5b92915050565b60008083601f840112610447576104466103aa565b5b8235905067ffffffffffffffff811115610464576104636103af565b5b6020830191508360208202830111156104805761047f6103b4565b5b9250929050565b600080600080600080600060c0888a0312156104a6576104a5610344565b5b600088013567ffffffffffffffff8111156104c4576104c3610349565b5b6104d08a828b01610353565b97505060206104e18a828b01610395565b965050604088013567ffffffffffffffff81111561050257610501610349565b5b61050e8a828b016103b9565b955095505060606105218a828b0161040f565b93505060a088013567ffffffffffffffff81111561054257610541610349565b5b61054e8a828b01610431565b925092505092959891949750929550565b6000819050919050565b6105728161055f565b82525050565b600060208201905061058d6000830184610569565b92915050565b600081519050919050565b600082825260208201905092915050565b60005b838110156105cd5780820151818401526020810190506105b2565b60008484015250505050565b6000601f19601f8301169050919050565b60006105f582610593565b6105ff818561059e565b935061060f8185602086016105af565b610618816105d9565b840191505092915050565b600081519050919050565b600082825260208201905092915050565b600061064a82610623565b610654818561062e565b93506106648185602086016105af565b61066d816105d9565b840191505092915050565b600073ffffffffffffffffffffffffffffffffffffffff82169050919050565b60006106a382610678565b9050919050565b6106b381610698565b82525050565b600061ffff82169050919050565b6106d0816106b9565b82525050565b600060808201905081810360008301526106f081876105ea565b90508181036020830152610704818661063f565b905061071360408301856106aa565b61072060608301846106c7565b95945050505050565b600060208201905061073e60008301846106aa565b92915050565b7f4e487b7100000000000000000000000000000000000000000000000000000000600052602260045260246000fd5b6000600282049050600182168061078b57607f821691505b60208210810361079e5761079d610744565b5b50919050565b7f4e6f7420616c6c6f776564000000000000000000000000000000000000000000600082015250565b60006107da600b8361059e565b91506107e5826107a4565b602082019050919050565b60006020820190508181036000830152610809816107cd565b9050919050565b600080fd5b600080fd5b600080fd5b6000808335600160200384360303811261083c5761083b610810565b5b80840192508235915067ffffffffffffffff82111561085e5761085d610815565b5b60208301925060018202360383131561087a5761087961081a565b5b509250929050565b600082905092915050565b7f4e487b7100000000000000000000000000000000000000000000000000000000600052604160045260246000fd5b60008190508160005260206000209050919050565b60006020601f8301049050919050565b600082821b905092915050565b60006008830261091e7fffffffffffffffffffffffffffffffffffffffffffffffffffffffffffffffff826108e1565b61092886836108e1565b95508019841693508086168417925050509392505050565b6000819050919050565b600061096561096061095b8461055f565b610940565b61055f565b9050919050565b6000819050919050565b61097f8361094a565b61099361098b8261096c565b8484546108ee565b825550505050565b600090565b6109a861099b565b6109b3818484610976565b505050565b5b818110156109d7576109cc6000826109a0565b6001810190506109b9565b5050565b601f821115610a1c576109ed816108bc565b6109f6846108d1565b81016020851015610a05578190505b610a19610a11856108d1565b8301826109b8565b50505b505050565b600082821c905092915050565b6000610a3f60001984600802610a21565b1980831691505092915050565b6000610a588383610a2e565b9150826002028217905092915050565b610a728383610882565b67ffffffffffffffff811115610a8b57610a8a61088d565b5b610a958254610773565b610aa08282856109db565b6000601f831160018114610acf5760008415610abd578287013590505b610ac78582610a4c565b865550610b2f565b601f198416610add866108bc565b60005b82811015610b0557848901358255600182019150602085019450602081019050610ae0565b86831015610b225784890135610b1e601f891682610a2e565b8355505b6001600288020188555050505b50505050505050565b610b43838383610a68565b505050565b60008083356001602003843603038112610b6557610b64610810565b5b80840192508235915067ffffffffffffffff821115610b8757610b86610815565b5b602083019250600182023603831315610ba357610ba261081a565b5b509250929050565b600082905092915050565b60008190508160005260206000209050919050565b601f821115610c0c57610bdd81610bb6565b610be6846108d1565b81016020851015610bf5578190505b610c09610c01856108d1565b8301826109b8565b50505b505050565b610c1b8383610bab565b67ffffffffffffffff811115610c3457610c3361088d565b5b610c3e8254610773565b610c49828285610bcb565b6000601f831160018114610c785760008415610c66578287013590505b610c708582610a4c565b865550610cd8565b601f198416610c8686610bb6565b60005b82811015610cae57848901358255600182019150602085019450602081019050610c89565b86831015610ccb5784890135610cc7601f891682610a2e565b8355505b6001600288020188555050505b50505050505050565b610cec838383610c11565b505050565b610cfa81610698565b8114610d0557600080fd5b50565b60008135610d1581610cf1565b80915050919050565b60008160001b9050919050565b600073ffffffffffffffffffffffffffffffffffffffff610d4b84610d1e565b9350801983169250808416831791505092915050565b6000610d7c610d77610d7284610678565b610940565b610678565b9050919050565b6000610d8e82610d61565b9050919050565b6000610da082610d83565b9050919050565b6000819050919050565b610dba82610d95565b610dcd610dc682610da7565b8354610d2b565b8255505050565b610ddd816106b9565b8114610de857600080fd5b50565b60008135610df881610dd4565b80915050919050565b60008160a01b9050919050565b600075ffff0000000000000000000000000000000000000000610e3084610e01565b9350801983169250808416831791505092915050565b6000610e61610e5c610e57846106b9565b610940565b6106b9565b9050919050565b6000819050919050565b610e7b82610e46565b610e8e610e8782610e68565b8354610e0e565b8255505050565b6000810160008301610ea7818561081f565b610eb2818386610b38565b505050506001810160208301610ec88185610b48565b610ed3818386610ce1565b50505050600281016040830180610ee981610d08565b9050610ef58184610db1565b505050600281016060830180610f0a81610deb565b9050610f168184610e72565b5050505050565b610f278282610e95565b5050565b7f4e487b7100000000000000000000000000000000000000000000000000000000600052601160045260246000fd5b6000610f658261055f565b91507fffffffffffffffffffffffffffffffffffffffffffffffffffffffffffffffff8203610f9757610f96610f2b565b5b60018201905091905056fea2646970667358221220ea5d4af0865c0a4744967fbf1d7f08fa6fad54ac75ac70dd7db2b6cb3924951964736f6c634300081c0033",
  "linkReferences": {},
  "deployedLinkReferences": {}
}